:100000000C943C000C9459000C9459000C94590029
:100010000C9459000C9459000C9459000C945900FC
:100020000C9459000C9459000C9459000C945900EC
:100030000C9459000C9459000C9459000C945900DC
:100040000C9459000C9459000C9459000C945900CC
:100050000C9459000C9459000C9459000C945900BC
:100060000C9459000C9459000C9459000C945900AC
:100070000C9459000C94590011241FBECFEFCDBF32
:10008000DFE3DEBF18E3A0E0B8E3E1E3F2E002C0A3
:1000900005900D92A030B107D9F728E3A0E0B8E3AE
:1000A00001C01D92A431B207E1F70E948D000C94AB
:1000B00013010C940000F894E0E0FAE0128610823C
:1000C000789408950E945B00E0E2F4E0108A118ABF
:1000D000E0E5F0E08081897F8260808380818160BB
:1000E00080838895089528ED816090E024BF8093F7
:1000F000610080E024BF80936000E0E6F0E083814F
:1001000080FDFDCF08958EEF8093000487E38093F8
:1001100020048FE08093400408956894EE24E6F86C
:10012000FF24F394C0E0D4E000E214E0F701108271
:1001300086E00E9473000E9483000E94D2000E9409
:10014000B6000D831D830E838AE292E80E94E300CD
:100150001E830E946200EACFE0E0F8E0948195FF00
:10016000FDCF8093020880E090E008951092E205B0
:10017000A0E0B8E016968C911697806C16968C933A
:100180001697E0E2F4E084E08583808184608083D8
:100190008081877F808381EA91E018968D939C937C
:1001A00019970895E0E0F8E38CEA90E08087918762
:1001B0001286138682E0838314861586E0931038B6
:1001C000F093113808950F931F93CF93DF93E0912D
:1001D0001038F0911138238121FF1BC08C01D0E031
:1001E000C0E0F80181918F01609110387091113851
:1001F000DB011896ED91FC911997882331F0099550
:10020000892B79F3DFEFCFEFECCF8AE00995892BCB
:1002100019F08FEF9FEF02C08D2F9C2FDF91CF91B0
:0A0220001F910F910895F894FFCF8D
:07022A00415424503D320055
:00000001FF
