:100000000C943C000C9459000C9459000C94D301AE
:100010000C9459000C9459000C9459000C945900FC
:100020000C9459000C9459000C9459000C945900EC
:100030000C9459000C9459000C9459000C945900DC
:100040000C9459000C9459000C9459000C945900CC
:100050000C9459000C9459000C9459000C945900BC
:100060000C9459000C9459000C9459000C945900AC
:100070000C9459000C94590011241FBECFEFCDBF32
:10008000DFE3DEBF18E3A0E0B8E3EFE1F8E002C091
:1000900005900D92A230B107D9F728E3A2E0B8E3AA
:1000A00001C01D92A231B207E1F70E94E9010C9450
:1000B000DF030C94000082EC97E80E946D032FE3AD
:1000C0008DE093E0215080409040E1F700C00000B7
:1000D0000895CF93DF93CDB7DEB7C45BD109CDBF11
:1000E000DEBF9C0144EBBE016F5F7F4F8AE00E9440
:1000F0001603882381F06FE470E0CE0101960E9420
:10010000D403FC01892B31F081E090819F3419F0F8
:1001100080E001C080E0CC54DF4FCDBFDEBFDF9177
:10012000CF91089584EC97E80E946D0388EE93E0E8
:100130000E946900089587EC97E80E946D0380EDA6
:1001400097E00E9469000895EF92FF920F931F932A
:10015000CF936D3040F5062F7C018EEC97E80E941E
:10016000580310E0101611068CF4C0E0F701EC0FF4
:10017000F11DC7FDFA9580810E947803CF5F2C2F77
:100180000C2E000C330B2017310784F382EC97E818
:100190000E94580386EE97E80E94580380EE9EE284
:1001A0000E94690001C080E0CF911F910F91FF90E4
:1001B000EF900895EF92FF920F931F93CF93DF93E9
:1001C000CDB7DEB7C054D109CDBFDEBF7C0180E220
:1001D0008E010F5F1F4FD801E82F1D92EA95E9F7B6
:1001E000FE01B196DF011D928A95E9F785ED97E84A
:1001F0000E946D0328EB3BE040E2B8018AE00E94D8
:100200001603182F882309F43FC0E7EAF1E6319777
:10021000F1F700C000008DED97E80E946D0328EB18
:100220003BE040E2BE016F5D7F4F8AE00E94160313
:10023000182F882349F10E94EA0285EE97E80E9470
:100240005803C7010E946D0388EE97E80E94580387
:10025000CE0101960E946D038EEE97E80E9458032E
:10026000CE0181960E946D0387EA91E60197F1F72E
:1002700000C000000E94CD020E940E03A7EAB1E672
:100280001197F1F700C00000812FC05CDF4FCDBF98
:10029000DEBFDF91CF911F910F91FF90EF900895F6
:1002A000E0E0F4E08AEF80838FE3809320048FE026
:1002B0008093400488E0838B0895E0E2F4E0108AA4
:1002C000118A10925104E0E5F0E08081897F82601C
:1002D0008083808181608083889508959C01F89453
:1002E000E0E4F1E091819111FDCF1092480110926C
:1002F0004901E0E4F1E091819111FDCFC901880F3E
:10030000991F880F991FE0E4F1E08287938781E0CD
:10031000878391EC9083828378940895E0E0F6E0FF
:1003200081E0808388E0828384E6808783E384871A
:1003300080E18287828581608287858180FFFDCF11
:10034000209110063091110640911206509113062B
:10035000211531054105510521F421E030E040E04F
:1003600050E01092000660E070E080E490E00E94AF
:10037000AB03C901089528ED816090E024BF80930C
:10038000610080E024BF80936000E0E6F0E08381BC
:1003900080FDFDCF089588E080930504089588E0EE
:1003A0008093060408951F920F920FB60F921124A6
:1003B0008F9381E0809343018F910F900FBE0F9038
:1003C0001F9018950E946E010E945D0110924001DD
:1003D0000895C0E4D1E00F2EF5E0EF2EF8E3FF2EF4
:1003E000F02D00E014E06894DD24D6F8CC24C3940A
:1003F000188280911138811103C086E00E94BB01F0
:100400000E948E01809303389093043880910238C3
:10041000853169F4809100388F5F809300381092A5
:1004200002388CE390E00E946E010E945D01809191
:100430001138811135C00E945001F801D5820E9407
:10044000CD020E94CB0185E090E00E94E2010E9473
:100450005B000E949200882309F46DC0FFE926E842
:1004600081E0F15020408040E1F700C0000083EFC0
:1004700097E80E94DA009FE9E6E8F1E09150E04059
:10048000F040E1F700C000000E949B00882309F4BF
:100490006BC0C092113888E790E00E946E0148C09E
:1004A0008130D9F580910338909104388D382AE055
:1004B0009207D0F1209100382530D0F5F7019083D4
:1004C0008183809102388F5F809302380E94CF0130
:1004D00087EA91E60197F1F700C0000062E0C701EA
:1004E0000E94A4009FE9E6E8F1E09150E040F0406E
:1004F000E1F700C000000E94CB012FE986E891E0FF
:10050000215080409040E1F700C000000E949B0015
:1005100085E090E00E946E010BC0809103389091BD
:1005200004388D389A4020F485E090E00E946E01F6
:100530000E945D015DCF0E94EA028EEF97E80E9463
:10054000580387EA91E60197F1F700C000000E9486
:100550000E03E7EAF1E63197F1F700C000008EE103
:1005600090E00E946E0195CF0E94EA0286E098E832
:100570000E94580387EA91E60197F1F700C0000056
:100580000E940E03E7EAF1E63197F1F700C00000A0
:100590008EE190E00E946E01CBCF81E08093E20576
:1005A000A0E0B8E016968C911697806C16968C9306
:1005B0001697E0E0F4E082E08583808182608083AA
:1005C00080818B7F808381EA91E018968D939C9344
:1005D000199708951092E205A0E0B8E080E416961D
:1005E0008C931697E0E2F4E0128A84E085838081A0
:1005F0008460808381EA91E018968D939C9319978B
:1006000008958091040888233CF4E0E0F8E08081BC
:1006100094819923E4F3089580E00895E0E2F4E002
:1006200080818B7F808384E0828B0895EF92FF929C
:100630000F931F93CF93DF93182F7B01042FE901B2
:1006400050E060E070E0C7010E94CD030E9401030A
:1006500090E0E0E0F8E08481882354F02197A9EF4E
:10066000B0E01197F1F700C000002097A1F718C083
:1006700080818A3069F08D3059F021E0290FD7014F
:10068000A90FB11D8C93021710F490E001C0922FB6
:100690008113E1CFF701E90FF11D108281E001C064
:1006A00080E0DF91CF911F910F91FF90EF9008951F
:1006B000FC012081222381F0DC011196E0E0F8E0CA
:1006C000948195FFFDCF22832D912111F9CFE0E098
:1006D000F8E0848185FFFDCF08950E94580382ECE5
:1006E00097E80E94580386EE97E80E945803089501
:1006F000CF93DF93CDB7DEB76497CDBFDEBF91E177
:10070000EEE0F8E8DE01119601900D929A95E1F77E
:10071000E82FF0E0F595E795F595E795F595E795E0
:10072000F595E79521E030E02C0F3D1FE20FF31F18
:1007300090819A8B8F70F901E80FF11D80818B8B6E
:100740001C8ACE0142960E9458036496CDBFDEBF3C
:10075000DF91CF910895A1E21A2EAA1BBB1BFD01C8
:100760000DC0AA1FBB1FEE1FFF1FA217B307E40790
:10077000F50720F0A21BB30BE40BF50B661F771FE8
:10078000881F991F1A9469F76095709580959095C8
:100790009B01AC01BD01CF010895DC0101C06D9347
:1007A00041505040E0F70895FC018191861721F0F7
:1007B0008823D9F7992708953197CF010895F894A0
:0207C000FFCF69
:1007C2000A00415400415424503D32004154245304
:1007D200463D00415424493D313100415424493DB4
:1007E2003130000A0D005041433A200049443A207A
:1007F2000054494E59464F58205634004572726F84
:10080200722032004572726F7220330030313233FF
:0D081200343536373839616263646566003D
:02081F000100D6
:00000001FF
