S0170000436F6C6962726952455631546573742E737265638B
S11300000C943E000C945B000C945B000C948E08E2
S11300100C945B000C945B000C94A6080C945B009D
S11300200C94B7080C945B000C945B000C945B007C
S11300300C945B000C945B000C945B000C945B00D0
S11300400C945B000C945B000C945B000C945B00C0
S11300500C945B000C945B000C945B000C945B00B0
S11300600C945B000C945B000C945B000C945B00A0
S11300700C945B000C945B000C945B0011241FBE79
S1130080CFEFCDBFDFE3DEBF18E3A0E0B8E3EBE7DB
S1130090F5E202C005900D92A230B107D9F728E32A
S11300A0A2E0B8E301C01D92A232B207E1F70E94B8
S11300B0FE0B0C9493110C9400008EEF80930004BB
S11300C087E3809320048FE08093400480E680934C
S11300D0800A0895E0E0F4E080E2828388E0858B82
S11300E085898160858B08958091023890910338C9
S11300F0A0910438B09105380196A11DB11D8093DB
S1130100023890930338A0930438B09305380895C7
S11301101092023810920338109204381092053865
S1130120E0E0FAE091E09287118281858E7F8187F9
S113013027EE33E026A337A39083789408952FB74E
S1130140F89460910238709103388091043890914A
S113015005382FBF0895F894E0E0FAE01286108283
S113016078940895E0E4F4E080818860808388E0F6
S113017085830895E0E4F4E080818860808388E0EA
S113018086830895E0E0F4E080818860808388E0DD
S113019085830895E0E2F4E080818061808380E1DA
S11301A086830895E0E2F4E080818061808380E1C9
S11301B0858389EF90E00197F1F700C0000008956E
S11301C00E94AB00E0E2F4E0108A118AE0E5F0E07E
S11301D08081897F8260808380818160808388952B
S11301E00895F894E0E4F1E081818111FDCF660F78
S11301F0771F660F771FE0E4F1E06287738781E081
S1130200878391EC908382837894089580E180932E
S1130210A000E0E0F6E08DE186836061628383E024
S1130220808380858160808781EE94E00197F1F777
S113023000C0000083858823E9F3E0E0F6E020892C
S11302403189108240E050E060E070E381E190E0A9
S11302500E941D0EC901089588ED616070E084BF9D
S11302606093610090E084BF90936000E0E6F0E06A
S1130270838180FDFDCF0895E0E2F4E08081806217
S1130280808380E285830895E0E2F4E080818062E7
S1130290808380E2868308952F923F924F925F92EB
S11302A06F927F928F929F92AF92BF92CF92DF9282
S11302B0EF92FF920F931F93CF93DF93DB01CA0159
S11302C08E0D9F1DA01FB11F0197A240B10508F01C
S11302D048C04115510581E06807710510F0C1E57A
S11302E001C0C0E56701780119014A015B018C2F47
S11302F00E943608182F8823A9F1892D0E946708C7
S1130300182F882379F1882D0E946708182F8823D5
S113031049F18C2F0E942408182F882319F1E1E059
S1130320CE1AD108E108F10891F0E101412C512CD9
S1130330320181E00E94470889938FEF481A580AD6
S1130340680A780A4C145D046E047F0490F3E1019A
S1130350CC0DDD1D80E00E94470888830E9485083B
S113036001C010E0812FDF91CF911F910F91FF9079
S1130370EF90DF90CF90BF90AF909F908F907F9041
S11303806F905F904F903F902F900895EF92FF925F
S11303900F931F93CF93DF931F92CDB7DEB71982CC
S11303A0E12CF12C8701E3949E012F5F3F4F40E045
S11303B050E0BA010E944C0191E089270F90DF912F
S11303C0CF911F910F91FF90EF9008952F923F923C
S11303D04F925F926F927F928F929F92AF92BF9251
S11303E0CF92DF92EF92FF920F931F93CF93DF93FD
S11303F0CDB7DEB72B97CDBFDEBF8D839E832A0199
S11304003B01190147015801DB01CA018E0D9F1DF3
S1130410A01FB11F0197A240B10508F0CCC0EF287E
S1130420E02AE12A09F4C9C040E757E14F8358871D
S113043019821A821B821C8203C059855111BFC0C4
S1130440C2019927C12CDD24D394C81AD90A81E0AA
S1130450C816D80650F091E089169906A104B10493
S113046080F46401E1E0E98712C0C601A0E0B0E0D5
S113047088159905AA05BB0548F06401F1E0F987E0
S113048006C01986C12CDD24D39401C019867F923D
S11304906F925F924F922AE233EA3F932F930E9426
S11304A0BB0E0F900F900F900F900F900F90411470
S11304B0510451E06506710410F081E501C080E546
S11304C00E943608F82E882309F480C0852D0E94E6
S11304D06708F82E882309F479C0842D0E946708E0
S11304E0E82E882309F46DC0C114D104C9F0098130
S11304F01A81020D131D89819A818C0D9D1D820D17
S1130500931D8A879B87F80181918F010E94670858
S1130510882309F45AC02A853B850217130799F7E3
S11305200E94850848EE53E04A875B870D811E814F
S1130530C8010E94C601882371F089EF90E00197F9
S1130540F1F700C00000EA85FB853197EA87FB8755
S1130550EF2B71F738C02A853B85F82E3F932F93F4
S113056046E353EA5F934F930E94BB0EC601A0E09B
S1130570B0E0881A990AAA0ABB0A480E591E6A1ED4
S11305807B1E29813A814B815C81280F391F4A1FC8
S11305905B1F29833A834B835C834F815885415089
S11305A051094F8358870F900F900F900F90452B50
S11305B009F043CF0BC0F12C09C0F12C07C0FE2C6D
S11305C005C0F82E03C0F12C01C0F82E8F2D2B96F8
S11305D0CDBFDEBFDF91CF911F910F91FF90EF90C0
S11305E0DF90CF90BF90AF909F908F907F906F904F
S11305F05F904F903F902F900895FB018081880F6A
S11306008056982F990F990F890F91819053890FD4
S11306100895FC019081992371F0DF011196908374
S113062021E030E0691302C020E030E0E20FF31F64
S11306309D919111F4CF108208958F929F92AF9261
S1130640BF92CF92DF92EF92FF927B016EE2C701DD
S11306500E940903C7010E94780E6B017C0120E40B
S113066032E44FE050E00E941D0E49015A0160E45B
S113067072E48FE090E00E940D0EA7019601261B04
S1130680370B480B590BCA01B90126E030E040E0B2
S113069050E00E943F0E69017A01A501940160EACD
S11306A076E881E090E00E940D0E6C0D7D1D8E1D9C
S11306B09F1DFF90EF90DF90CF90BF90AF909F90E1
S11306C08F9008954F925F926F927F928F929F9234
S11306D0AF92BF92CF92DF92EF92FF92CF93DF93CC
S11306E0CDB7DEB7E897CDBFDEBFFB01309709F485
S11306F0F1C16581603509F4F1C1C62ED12C20E326
S1130700C21A28EFD20A4280842C912CA12CB12C3D
S1130710208130E0A0E1BEE00E945E0E6D837E8306
S11307208F839887218130E0ACE3B0E00E945E0EB5
S113073069877A878B879C872381422E512C612C71
S1130740712C4481423028F419821A821B821C8243
S113075008C06FE170E080E090E069837A838B8366
S11307609C834330D0F19601329522952F70232734
S11307703F702327AEE3BAE00E945E0E20E931E029
S1130780DC01A29FC001A39F900DB29F900D112484
S1130790C816D90639F196013695279536952795C9
S11307A0ABE7B4E10E945E0E9695879554E6589F98
S11307B09001599F300D1124C216D306E1F0C601F1
S11307C083709927892B01F16CE170E080E090E05F
S11307D0698B7A8B8B8B9C8B1FC0198A1A8A1B8A14
S11307E01C8A1AC08DE190E0A0E0B0E0898B9A8B5E
S11307F0AB8BBC8B11C06CE170E080E090E0698B46
S11308007A8B8B8B9C8B08C08DE190E0A0E0B0E0EC
S1130810898B9A8BAB8BBC8B443028F41D8A1E8A3F
S11308201F8A188E08C06FE170E080E090E06D8B45
S11308307E8B8F8B988F453028F4198E1A8E1B8EE1
S11308401C8E08C08EE190E0A0E0B0E0898F9A8F02
S1130850AB8FBC8F463028F41D8E1E8E1F8E18A2BF
S113086008C06FE170E080E090E06D8F7E8F8F8F25
S113087098A3473028F419A21AA21BA21CA208C0EC
S11308808EE190E0A0E0B0E089A39AA3ABA3BCA35F
S1130890483028F41DA21EA21FA218A608C06FE1AA
S11308A070E080E090E06DA37EA38FA398A7493009
S11308B028F419A61AA61BA61CA608C08FE190E06E
S11308C0A0E0B0E089A79AA7ABA7BCA74A3028F458
S11308D01DA61EA61FA618AA08C06EE170E080E03F
S11308E090E06DA77EA78FA798AB4B3028F419AA88
S11308F01AAA1BAA1CAA08C08FE190E0A0E0B0E0ED
S113090089AB9AABABABBCAB4C3028F41DAA1EAA86
S11309101FAA18AE08C02EE130E040E050E02DAB35
S11309203EAB4FAB58AFE12CF12CD701C601815B34
S11309309740A109B109AC01BD017695679557951A
S1130940479576956795579547954D875E876F8749
S1130950788BC701B601615476408109910920E979
S113096031E040E050E00E941D0E8D859E85AF85EC
S1130970B889820F931FA41FB51F840D951DA61D52
S1130980B71D29813A814B815C81820F931FA41F7B
S1130990B51F49895A896B897C89840F951FA61FC5
S11309A0B71F2D893E894F89588D820F931FA41F2D
S11309B0B51F498D5A8D6B8D7C8D840F951FA61F95
S11309C0B71F2D8D3E8D4F8D58A1820F931FA41FED
S11309D0B51F49A15AA16BA17CA1840F951FA61F25
S11309E0B71F2DA13EA14FA158A5820F931FA41F8D
S11309F0B51F49A55AA56BA57CA5840F951FA61FF5
S1130A00B71F2DA53EA54FA558A9820F931FA41F5C
S1130A10B51F49A95AA96BA97CA9840F951FA61FC4
S1130A20B71F2DA93EA94FA958AD280F391F4A1F3A
S1130A305B1F60E871E581E090E00E940D0E698320
S1130A407A838B839C83D501C4018058904AAF4F2D
S1130A50B6474D805E806F807884480E591E6A1EAA
S1130A607B1E89849A84AB84BC84840C951CA61C4C
S1130A70B71CA701960160E873E381EE91E00E9440
S1130A800D0E860E971EA81EB91EC701B6016D561F
S1130A9077408109910924E630E040E050E00E946B
S1130AA01D0E60E871E581E090E00E940D0EA50145
S1130AB09401261B370B480B590BDA01C901298114
S1130AC03A814B815C81280F391F4A1F5B1FCA0181
S1130AD0B90107C060E070E0CB0103C060E070E0E2
S1130AE0CB01E896CDBFDEBFDF91CF91FF90EF90B1
S1130AF0DF90CF90BF90AF909F908F907F906F903A
S1130B005F904F9008958F929F92AF92BF92CF9231
S1130B10DF92EF92FF920F931F93CF93DF93CDB7A2
S1130B20DEB7A097CDBFDEBF5C01FE01319690E237
S1130B30DF011D929A95E9F74115510509F40DC19C
S1130B40FB019081992309F408C16A018B010F5FAD
S1130B501F4F20E0912CAE014F5F5F4F7A016894E4
S1130B60882485F8943209F4F3C09C3209F0D9C082
S1130B70939451E0951609F4CDC082E0981229C0EF
S1130B80D6011C9211961C92119712961C92F70191
S1130B9001900020E9F73197EE19FF09369708F420
S1130BA0B9C0B701C5010E94FD02F6018083BE01F0
S1130BB06D5F7F4FC5010E94FD02D60111968C9393
S1130BC0BE016B5F7F4FC5010E94FD02F601828367
S1130BD0A1C0F4E09F1215C0D60116961D921D9275
S1130BE01D921C9219978981882309F493C0B70137
S1130BF0C5010E941D03F601668377838087918770
S1130C0089C0F5E09F1220C0F70101900020E9F7A8
S1130C10CF0102978E159F0509F07CC089818F7DD5
S1130C20833509F077C0F60186819781A085B18567
S1130C30B095A095909581959F4FAF4FBF4F8683F8
S1130C409783A087B18766C0F6E09F1215C0D601CE
S1130C5016961D921D921D921C92199789818823C4
S1130C6009F458C0B701C5010E941D03F60162874B
S1130C707387848795874EC0F7E09F121FC0F701E2
S1130C8001900020E9F7CF0102978E159F0509F026
S1130C9041C089818F7D8735E9F5F6018285938589
S1130CA0A485B585B095A095909581959F4FAF4F3C
S1130CB0BF4F82879387A487B5872CC0FAE09F1221
S1130CC029C0D60113961C92139714961C9214975C
S1130CD015961C92F70101900020E9F73197EE195F
S1130CE0FF093697B8F0B701C5010E94FD02F6016D
S1130CF08383BE016D5F7F4FC5010E94FD02D60153
S1130D0014968C93BE016B5F7F4FC5010E94FD0258
S1130D10F6018583D701E82D1D92EA95E9F720E0D5
S1130D2017C09A3281F4D6011E961C9289818823B9
S1130D30A1F08E3491F0813411F0843471F481E0A7
S1130D40F60186870AC0F701E20FF11D90832F5F39
S1130D50D8019D918D01911105CFA096CDBFDEBF25
S1130D60DF91CF911F910F91FF90EF90DF90CF9083
S1130D70BF90AF909F908F9008952F923F924F9283
S1130D805F926F927F928F929F92AF92BF92CF9217
S1130D90DF92EF92FF920F931F93CF93DF93CDB720
S1130DA0DEB7C655D109CDBFDEBF67968EAF9FAF04
S1130DB067975B016A0139011E2DFB011786108AB2
S1130DC0CA010E949F0065966CAF7DAF8EAF9FAF46
S1130DD065970E94840D87EA91E60197F1F700C0B8
S1130DE00000809101388F93809100388F930E9486
S1130DF0BB0E20EB34E040E5BE016F5F7F4F8AE01D
S1130E000E94BA0D0F900F90212C312C2101FE016C
S1130E1031967F0120EB34E040E5B7018AE00E947F
S1130E20BA0D002309F4B9C087EA91E60197F1F7F6
S1130E3000C000000E94980DE7EAF1E63197F1F74F
S1130E4000C000008981843209F4ACC011C08B81D8
S1130E50803561F48C81823549F4202FA501B701D6
S1130E6067968EAD9FAD67970E948305002309F1B5
S1130E70F70101900020E9F731974F018E189F0880
S1130E80C6010E949F009F928F92FF92EF929F93C0
S1130E908F937F936F932EE333EA3F932F930E94B4
S1130EA0BB0E83EC99E00197F1F700C00000CDBFC1
S1130EB0DEBFF5018685813081F5211431044104BA
S1130EC0510429F4C6010E949F001B012C01C60194
S1130ED00E949F00DC01CB0182199309A409B50982
S1130EE0853C9940A105B105C0F0C6010E949F0050
S1130EF065962CAD3DAD4EAD5FAD6597621B730B32
S1130F00840B950B28EE33E040E050E00E941D0E68
S1130F10F5012787308B81E04FC0C6010E949F00F6
S1130F2028EE33E040E050E00E941D0E6216730686
S1130F3028F4F5016786708A80E03EC001110E94A2
S1130F40840D112319F1C6010E943C01F50185812C
S1130F50803539F487EA91E60197F1F700C0000083
S1130F6006C0EFE4F3EC3197F1F700C00000C601CE
S1130F700E944401F5018581803509F04BCF87EA51
S1130F8091E60197F1F700C0000044CFE7EAF1E6EB
S1130F903197F1F700C000003DCF8981843209F018
S1130FA088CF05C08A81873409F062CF50CF8A8107
S1130FB0873409F07ECF4BCFCA5ADF4FCDBFDEBF97
S1130FC0DF91CF911F910F91FF90EF90DF90CF9021
S1130FD0BF90AF909F908F907F906F905F904F9055
S1130FE03F902F900895E0E1F8E0168283E0838338
S1130FF08481886084838581816085838581806C18
S11310008583089588E893E1E0E1F8E025812223CF
S113101044F023E02A95F1F700000197B9F780E046
S1131020089581E0089588E893E1E0E1F8E02581FE
S113103026FD08C023E02A95F1F700000197B9F7CF
S113104080E0089581E0089590911508937093309D
S113105059F0E0E1F8E094819B7F9483880F8160EC
S113106087830E940208089580E0089590911508EE
S11310709370933051F0E0E1F8E094819B7F948386
S1131080880F87830E941308089580E00895CF9302
S11310909091150893709230A9F4C82F0E94020809
S11310A0882391F080911808CC2331F0E0E1F8E036
S11310B094819B7F948309C0E0E1F8E0948194607B
S11310C0948303C080E001C080E0CF9108959091A3
S11310D0150893709230A9F48093180828E833E136
S11310E0E0E1F8E08581958190718074892B59F451
S11310F083E08A95F1F700002150310999F780E0E7
S1131100089580E0089581E00895E0E1F8E08481A5
S11311108460848384818360848308951F920F9202
S11311200FB60F9211248F93EF93FF9381E0809376
S11311300738E0E0F4E0818580628187FF91EF91D8
S11311408F910F900FBE0F901F9018951F920F92C2
S11311500FB60F9211248F9381E080930638809309
S113116043018F910F900FBE0F901F9018951F92FF
S11311700F920FB60F9211242F933F934F935F93C7
S11311806F937F938F939F93AF93BF93EF93FF934B
S11311908DE098E30E94740081E080930B0AFF9134
S11311A0EF91BF91AF919F918F917F916F915F91DB
S11311B04F913F912F910F900FBE0F901F90189554
S11311C0FC0120816181862F90E0A0E0B0E0DC0189
S11311D099278827B22B2381822B2281BC01CD0140
S11311E0722B08952F923F924F925F926F927F924B
S11311F08F929F92AF92BF92CF92DF92EF92FF9223
S11312000F931F93CF93DF93CDB7DEB76397CDBF13
S1131210DEBF9E012F5F3F4F8CE0D9011D928A955E
S1131220E9F714E0E12EF12C00E010E040E050E09A
S1131230BA018CE098E30E944C01182F882309F42A
S113124079C0CE0101960E94E008688B798B8A8B65
S11312509B8B613071058240910508F06AC085EB73
S113126093EA9F938F930E94BB0E0F900F90812C53
S1131270912C5401689484F8412C512C32014394EC
S11312800F2EFFEC2F2EF3EA3F2EF02D1CE0E12E63
S1131290F12C00E010E09E012F5F3F4FB501A40147
S11312A08CE098E30E944C01182F882309F442C073
S11312B0CE0101960E94E008062FF72EE82ED92EC3
S11312C0CE0105960E94E008C62E7D878E879F87F3
S11312D0CE0109960E94E0089F938F937F936F93AA
S11312E0EF85EF93FE85FF932D852F93CF92DF92A9
S11312F0EF92FF920F937F926F925F924F923F9281
S11313002F920E94BB0E8CE0880E911CA11CB11C74
S1131310CDBFDEBF88899989AA89BB8988169906B9
S1131320AA06BB0638F49FEF491A590A690A790AD2
S1131330ADCF10E0812F6396CDBFDEBFDF91CF919B
S11313401F910F91FF90EF90DF90CF90BF90AF90DF
S11313509F908F907F906F905F904F903F902F90D1
S11313600895CF93C82F8823C1F08DE098E30E949D
S11313703C0187EA91E60197F1F700C000008DE097
S113138098E30E944401C13041F087EA91E6019755
S1131390F1F700C00000C15041F7CF9108950F93B9
S11313A01F93CF93DF93CDB7DEB7A097CDBFDEBF3A
S11313B087EA91E60197F1F700C0000001EE13EA15
S11313C01F930F930E94BB0E87EF93EA9F938F9313
S11313D00E94BB0E1F930F930E94BB0E8DE094EAF4
S11313E09F938F930E94BB0E8FE194EA9F938F93F8
S11313F00E94BB0E82E394EA9F938F930E94BB0EDC
S11314008CE494EA9F938F930E94BB0E0E94F2088F
S1131410CDBFDEBF811108C080E694EA9F938F930D
S11314200E94BB0E0F900F9020E137E240E2BE0114
S11314306F5F7F4F8DE00E94BA0D811109C08FE666
S113144094EA9F938F930E94BB0E0F900F9069C0F4
S11314508981803349F489E794EA9F938F930E94AA
S1131460BB0E0F900F9055C0813349F483E894EA82
S11314709F938F930E94BB0E0F900F904AC08233AC
S113148009F03FC001EE13EA1F930F930E94BB0EB5
S113149080E994EA9F938F930E94BB0E1F930F934E
S11314A00E94BB0E20E63AEE40E2BE016F5F7F4F22
S11314B08DE00E94BA0D0F900F900F900F900F9037
S11314C00F90811109C08FE694EA9F938F930E9435
S11314D0BB0E0F900F9025C0CE0101960E94780E8E
S11314E09F938F937F936F938AEA94EA9F938F934A
S11314F00E94BB0E0F900F900F900F900F900F90C3
S113150008C087EB94EA9F938F930E94BB0E0F90C1
S11315100F908AEC94EA9F938F930E94BB0E0F90D6
S11315200F90A096CDBFDEBFDF91CF911F910F9199
S11315300895BC018DE098E30E94F1008DE098E3EA
S11315400E94E000109240010895209108383091E3
S11315500938285B3B4081E0233E344008F480E0B6
S113156008954F925F926F927F928F929F92AF9263
S1131570BF92CF92DF92EF92FF920F931F93CF937C
S1131580DF93CDB7DEB76497CDBFDEBF6C01CE016C
S113159001965C0180E1D5011D928A95E9F78DE001
S11315A098E30E94D2000E94F30714E0E12EF12C8C
S11315B000E010E0950140E050E0BA018CE098E3CF
S11315C00E944C01811106C08DE098E30E94CA007C
S11315D080E000C1CE0101960E94E0084B015C014D
S11315E0DC01CB014097A109B109813F9F4FA14084
S11315F0B10528F0812C912C5401689484F814E0EE
S1131600E12EF12C00E010E09E012F5F3F4F44E0FB
S113161050E060E070E08CE098E30E944C0181119E
S113162006C08DE098E30E94CA0080E0D3C0CE01DA
S113163001960E94E0082B013C016F3F7F4F8F4FC2
S11316409F4F19F4412C512C32017F926F925F927B
S11316504F92BF92AF929F928F9288ED94EA9F939C
S11316608F930E94BB0EB6018BE098E30E94620345
S113167099838A837B836C83D60116968C91169703
S113168017969C91179718962C91189719963C9138
S113169019973D832E839F8388871A968C911A9776
S11316A01B969C911B971C962C911C971D963C9104
S11316B039872A879B878C87D501C4010C96A11D85
S11316C0B11D898B9A8BAB8BBC8BCDBFDEBF898957
S11316D09A89AB89BC890197A240B10530F08DE0AD
S11316E098E30E94CA0081E075C01CE0E12EF12C51
S11316F000E010E09E012F5F3F4FB501A4018CE094
S113170098E30E94E601811106C08DE098E30E94EF
S1131710CA0080E05FC0FC89F9832B892A838A8907
S11317208B8399899C8314E0E12EF12C00E010E076
S11317309E012F5F3F4F40E050E0BA018CE098E3F8
S11317400E94E601811106C08DE098E30E94CA0060
S113175080E040C0D6011F968D919C915097480E11
S1131760591E611C711C79826A825B824C8214E06E
S1131770E12EF12C00E010E09E012F5F3F4F44E08A
S113178050E060E070E08CE098E30E94E601811193
S113179006C08DE098E30E94CA0080E01BC07F92DF
S11317A06F925F924F92BC89BF93EB89EF93FA8952
S11317B0FF9329892F938AEF94EA9F938F930E9432
S11317C0BB0E0E94F2088DE098E30E94CA00CDBFD0
S11317D0DEBF82E06496CDBFDEBFDF91CF911F9163
S11317E00F91FF90EF90DF90CF90BF90AF909F90BC
S11317F08F907F906F905F904F900895CF93DF9379
S1131800CDB7DEB76197CDBFDEBF6894AA24A6F832
S1131810BB24B394CE0101964C010F2EFFE02F2E72
S1131820312C412C512CF02DC12C6894DD24D2F89C
S11318300F2EFFE06F2E712CF02DF5011082809198
S11318400A38811105C066E08DE098E30E942C01FE
S113185061E08DE098E30E9406018093083890933C
S1131860093880910A38811126C08DE098E30E94DE
S11318705D000E94FC0D86E090E00E94990A0E949F
S1131880A50A882339F06AE070E08DE098E30E94AD
S1131890F10004C187E00E94B10981E080930A3815
S11318A061E070E08DE098E30E94F1008DE098E340
S11318B00E94C200F3C0813009F0F0C00E94A50A62
S11318C0882339F06AE070E08DE098E30E94F1002B
S11318D0E5C0809107388823F1F010920738F601AB
S11318E0808585FFFFC00DC0F601908595FD09C078
S11318F0E7EAF1E63197F1F700C000008150A1F763
S1131900D6C0B3018DE098E30E94F1008DE098E326
S11319100E946A00C3C00E94980D8DE098E30E9463
S113192088008DE098E30E94B200FFE32DE083E09D
S1131930F15020408040E1F700C0000081E1F40153
S113194011928A95E9F7EE24E39400E022E030E076
S11319504DE058E3B4018BE098E30E94BD06182FD4
S11319608DE098E30E94BA000E94AD0D0E94980D8C
S113197087EA91E60197F1F700C00000112311F105
S1131980C4010E94B10A813049F4ECE1F5EAFF9305
S1131990EF930E94BB0E0F900F901CC0811109C0E1
S11319A087E295EA9F938F930E94BB0E0F900F904E
S11319B011C083E395EA9F938F930E94BB0E0F900F
S11319C00F9008C081E495EA9F938F930E94BB0E09
S11319D00F900F90B4018BE098E30E946203162FDE
S11319E0072FF82EE92E8DE098E30E949F0028EE41
S11319F033E040E050E00E941D0ED201C101821B81
S1131A00930BA40BB50BBF93AF939F938F938989CB
S1131A108F9388898F938E858F938D858F938C85F3
S1131A208F938B858F938A858F9389858F938885F0
S1131A308F938F818F93EF92FF920F931F938F85D4
S1131A401F928F938EE495EA9F938F930E94BB0E0F
S1131A5087E893E10197F1F700C0000010920608AF
S1131A60F6018081826080838081846080838DE040
S1131A7098E30E946A008DE098E30E949F0028EE9C
S1131A8033E040E050E00E941D0EB301621B730B73
S1131A908DE098E30E94F100CDBFDEBF10920638BE
S1131AA0109207388DE098E30E94E000C6CE0E94B1
S1131AB0980D8AE00E94B1098DE098E30E94D2005B
S1131AC00E94F3070E94CF0910920608F601808154
S1131AD0826080838081846080838DE098E30E94AB
S1131AE0CA000FCF87EA91E60197F1F700C0000022
S1131AF08DE1FACEE0E0F8E0948195FFFDCF80938C
S1131B00020880E090E00895E0E2F4E080818460DF
S1131B1080838081877F808310920102E0E0F8E077
S1131B2081EA91E0808791878681806C868308951D
S1131B30E0E0F4E080818260808380818B7F808319
S1131B4081E080930102E0E0F8E081EA91E080879F
S1131B5091878681806C8683089580910408882308
S1131B603CF4E0E0F8E0808194819923E4F3089563
S1131B7080E00895EF92FF920F931F93CF93DF932A
S1131B80182F7B01042FE90150E060E070E0C701E9
S1131B900E949F0E0E94AD0D90E0E0E0F8E0848189
S1131BA0882354F02197A9EFB0E01197F1F700C012
S1131BB000002097A1F718C080818A3069F08D3029
S1131BC059F021E0290FD701A90FB11D8C930217F9
S1131BD010F490E001C0922F8113E1CFF701E90FD7
S1131BE0F11D108281E001C080E0DF91CF911F914F
S1131BF00F91FF90EF900895EEE0F8E38AE79DE0FF
S1131C00808791871286138682E0838314861586E3
S1131C10E0931E38F0931F380895DB018F939F9350
S1131C200E946D0EBF91AF91A29F800D911DA39F45
S1131C30900DB29F900D11240895A1E21A2EAA1BB3
S1131C40BB1BFD010DC0AA1FBB1FEE1FFF1FA21768
S1131C50B307E407F50720F0A21BB30BE40BF50B65
S1131C60661F771F881F991F1A9469F760957095EE
S1131C70809590959B01AC01BD01CF010895052E7F
S1131C8097FB1EF400940E94560E57FD07D00E9445
S1131C901D0E07FC03D04EF40C94560E509540953F
S1131CA0309521953F4F4F4F5F4F08959095809504
S1131CB0709561957F4F8F4F9F4F0895A29FB001FC
S1131CC0B39FC001A39F700D811D1124911DB29F6C
S1131CD0700D811D1124911D08950E945E0EA59F13
S1131CE0900DB49F900DA49F800D911D1124089513
S1131CF01F93FC0199278827BC01E89411911032A5
S1131D00E9F3193010F01E30C8F31B3251F01D32C4
S1131D1049F4689406C00E94A60E610F711D811DCE
S1131D20911D119110531A30B0F33EF490958095A3
S1131D30709561957F4F8F4F9F4F1F910895DC01E0
S1131D4001C06D9341505040E0F70895592F482F3A
S1131D50372F262F660F771F881F991F660F771F4F
S1131D60881F991F620F731F841F951F660F771FAB
S1131D70881F991F0895A0E0B0E0E1ECFEE00C9408
S1131D807211AE014B5F5F4FFA0161917191AF0126
S1131D9080911E3890911F380E94D10EE2E00C947D
S1131DA08B11ABE0B0E0E7EDFEE00C9462116C0146
S1131DB07B018A01FC0116821782838181FFCCC1D9
S1131DC0CE0101963C01F6019381F70193FD8591C3
S1131DD093FF81917F01882309F4BAC1853239F4D4
S1131DE093FD859193FF81917F01853229F4B6019A
S1131DF090E00E94C810E7CF912C212C312CFFE1F8
S1131E00F315D8F08B3279F038F4803279F08332DC
S1131E10A1F4232D20611DC08D3261F0803369F45B
S1131E20232D216016C0832D8260382EE32DE460BB
S1131E303E2E2AC0F32DF8601DC037FC2DC020EDC6
S1131E40280F2A3040F08E32B9F436FC81C1232D9C
S1131E502064322E19C036FE06C08AE0989E200DFA
S1131E601124922E11C0EAE02E9E200D1124222E60
S1131E70F32DF0623F2E08C08C3621F4832D806848
S1131E80382E02C0883641F4F70193FD859193FF03
S1131E9081917F018111B3CF982F9F7D9554933009
S1131EA028F40C5F1F4F9FE399830DC0833631F0F4
S1131EB0833771F0833509F059C021C0F80180815E
S1131EC089830E5F1F4F88248394912C530113C080
S1131ED02801F2E04F0E511CF801A080B18036FEBB
S1131EE003C0692D70E002C06FEF7FEFC5010E944F
S1131EF0BD104C018201F32DFF773F2E16C028013F
S1131F0022E0420E511CF801A080B18036FE03C0CD
S1131F10692D70E002C06FEF7FEFC5010E94B2101F
S1131F204C01F32DF0683F2E820133FC1BC0822D3F
S1131F3090E088169906B0F4B60180E290E00E9421
S1131F40C8102A94F4CFF50137FC859137FE8191AE
S1131F505F01B60190E00E94C81021102A9421E08C
S1131F60821A91088114910471F7E8C0843611F043
S1131F70893641F5F80137FE07C06081718182819D
S1131F8093810C5F1F4F08C060817181072E000C84
S1131F90880B990B0E5F1F4FF32DFF763F2E97FF93
S1131FA009C090958095709561957F4F8F4F9F4F95
S1131FB0F0683F2E2AE030E0A3010E940411882E2D
S1131FC0861845C0853731F4232D2F7EB22E2AE0A2
S1131FD030E025C0932D997FB92E8F36C1F018F4C7
S1131FE0883579F0B5C0803719F0883721F0B0C052
S1131FF0E92FE061BE2EB4FE0DC0FB2DF460BF2EB0
S113200009C034FE0AC0292F2660B22E06C028E07B
S113201030E005C020E130E002C020E132E0F80108
S1132020B7FE07C060817181828193810C5F1F4F6D
S113203006C06081718180E090E00E5F1F4FA301B4
S11320400E940411882E8618FB2DFF773F2E36FE42
S11320500DC0232D2E7FA22E891458F434FE0BC0FC
S113206032FC09C0832D8E7EA82E05C0B82CA32C6B
S113207003C0B82C01C0B92CA4FE0FC0FE01E80DAA
S1132080F11D8081803321F49A2D997EA92E09C0F7
S1132090A2FE06C0B394B39404C08A2D867809F0D6
S11320A0B394A3FC11C0A0FE06C0B21488F4280C9B
S11320B0922C9B180EC0B21460F4B60180E290E03A
S11320C00E94C810B394F7CFB21418F42B1802C0AE
S11320D0982C212CA4FE10C0B60180E390E00E944D
S11320E0C810A2FE17C0A1FC03C088E790E002C09C
S11320F088E590E0B6010CC08A2D867859F0A1FEDF
S113210002C08BE201C080E2A7FC8DE2B60190E040
S11321100E94C810891438F4B60180E390E00E944C
S1132120C8109A94F7CF8A94F301E80DF11D8081C9
S1132130B60190E00E94C8108110F5CF222009F466
S113214042CEB60180E290E00E94C8102A94F6CFF5
S1132150F6018681978102C08FEF9FEF2B96E2E113
S11321600C947B11FC010590615070400110D8F76C
S1132170809590958E0F9F1F0895FC0161507040CB
S113218001900110D8F7809590958E0F9F1F0895A8
S11321900F931F93CF93DF93FB01238121FD03C092
S11321A08FEF9FEF2CC022FF16C0468157812481F8
S11321B035814217530744F4A081B1819D012F5FFB
S11321C03F4F208331838C93268137812F5F3F4F8C
S11321D02683378314C08B01EC01FB010084F18555
S11321E0E02D0995892BE1F6D80116968D919C91E5
S11321F01797019616968D939C931797CE01DF91AE
S1132200CF911F910F910895FA01AA27283051F117
S1132210203181F1E8946F936E7F6E5F7F4F8F4F13
S11322209F4FAF4FB1E03ED0B4E03CD0670F781F72
S1132230891F9A1FA11D680F791F8A1F911DA11D57
S11322406A0F711D811D911DA11D20D009F4689490
S11322503F912AE0269F11243019305D3193DEF638
S1132260CF010895462F4770405D4193B3E00FD0EE
S1132270C9F7F6CF462F4F70405D4A3318F0495DD9
S113228031FD4052419302D0A9F7EACFB4E0A695BC
S11322909795879577956795BA95C9F700976105DE
S11322A0710508959B01AC010A2E06945795479534
S11322B037952795BA95C9F7620F731F841F951F29
S11322C0A01D08952F923F924F925F926F927F923A
S11322D08F929F92AF92BF92CF92DF92EF92FF9232
S11322E00F931F93CF93DF93CDB7DEB7CA1BDB0BDE
S11322F0CDBFDEBF09942A88398848885F846E84FC
S11323007D848C849B84AA84B984C884DF80EE8015
S1132310FD800C811B81AA81B981CE0FD11DCDBF57
S10D2320DEBFED010895F894FFCF2D
S113232A575249544520256C750A0D00544F2025EF
S113233A640A0D00256C753A202573202825642922
S113234A0A0D0024504D544B3331342C302C312C8B
S113235A302C302C302C302C302C302C302C302C8F
S113236A302C302C302C302C302C302C302C302C7F
S113237A302A32390D0A0024504D544B3331342C4F
S113238A302C302C302C312C302C302C302C302C5E
S113239A302C302C302C302C302C302C302C302C4F
S11323AA302C302C302A32390D0A00636F756E7462
S11323BA2C74696D657374616D702C6C61742C6C0A
S11323CA6F6E0A0D00256C752C256C752C256C75A1
S11323DA2C256C750A0D002D2D2D2D2D2D2D2D2D11
S11323EA2D2D2D2D2D2D2D2D2D2D0A0D002D2D2D7F
S11323FA5449434B2D5441472D56302E312D2D2D02
S113240A0A0D002830292052656164206D656D6FBC
S113241A72790A0D00283129205265736574206D7A
S113242A656D6F72790A0D0028322920536574206C
S113243A6D696E696D756D20766F6C746167650A76
S113244A0D002833292053657420667265717565F9
S113245A6E63790A0D004D656D6F727920656D7032
S113246A74790A0D0054696D656F75740A0D004D0F
S113247A656D6F72793A0A0D0052657365747469F1
S113248A6E673A0A0D00456E746572206D562028EF
S113249A33303030202D2034333030293A0A0D00BD
S11324AA53455420544F20256C640A0D00556E6B15
S11324BA6E6F776E20636F6D6D616E64210A0D0015
S11324CA474F4F44204E49474854210A0D004F6C48
S11324DA643A2041646472657373503A20256C75BA
S11324EA2C2074746653756D3A20256C750A0D0098
S11324FA4E65773A2041646472657373503A2025B5
S113250A6C752C2074746653756D3A20256C750AA3
S113251A0D0053743A2066756C6C0A0D0053743AB4
S113252A206572726F720A0D0053743A20737563D0
S113253A636573730A0D0053743A206E6F206669DB
S113254A780A0D004649582025643A20256C752CD2
S113255A20256C752C20256C752C20545446202576
S113256A642028736C6565703A20256C75290A0DF8
S104257A005C
S105257B4DA36A
S9030000FC
