:100000000C943E000C945B000C945B000C946E0905
:100010000C945B000C945B000C9486090C945B00C0
:100020000C9497090C945B000C945B000C945B009F
:100030000C945B000C945B000C945B000C945B00D4
:100040000C945B000C945B000C945B000C945B00C4
:100050000C945B000C945B000C945B000C945B00B4
:100060000C945B000C945B000C945B000C945B00A4
:100070000C945B000C945B000C945B0011241FBE7D
:10008000CFEFCDBFDFE3DEBF18E3A0E0B8E3E6E3E8
:10009000FAE202C005900D92A430B107D9F728E327
:1000A000A4E0B8E301C01D92A432B207E1F70E94B8
:1000B0006E0D0C9499130C9400008EEF8093000445
:1000C00087E3809320048FE08093400480E6809350
:1000D000800A0895E0E0F4E080E2828388E0858B86
:1000E00085898160858B08958091043890910538C9
:1000F000A0910638B09107380196A11DB11D8093DB
:10010000043890930538A0930638B09307380895C3
:100110001092043810920538109206381092073861
:10012000E0E0FAE091E09287118281858E7F8187FD
:1001300027EE33E026A337A39083789408952FB752
:10014000F894609104387091053880910638909148
:1001500007382FBF0895F894E0E0FAE01286108285
:1001600078940895E0E4F4E080818860808388E0FA
:1001700085830895E0E4F4E080818860808388E0EE
:1001800086830895E0E0F4E080818860808388E0E1
:1001900085830895E0E2F4E080818061808380E1DE
:1001A00086830895E0E2F4E080818061808380E1CD
:1001B000858389EF90E00197F1F700C00000089572
:1001C0000E94AB00E0E2F4E0108A118AE0E5F0E082
:1001D0008081897F8260808380818160808388952F
:1001E0000895F894E0E4F1E081818111FDCF660F7C
:1001F000771F660F771FE0E4F1E06287738781E085
:10020000878391EC908382837894089580E1809332
:10021000A000E0E0F6E08DE186836061628383E028
:10022000808380858160808781EE94E00197F1F77B
:1002300000C0000083858823E9F3E0E0F6E0208930
:100240003189108240E050E060E070E381E190E0AD
:100250000E94D60FC901089588ED616070E084BFE7
:100260006093610090E084BF90936000E0E6F0E06E
:10027000838180FDFDCF0895E0E2F4E0808180621B
:10028000808380E285830895E0E2F4E080818062EB
:10029000808380E2868308950F931F93CF938C0110
:1002A000C62F6623B1F0C8010E943C0187EA91E69F
:1002B0000197F1F700C00000C8010E944401C1305D
:1002C00041F087EA91E60197F1F700C00000C150C4
:1002D00051F7CF911F910F9108952F923F924F9216
:1002E0005F926F927F928F929F92AF92BF92CF92C6
:1002F000DF92EF92FF920F931F93CF93DF93DB0177
:10030000CA018E0D9F1DA01FB11F0197A240B1050C
:1003100008F048C04115510581E06807710510F0EB
:10032000C1E501C0C0E56701780119014A015B011F
:100330008C2F0E941609182F8823A9F1892D0E945D
:100340004709182F882379F1882D0E944709182F13
:10035000882349F18C2F0E940409182F882319F152
:10036000E1E0CE1AD108E108F10891F0E101412C59
:10037000512C320181E00E94270989938FEF481A9E
:10038000580A680A780A4C145D046E047F0490F3DE
:10039000E101CC0DDD1D80E00E94270988830E94C9
:1003A000650901C010E0812FDF91CF911F910F915E
:1003B000FF90EF90DF90CF90BF90AF909F908F9085
:1003C0007F906F905F904F903F902F900895EF92A5
:1003D000FF920F931F93CF93DF931F92CDB7DEB79A
:1003E0001982E12CF12C8701E3949E012F5F3F4F8E
:1003F00040E050E0BA010E946D0191E089270F9022
:10040000DF91CF911F910F91FF90EF9008952F9260
:100410003F924F925F926F927F928F929F92AF9294
:10042000BF92CF92DF92EF92FF920F931F93CF93E1
:10043000DF93CDB7DEB72B97CDBFDEBF8D839E8315
:100440002A013B01190147015801DB01CA018E0D48
:100450009F1DA01FB11F0197A240B10508F0CCC09D
:10046000EF28E02AE12A09F4C9C040E757E14F83A9
:10047000588719821A821B821C8203C05985511128
:10048000BFC0C2019927C12CDD24D394C81AD90A50
:1004900081E0C816D80650F091E089169906A104AB
:1004A000B10480F46401E1E0E98712C0C601A0E074
:1004B000B0E088159905AA05BB0548F06401F1E094
:1004C000F98706C01986C12CDD24D39401C0198692
:1004D0007F926F925F924F9226E337EA3F932F937A
:1004E0000E94A5100F900F900F900F900F900F90FB
:1004F0004114510451E06506710410F081E501C01A
:1005000080E50E941609F82E882309F480C0852D05
:100510000E944709F82E882309F479C0842D0E948F
:100520004709E82E882309F46DC0C114D104C9F02D
:1005300009811A81020D131D89819A818C0D9D1DDF
:10054000820D931D8A879B87F80181918F010E94FC
:100550004709882309F45AC02A853B8502171307E7
:1005600099F70E94650948EE53E04A875B870D8141
:100570001E81C8010E94E701882371F089EF90E095
:100580000197F1F700C00000EA85FB853197EA8703
:10059000FB87EF2B71F738C02A853B85F82E3F93F8
:1005A0002F9342E457EA5F934F930E94A510C60130
:1005B000A0E0B0E0881A990AAA0ABB0A480E591EA0
:1005C0006A1E7B1E29813A814B815C81280F391F6D
:1005D0004A1F5B1F29833A834B835C834F81588575
:1005E000415051094F8358870F900F900F900F90F3
:1005F000452B09F043CF0BC0F12C09C0F12C07C0EB
:10060000FE2C05C0F82E03C0F12C01C0F82E8F2D52
:100610002B96CDBFDEBFDF91CF911F910F91FF9041
:10062000EF90DF90CF90BF90AF909F908F907F9092
:100630006F905F904F903F902F900895FB018081C5
:10064000880F8056982F990F990F890F9181905399
:10065000890F0895FC019081992371F0DF011196B3
:10066000908321E030E0691302C020E030E0E20F27
:10067000F31F9D919111F4CF108208958F929F9254
:10068000AF92BF92CF92DF92EF92FF927B016EE228
:10069000C7010E942A03C7010E944F106B017C0111
:1006A00020E432E44FE050E00E94D60F49015A01A5
:1006B00060E472E48FE090E00E94C60FA70196010B
:1006C000261B370B480B590BCA01B90126E030E055
:1006D00040E050E00E94F80F69017A01A501940101
:1006E00060EA76E881E090E00E94C60F6C0D7D1D07
:1006F0008E1D9F1DFF90EF90DF90CF90BF90AF9029
:100700009F908F9008954F925F926F927F928F92F9
:100710009F92AF92BF92CF92DF92EF92FF92CF93D0
:10072000DF93CDB7DEB7E897CDBFDEBFFB013097D3
:1007300009F4F1C16581603509F4F1C1C62ED12CEF
:1007400020E3C21A28EFD20A4280842C912CA12CDB
:10075000B12C208130E0A0E1BEE00E9417106D8333
:100760007E838F839887218130E0ACE3B0E00E94E4
:10077000171069877A878B879C872381422E512C9B
:10078000612C712C4481423028F419821A821B8218
:100790001C8208C06FE170E080E090E069837A839A
:1007A0008B839C834330D0F19601329522952F7034
:1007B00023273F702327AEE3BAE00E94171020E9F9
:1007C00031E0DC01A29FC001A39F900DB29F900D6C
:1007D0001124C816D90639F1960136952795369514
:1007E0002795ABE7B4E10E9417109695879554E6DC
:1007F000589F9001599F300D1124C216D306E1F085
:10080000C60183709927892B01F16CE170E080E0CB
:1008100090E0698B7A8B8B8B9C8B1FC0198A1A8A0C
:100820001B8A1C8A1AC08DE190E0A0E0B0E0898BA1
:100830009A8BAB8BBC8B11C06CE170E080E090E0D8
:10084000698B7A8B8B8B9C8B08C08DE190E0A0E04C
:10085000B0E0898B9A8BAB8BBC8B443028F41D8A1B
:100860001E8A1F8A188E08C06FE170E080E090E059
:100870006D8B7E8B8F8B988F453028F4198E1A8E56
:100880001B8E1C8E08C08EE190E0A0E0B0E0898F46
:100890009A8FAB8FBC8F463028F41D8E1E8E1F8E14
:1008A00018A208C06FE170E080E090E06D8F7E8F4D
:1008B0008F8F98A3473028F419A21AA21BA21CA25A
:1008C00008C08EE190E0A0E0B0E089A39AA3ABA3BA
:1008D000BCA3483028F41DA21EA21FA218A608C05F
:1008E0006FE170E080E090E06DA37EA38FA398A7F6
:1008F000493028F419A61AA61BA61CA608C08FE129
:1009000090E0A0E0B0E089A79AA7ABA7BCA74A30C7
:1009100028F41DA61EA61FA618AA08C06EE170E046
:1009200080E090E06DA77EA78FA798AB4B3028F4AE
:1009300019AA1AAA1BAA1CAA08C08FE190E0A0E07D
:10094000B0E089AB9AABABABBCAB4C3028F41DAA82
:100950001EAA1FAA18AE08C02EE130E040E050E009
:100960002DAB3EAB4FAB58AFE12CF12CD701C601FC
:10097000815B9740A109B109AC01BD0176956795EE
:100980005795479576956795579547954D875E8717
:100990006F87788BC701B601615476408109910950
:1009A00020E931E040E050E00E94D60F8D859E8521
:1009B000AF85B889820F931FA41FB51F840D951DA5
:1009C000A61DB71D29813A814B815C81820F931F3F
:1009D000A41FB51F49895A896B897C89840F951F8B
:1009E000A61FB71F2D893E894F89588D820F931FEF
:1009F000A41FB51F498D5A8D6B8D7C8D840F951F5B
:100A0000A61FB71F2D8D3E8D4F8D58A1820F931FAE
:100A1000A41FB51F49A15AA16BA17CA1840F951FEA
:100A2000A61FB71F2DA13EA14FA158A5820F931F4E
:100A3000A41FB51F49A55AA56BA57CA5840F951FBA
:100A4000A61FB71F2DA53EA54FA558A9820F931F1E
:100A5000A41FB51F49A95AA96BA97CA9840F951F8A
:100A6000A61FB71F2DA93EA94FA958AD280F391FA2
:100A70004A1F5B1F60E871E581E090E00E94C60FAD
:100A800069837A838B839C83D501C4018058904A03
:100A9000AF4FB6474D805E806F807884480E591EF8
:100AA0006A1E7B1E89849A84AB84BC84840C951C4A
:100AB000A61CB71CA701960160E873E381EE91E0E4
:100AC0000E94C60F860E971EA81EB91EC701B6014A
:100AD0006D5677408109910924E630E040E050E00E
:100AE0000E94D60F60E871E581E090E00E94C60F99
:100AF000A5019401261B370B480B590BDA01C901DC
:100B000029813A814B815C81280F391F4A1F5B1F65
:100B1000CA01B90107C060E070E0CB0103C060E02A
:100B200070E0CB01E896CDBFDEBFDF91CF91FF90A3
:100B3000EF90DF90CF90BF90AF909F908F907F907D
:100B40006F905F904F9008958F929F92AF92BF9257
:100B5000CF92DF92EF92FF920F931F93CF93DF9389
:100B6000CDB7DEB7A097CDBFDEBF5C01FE013196E9
:100B700090E2DF011D929A95E9F74115510509F4BC
:100B80000DC1FB019081992309F408C16A018B0111
:100B90000F5F1F4F20E0912CAE014F5F5F4F7A0136
:100BA0006894882485F8943209F4F3C09C3209F0E3
:100BB000D9C0939451E0951609F4CDC082E0981203
:100BC00029C0D6011C9211961C92119712961C9264
:100BD000F70101900020E9F73197EE19FF093697E8
:100BE00008F4B9C0B701C5010E941E03F601808355
:100BF000BE016D5F7F4FC5010E941E03D601119695
:100C00008C93BE016B5F7F4FC5010E941E03F601EE
:100C10008283A1C0F4E09F1215C0D60116961D92E2
:100C20001D921D921C9219978981882309F493C003
:100C3000B701C5010E943E03F60166837783808772
:100C4000918789C0F5E09F1220C0F7010190002034
:100C5000E9F7CF0102978E159F0509F07CC08981C5
:100C60008F7D833509F077C0F60186819781A08555
:100C7000B185B095A095909581959F4FAF4FBF4F8F
:100C800086839783A087B18766C0F6E09F1215C060
:100C9000D60116961D921D921D921C92199789815C
:100CA000882309F458C0B701C5010E943E03F6012C
:100CB00062877387848795874EC0F7E09F121FC0B5
:100CC000F70101900020E9F7CF0102978E159F05EB
:100CD00009F041C089818F7D8735E9F5F60182856C
:100CE0009385A485B585B095A095909581959F4FE6
:100CF000AF4FBF4F82879387A487B5872CC0FAE098
:100D00009F1229C0D60113961C92139714961C9219
:100D1000149715961C92F70101900020E9F731977E
:100D2000EE19FF093697B8F0B701C5010E941E03FE
:100D3000F6018383BE016D5F7F4FC5010E941E03D4
:100D4000D60114968C93BE016B5F7F4FC5010E9444
:100D50001E03F6018583D701E82D1D92EA95E9F778
:100D600020E017C09A3281F4D6011E961C92898128
:100D70008823A1F08E3491F0813411F0843471F421
:100D800081E0F60186870AC0F701E20FF11D90832A
:100D90002F5FD8019D918D01911105CFA096CDBFF8
:100DA000DEBFDF91CF911F910F91FF90EF90DF9009
:100DB000CF90BF90AF909F908F9008956F927F9249
:100DC0008F929F92AF92BF92CF92DF92EF92FF925B
:100DD0000F931F93CF93DF93CDB7DEB7A097CDBF0F
:100DE000DEBF5C01FE01319690E2DF011D929A9513
:100DF000E9F74115510509F464C0FB01908199237D
:100E000009F45FC06A018B010F5F1F4F20E0912C36
:100E1000AE014F5F5F4F7A016894882485F866249D
:100E20006A94712C943209F447C09C32F1F5939482
:100E300058E095121CC0D60151961C925197F701AB
:100E400001900020E9F73197EE19FF09E130F10533
:100E500029F48981805351968C9320C03297F1F404
:100E6000B701C5010E941E03F601818B17C0F9E08E
:100E70009F1214C0D60152961C928981882371F06A
:100E80006EE2C7010E942A03C7010E9431108F3F02
:100E9000910511F00CF0862DF601828BD701E82D1B
:100EA0001D92EA95E9F720E007C09A3251F0F70168
:100EB000E20FF11D90832F5FD8019D918D0191115B
:100EC000B1CFA096CDBFDEBFDF91CF911F910F9123
:100ED000FF90EF90DF90CF90BF90AF909F908F905A
:100EE0007F906F9008952F923F924F925F926F92F2
:100EF0007F928F929F92AF92BF92CF92DF92EF92AA
:100F0000FF920F931F93CF93DF93CDB7DEB7CB55EF
:100F1000D109CDBFDEBF6C968EAF9FAF6C972B0112
:100F20003A01190162960FAF62976696CCAEDDAEBC
:100F3000EEAEFFAE6697DA2CC82CFB011786108A3E
:100F4000CA010E949F006A966CAF7DAF8EAF9FAFC3
:100F50006A970E943D0F87EA91E60197F1F700C07A
:100F60000000809101388F93809100388F930E9408
:100F7000A51020EB34E040E5BE016F5F7F4F8AE0B3
:100F80000E94730F0F900F90812C912C540120EB35
:100F900034E040E5BE016F5F7F4F8AE00E94730F2F
:100FA000CC2071F0E7EAF1E63197F1F700C00000DC
:100FB0000E94510F87EA91E60197F1F700C0000007
:100FC00064E270E0CE0101960E947D108C010097D2
:100FD00009F44EC0FC018081843239F58181873467
:100FE00021F58281803591F48381823579F4A201E3
:100FF000B8016C968EAD9FAD6C970E94A405F80168
:101000008081843291F48181873479F4F80182817E
:10101000803559F48381873441F4A201B8016C967C
:101020008EAD9FAD6C970E94DE06CC2009F1F801D1
:1010300001900020E9F731977F01E01AF10AC3011E
:101040000E949F00FF92EF921F930F939F938F93A5
:101050007F936F932AE437EA3F932F930E94A51062
:1010600083EC99E00197F1F700C00000CDBFDEBF2F
:10107000F2018685813009F03FC081149104A104FA
:10108000B10429F4C3010E949F004B015C01F201ED
:101090008289882329F06296FFAD62978F17A0F0AE
:1010A000C3010E949F00DC01CB0188199909AA099C
:1010B000BB0966962CAD3DAD4EAD5FAD669728176A
:1010C00039074A075B07C0F4C3010E949F006A9674
:1010D0002CAD3DAD4EAD5FAD6A97621B730B840BBB
:1010E000950B28EE33E040E050E00E94D60FF2016D
:1010F0002787308B81E040C0C3010E949F0028EE0B
:1011000033E040E050E00E94D60F2216330628F468
:10111000F2012786308A80E02FC0C1100E943D0F67
:10112000DD2019F1C3010E943C01F2018581803567
:1011300039F487EA91E60197F1F700C0000006C094
:10114000EFE4F3EC3197F1F700C00000C3010E9417
:101150004401F2018581803509F019CF87EA91E6D3
:101160000197F1F700C0000012CFE7EAF1E63197EE
:10117000F1F700C000000BCFC55ADF4FCDBFDEBF77
:10118000DF91CF911F910F91FF90EF90DF90CF9063
:10119000BF90AF909F908F907F906F905F904F9097
:1011A0003F902F900895E0E1F8E0168283E083837A
:1011B0008481886084838581816085838581806C5A
:1011C0008583089588E893E1E0E1F8E02581222312
:1011D00044F023E02A95F1F700000197B9F780E089
:1011E000089581E0089588E893E1E0E1F8E0258141
:1011F00026FD08C023E02A95F1F700000197B9F712
:1012000080E0089581E008959091150893709330DF
:1012100059F0E0E1F8E094819B7F9483880F81602E
:1012200087830E94E208089580E008959091150850
:101230009370933051F0E0E1F8E094819B7F9483C8
:10124000880F87830E94F308089580E00895CF9364
:101250009091150893709230A9F4C82F0E94E2086B
:10126000882391F080911808CC2331F0E0E1F8E078
:1012700094819B7F948309C0E0E1F8E094819460BD
:10128000948303C080E001C080E0CF9108959091E5
:10129000150893709230A9F48093180828E833E178
:1012A000E0E1F8E08581958190718074892B59F493
:1012B00083E08A95F1F700002150310999F780E029
:1012C000089580E0089581E00895E0E1F8E08481E8
:1012D0008460848384818360848308951F920F9245
:1012E0000FB60F9211248F93EF93FF9381E08093B9
:1012F0000938E0E0F4E0818580628187FF91EF9119
:101300008F910F900FBE0F901F9018951F920F9204
:101310000FB60F9211248F9381E080930838809349
:1013200043018F910F900FBE0F901F9018951F9241
:101330000F920FB60F9211242F933F934F935F9309
:101340006F937F938F939F93AF93BF93EF93FF938D
:101350008FE098E30E94740081E080930B0AFF9174
:10136000EF91BF91AF919F918F917F916F915F911D
:101370004F913F912F910F900FBE0F901F90189596
:10138000FC0120816181862F90E0A0E0B0E0DC01CB
:1013900099278827B22B2381822B2281BC01CD0182
:1013A000722B08952F923F924F925F926F927F928D
:1013B0008F929F92AF92BF92CF92DF92EF92FF9265
:1013C0000F931F93CF93DF93CDB7DEB76397CDBF56
:1013D000DEBF9E012F5F3F4F8CE0D9011D928A95A1
:1013E000E9F714E0E12EF12C00E010E040E050E0DD
:1013F000BA018EE098E30E946D01182F882309F44A
:1014000079C0CE0101960E94C009688B798B8A8BC6
:101410009B8B613071058240910508F06AC081ECB8
:1014200097EA9F938F930E94A5100F900F90812CA5
:10143000912C5401689484F8412C512C320143942E
:101440000F2EFBED2F2EF7EA3F2EF02D1CE0E12EA4
:10145000F12C00E010E09E012F5F3F4FB501A40189
:101460008EE098E30E946D01182F882309F442C092
:10147000CE0101960E94C009062FF72EE82ED92E24
:10148000CE0105960E94C009C62E7D878E879F8754
:10149000CE0109960E94C0099F938F937F936F930B
:1014A000EF85EF93FE85FF932D852F93CF92DF92EB
:1014B000EF92FF920F937F926F925F924F923F92C3
:1014C0002F920E94A5108CE0880E911CA11CB11CCB
:1014D000CDBFDEBF88899989AA89BB8988169906FC
:1014E000AA06BB0638F49FEF491A590A690A790A15
:1014F000ADCF10E0812F6396CDBFDEBFDF91CF91DE
:101500001F910F91FF90EF90DF90CF90BF90AF9021
:101510009F908F907F906F905F904F903F902F9013
:1015200008958DEE97EA9F938F930E94A5100E94D5
:10153000D2090F900F90811108C082E098EA9F9322
:101540008F930E94A5100F900F908AE098EA9F93C6
:101550008F930E94A5100F900F9008952F923F92A5
:101560004F925F926F927F928F929F92AF92BF92B3
:10157000CF92DF92EF92FF920F931F93CF93DF935F
:10158000CDB7DEB7A197CDBFDEBF87EA91E6019761
:10159000F1F700C000000DE118EA1F930F930E94BD
:1015A000A51083E398EA9F938F930E94A5101F9341
:1015B0000F930E94A51080E090E00E944C13082F2A
:1015C00081E090E00E944C1310E0102F0027082BC0
:1015D00082E090E00E944C13F82E83E090E00E949D
:1015E0004C132F2D30E0322F2227A901482BCA019E
:1015F0009F938F931F930F9389E498EA9F938F9300
:101600000E94A5100E94910ACDBFDEBF0DE118EA2D
:101610000F2EF4E88F2EF8EA9F2EF02D0F2EFEE904
:10162000AF2EF8EABF2EF02D0F2EF1EBCF2EF8EAF9
:10163000DF2EF02D0F2EFCECEF2EF8EAFF2EF02D12
:101640000F2EF4EE6F2EF8EA7F2EF02D0F2EFEE413
:101650004F2EF9EA5F2EF02D1F930F930E94A510D5
:101660009F928F920E94A510BF92AF920E94A510E8
:10167000DF92CF920E94A510FF92EF920E94A510D8
:101680007F926F920E94A5101F930F930E94A51046
:1016900020E23EE440E2BE016F5F7F4F8DE00E949A
:1016A000730FCDBFDEBF811109C08FEE98EA9F9303
:1016B0008F930E94A5100F900F90B2C08981803344
:1016C00019F40E94910AC8CF813349F449EF58EACE
:1016D0005F934F930E94A5100F900F90BDCF823360
:1016E00009F07EC01F930F930E94A51080E18F9395
:1016F0008AE98F938BE08F9388EB8F9326E039EA0A
:101700003F932F930E94A5101F930F930E94A51043
:1017100020E63AEE40E2BE016F5F7F4F8DE00E940F
:10172000730FCDBFDEBF811109C08FEE98EA9F9382
:101730008F930E94A5100F900F9072C0CE0101965A
:101740000E94311089A3282E392EC101885B9B404D
:10175000833E944068F03F922F924CE159EA5F93A8
:101760004F930E94A5100F900F900F900F9074CF81
:10177000632D80E090E00E94541369A181E090E025
:101780000E94541387EA91E60197F1F700C0000028
:1017900080E090E00E944C1389A381E090E00E94D9
:1017A0004C1399A1292F30E0322F2227282B221603
:1017B000330649F020E339EA3F932F930E94A510A6
:1017C0000F900F9049CF3F922F928BE399EA9F930E
:1017D0008F930E94A5100F900F900F900F903CCF09
:1017E0008333B1F41F930F930E94A51081E08F9370
:1017F00081E18F931F9285E08F935F924F920E94B9
:10180000A5101F930F930E94A510CDBFDEBF24CF5C
:101810008AE799EA9F938F930E94A5100F900F90EB
:10182000A196CDBFDEBFDF91CF911F910F91FF90A9
:10183000EF90DF90CF90BF90AF909F908F907F9070
:101840006F905F904F903F902F900895BC018FE074
:1018500098E30E94F1008FE098E30E94E00010926C
:101860004001089520910A3830910B388091023858
:10187000909103382817390730F081E02B39304137
:1018800018F480E0089581E008954F925F926F927E
:101890007F928F929F92AF92BF92CF92DF92EF9200
:1018A000FF920F931F93CF93DF93CDB7DEB764976B
:1018B000CDBFDEBF6C019E012F5F3F4F80E1D9019C
:1018C0001D928A95E9F714E0E12EF12C00E010E07A
:1018D00040E050E0BA018EE098E30E946D01882359
:1018E00009F4DDC0CE0101960E94C0094B015C01E4
:1018F000DC01CB014097A109B109813F9F4FA14075
:10190000B10528F0812C912C5401689484F814E0DE
:10191000E12EF12C00E010E09E012F5F3F4F44E0EC
:1019200050E060E070E08EE098E30E946D01882353
:1019300009F4B7C0CE0101960E94C0092B013C01F9
:101940006F3F7F4F8F4F9F4F19F4412C512C320125
:101950007F926F925F924F92BF92AF929F928F92BF
:1019600083E999EA9F938F930E94A510B6018DE0B9
:1019700098E30E94830399838A837B836C83D601D7
:1019800016968C91169717969C91179718962C91EE
:10199000189719963C9119973D832E839F838887CA
:1019A0001A968C911A971B969C911B971C962C91BA
:1019B0001C971D963C9139872A879B878C87D50178
:1019C000C4010C96A11DB11D898B9A8BAB8BBC8B6E
:1019D000CDBFDEBF89899A89AB89BC890197A240B6
:1019E000B10508F060C01CE0E12EF12C00E010E031
:1019F0009E012F5F3F4FB501A4018EE098E30E9446
:101A00000702882309F451C0FC89F9832B892A83B2
:101A10008A898B8399899C8314E0E12EF12C00E064
:101A200010E09E012F5F3F4F40E050E0BA018EE092
:101A300098E30E9407028823D1F1D6011F968D9169
:101A40009C915097480E591E611C711C79826A82C4
:101A50005B824C829E012F5F3F4F44E050E060E08C
:101A600070E08EE098E30E940702882311F17F92D4
:101A70006F925F924F92BC89BF93EB89EF93FA8983
:101A8000FF9329892F9385EB99EA9F938F930E9467
:101A9000A5100E94D209CDBFDEBF82E00BC080E05E
:101AA00009C080E007C081E005C080E003C080E09D
:101AB00001C080E06496CDBFDEBFDF91CF911F9162
:101AC0000F91FF90EF90DF90CF90BF90AF909F90DD
:101AD0008F907F906F905F904F900895CF93DF939A
:101AE000CDB7DEB76597CDBFDEBF6894442446F816
:101AF000552453949E012F5F3F4F2C8B3D8B612CBF
:101B00006894772472F80F2EF8EB2F2EFBE03F2E0F
:101B1000F02DF201108280910C38811105C066E031
:101B20008FE098E30E942C0161E08FE098E30E942F
:101B3000060180930A3890930B3880910C388111FC
:101B400047C08FE098E30E945D0083E090E00E9430
:101B5000260C0E94B50F80E090E00E944C13182FD5
:101B600081E090E00E944C13212F30E0322F222799
:101B7000A901482BCA019C01285B3B40233E34400D
:101B800028F4809302389093033804C020920238DE
:101B9000309203380E94320C882339F06AE070E0FA
:101BA0008FE098E30E94F10030C16AE08FE098E393
:101BB0000E944C0181E080930C3861E070E08FE07E
:101BC00098E30E94F1008FE098E30E94C2001DC1DB
:101BD000813009F01AC10E94320C882339F06AE082
:101BE00070E08FE098E30E94F1000FC18091093806
:101BF0008823F9F010920938F301808585FF2BC105
:101C00000DC0F301908595FD09C0E7EAF1E6319733
:101C1000F1F700C000008150A1F700C16FE070E053
:101C20008FE098E30E94F1008FE098E30E946A0041
:101C3000ECC00E94510F8FE098E30E9488008FE073
:101C400098E30E94B200FFE32DE033E0F150204022
:101C50003040E1F700C0000083E1EC89FD8911927A
:101C60008A95E9F7812CAA24A3940F2EF8E8CF2EA9
:101C7000F3E1DF2EE12CF12CF02D0EE122E030E03B
:101C80004FE058E3BE016F5F7F4F8DE098E30E9405
:101C90007307182F8FE098E30E94BA000E94660F26
:101CA0000E94510F87EA91E60197F1F700C000000A
:101CB000112371F18FE098E30E94D2000E94D308B3
:101CC000CE0101960E94450C182F8FE098E30E94E8
:101CD000CA00113049F4E7EDF9EAFF93EF930E944F
:101CE000A5100F900F901CC0111109C042EE59EAC7
:101CF0005F934F930E94A5100F900F9011C0EEEECE
:101D0000F9EAFF93EF930E94A5100F900F9008C07F
:101D10004CEF59EA5F934F930E94A5100F900F90DC
:101D2000BE016F5F7F4F8DE098E30E948303162F03
:101D3000072FF82EE92E8FE098E30E949F0028EEEF
:101D400033E040E050E00E94D60F8FE090E0A0E04A
:101D5000B0E0821B930BA40BB50BBF93AF939F9383
:101D60008F9389898F9388898F938E858F938D85A3
:101D70008F938C858F938B858F938A858F9389859D
:101D80008F9388858F938F818F93EF92FF920F931C
:101D90001F938F851F928F93E9E0FAEAFF93EF93E9
:101DA0000E94A51087E893E10197F1F700C00000B9
:101DB00010920608F30180818260808380818460B4
:101DC00080838FE098E30E949F00CDBFDEBF68391B
:101DD0007A438105910578F48FE098E30E949F0093
:101DE00028EE33E040E050E00E94D60F6FE070E054
:101DF000621B730B02C06FE070E08FE098E30E94FB
:101E0000F1008FE098E30E946A0010920838109267
:101E100009388FE098E30E94E0007BCE0E94510FCA
:101E20006AE08FE098E30E944C018FE098E30E9403
:101E3000D2000E94D3080E94AE0A8FE098E30E946D
:101E4000CA0010920608F30180818260808380813D
:101E500084608083E3CE87EA91E60197F1F700C0C2
:101E600000008DE1CECEE0E0F8E0948195FFFDCF5B
:101E70008093020880E090E00895E0E2F4E0808141
:101E8000846080838081877F808310920102E0E0FC
:101E9000F8E081EA91E0808791878681806C868373
:101EA0000895E0E0F4E080818260808380818B7F10
:101EB000808381E080930102E0E0F8E081EA91E034
:101EC000808791878681806C86830895809104083D
:101ED00088233CF4E0E0F8E0808194819923E4F3E6
:101EE000089580E00895EF92FF920F931F93CF9390
:101EF000DF93182F7B01042FE90150E060E070E0D0
:101F0000C7010E9476100E94660F90E0E0E0F8E0C2
:101F10008481882354F02197A9EFB0E01197F1F75D
:101F200000C000002097A1F718C080818A3069F0B6
:101F30008D3059F021E0290FD701A90FB11D8C93E5
:101F4000021710F490E001C0922F8113E1CFF70146
:101F5000E90FF11D108281E001C080E0DF91CF9197
:101F60001F910F91FF90EF900895E0E1F8E383E374
:101F70009FE0808791871286138682E08383148690
:101F80001586E0932038F09321380895DB018F9374
:101F90009F930E942610BF91AF91A29F800D911D2B
:101FA000A39F900DB29F900D11240895A1E21A2EC7
:101FB000AA1BBB1BFD010DC0AA1FBB1FEE1FFF1FED
:101FC000A217B307E407F50720F0A21BB30BE40B3D
:101FD000F50B661F771F881F991F1A9469F7609584
:101FE0007095809590959B01AC01BD01CF0108953E
:101FF000052E97FB1EF400940E940F1057FD07D08A
:102000000E94D60F07FC03D04EF40C940F1050958D
:102010004095309521953F4F4F4F5F4F08959095D4
:102020008095709561957F4F8F4F9F4F0895A29F28
:10203000B001B39FC001A39F700D811D1124911D9C
:10204000B29F700D811D1124911D08950E941710DB
:10205000A59F900DB49F900DA49F800D911D1124FC
:102060000895FC0188279927E89421912032E9F30B
:10207000293010F02E30C8F32B3241F02D3239F4D4
:10208000689404C00E949D10820F911D21912053DD
:102090002A30C0F31EF4909581959F4F08951F93A9
:1020A000FC0199278827BC01E89411911032E9F3CB
:1020B000193010F01E30C8F31B3251F01D3249F4B4
:1020C000689406C00E948810610F711D811D911DCA
:1020D000119110531A30B0F33EF49095809570959D
:1020E00061957F4F8F4F9F4F1F910895DC0101C075
:1020F0006D9341505040E0F70895FC01819186179F
:1021000021F08823D9F7992708953197CF010895B1
:10211000592F482F372F262F660F771F881F991F9B
:10212000660F771F881F991F620F731F841F951FEB
:10213000660F771F881F991F08957AE0979F902D4B
:10214000879F802D910D11240895A0E0B0E0EBEA67
:10215000F0E10C947813AE014B5F5F4FFA0161918F
:102160007191AF0180912038909121380E94BB106D
:10217000E2E00C949113ABE0B0E0E1ECF0E10C9400
:1021800068136C017B018A01FC011682178283812E
:1021900081FFCCC1CE0101963C01F6019381F7018C
:1021A00093FD859193FF81917F01882309F4BAC142
:1021B000853239F493FD859193FF81917F018532BA
:1021C00029F4B60190E00E94B212E7CF912C212CA5
:1021D000312CFFE1F315D8F08B3279F038F48032EE
:1021E00079F08332A1F4232D20611DC08D3261F07E
:1021F000803369F4232D216016C0832D8260382E30
:10220000E32DE4603E2E2AC0F32DF8601DC037FC9C
:102210002DC020ED280F2A3040F08E32B9F436FC64
:1022200081C1232D2064322E19C036FE06C08AE0FB
:10223000989E200D1124922E11C0EAE02E9E200DB2
:102240001124222EF32DF0623F2E08C08C3621F48B
:10225000832D8068382E02C0883641F4F70193FD43
:10226000859193FF81917F018111B3CF982F9F7D3D
:102270009554933028F40C5F1F4F9FE399830DC052
:10228000833631F0833771F0833509F059C021C0AE
:10229000F801808189830E5F1F4F88248394912CDD
:1022A000530113C02801F2E04F0E511CF801A08029
:1022B000B18036FE03C0692D70E002C06FEF7FEF82
:1022C000C5010E94A7124C018201F32DFF773F2E1A
:1022D00016C0280122E0420E511CF801A080B180F6
:1022E00036FE03C0692D70E002C06FEF7FEFC501BD
:1022F0000E949C124C01F32DF0683F2E820133FCAA
:102300001BC0822D90E088169906B0F4B60180E2D9
:1023100090E00E94B2122A94F4CFF50137FC859127
:1023200037FE81915F01B60190E00E94B212211048
:102330002A9421E0821A91088114910471F7E8C06F
:10234000843611F0893641F5F80137FE07C0608107
:102350007181828193810C5F1F4F08C06081718100
:10236000072E000C880B990B0E5F1F4FF32DFF7685
:102370003F2E97FF09C090958095709561957F4F8E
:102380008F4F9F4FF0683F2E2AE030E0A3010E945C
:10239000EE12882E861845C0853731F4232D2F7E06
:1023A000B22E2AE030E025C0932D997FB92E8F36CA
:1023B000C1F018F4883579F0B5C0803719F0883746
:1023C00021F0B0C0E92FE061BE2EB4FE0DC0FB2DA0
:1023D000F460BF2E09C034FE0AC0292F2660B22E39
:1023E00006C028E030E005C020E130E002C020E176
:1023F00032E0F801B7FE07C060817181828193816C
:102400000C5F1F4F06C06081718180E090E00E5F1D
:102410001F4FA3010E94EE12882E8618FB2DFF7716
:102420003F2E36FE0DC0232D2E7FA22E891458F488
:1024300034FE0BC032FC09C0832D8E7EA82E05C051
:10244000B82CA32C03C0B82C01C0B92CA4FE0FC01B
:10245000FE01E80DF11D8081803321F49A2D997ED3
:10246000A92E09C0A2FE06C0B394B39404C08A2D5D
:10247000867809F0B394A3FC11C0A0FE06C0B21484
:1024800088F4280C922C9B180EC0B21460F4B6018C
:1024900080E290E00E94B212B394F7CFB21418F425
:1024A0002B1802C0982C212CA4FE10C0B60180E38A
:1024B00090E00E94B212A2FE17C0A1FC03C088E700
:1024C00090E002C088E590E0B6010CC08A2D8678C5
:1024D00059F0A1FE02C08BE201C080E2A7FC8DE2B0
:1024E000B60190E00E94B212891438F4B60180E37C
:1024F00090E00E94B2129A94F7CF8A94F301E80D0B
:10250000F11D8081B60190E00E94B2128110F5CFDA
:10251000222009F442CEB60180E290E00E94B2127D
:102520002A94F6CFF6018681978102C08FEF9FEF44
:102530002B96E2E10C948113FC01059061507040F0
:102540000110D8F7809590958E0F9F1F0895FC017C
:102550006150704001900110D8F7809590958E0FD2
:102560009F1F08950F931F93CF93DF93FB01238148
:1025700021FD03C08FEF9FEF2CC022FF16C04681C4
:102580005781248135814217530744F4A081B181DA
:102590009D012F5F3F4F208331838C9326813781AC
:1025A0002F5F3F4F2683378314C08B01EC01FB0163
:1025B0000084F185E02D0995892BE1F6D801169666
:1025C0008D919C911797019616968D939C931797D2
:1025D000CE01DF91CF911F910F910895FA01AA27A3
:1025E000283051F1203181F1E8946F936E7F6E5F56
:1025F0007F4F8F4F9F4FAF4FB1E03ED0B4E03CD004
:10260000670F781F891F9A1FA11D680F791F8A1FE6
:10261000911DA11D6A0F711D811D911DA11D20D04D
:1026200009F468943F912AE0269F11243019305D07
:102630003193DEF6CF010895462F4770405D4193F8
:10264000B3E00FD0C9F7F6CF462F4F70405D4A3345
:1026500018F0495D31FD4052419302D0A9F7EACF0D
:10266000B4E0A6959795879577956795BA95C9F73C
:1026700000976105710508959B01AC010A2E06942F
:102680005795479537952795BA95C9F7620F731FE8
:10269000841F951FA01D089503D080819927089558
:1026A000FC01E050FC4E0895262FAF93BF93E0E06D
:1026B000F0E1328131FDFDCFDC01A050BC4E2C9306
:1026C0002DE924BF23E020830196BF91AF910895A7
:1026D0002F923F924F925F926F927F928F929F9232
:1026E000AF92BF92CF92DF92EF92FF920F931F9320
:1026F000CF93DF93CDB7DEB7CA1BDB0BCDBFDEBFF9
:1027000009942A88398848885F846E847D848C8403
:102710009B84AA84B984C884DF80EE80FD800C810C
:102720001B81AA81B981CE0FD11DCDBFDEBFED01C6
:062730000895F894FFCFAC
:10273600575249544520256C750A0D00544F2025E3
:10274600640A0D00256C753A202573202825642916
:102756000A0D0024504D544B3331342C302C312C7F
:10276600302C302C302C302C302C302C302C302C83
:10277600302C302C302C302C302C302C302C302C73
:10278600302A32390D0A0024504D544B3331342C43
:10279600302C302C302C312C302C302C302C302C52
:1027A600302C302C302C302C302C302C302C302C43
:1027B600302C302C302A32390D0A00636F756E7456
:1027C6002C74696D657374616D702C6C61742C6CFE
:1027D6006F6E0A0D00256C752C256C752C256C7595
:1027E6002C256C750A0D002A2A2A5354415254206E
:1027F6004D454D4F52592A2A2A0A0D00454D50542F
:10280600590A0D002A2A2A454E44204D454D4F525D
:10281600592A2A2A0A0D002D2D2D2D2D2D2D2D2D2F
:102826002D2D2D2D2D2D2D2D2D2D0A0D002D2D2D42
:102836005449434B2D5441472D56302E312D2D2DC5
:102846000A0D0053657474696E67733A2073687570
:1028560074646F776E20766F6C746167653A2025B5
:1028660064206D562C20475053206672657175653D
:102876006E63793A202564206D696E0A0D00283052
:10288600292052656164206D656D6F72792028611B
:102896006761696E290A0D00283129205265736522
:1028A60074206D656D6F72790A0D002832292053E8
:1028B60065742073687574646F776E20766F6C74B8
:1028C6006167650A0D002833292053657420475037
:1028D60053206672657175656E63790A0D0028343A
:1028E6002920457869740A0D0054696D656F757401
:1028F6000A0D00526573657474696E673A0A0D00B5
:10290600456E746572206D5620282564202D20257D
:1029160064293A0A0D00496E76616C696420766115
:102926006C75653A2025640A0D004552524F5220B7
:1029360030310A0D00534156452053554343455304
:10294600533A2025640A0D00456E7465722047507F
:1029560053206672657175656E637920696E206DA8
:10296600696E7574657320282564202D20256429D9
:102976003A0A0D004349414F2120474F494E47200F
:10298600544F20534C4545502E2E0A0D004F6C6473
:102996003A2041646472657373503A20256C752C35
:1029A6002074746653756D3A20256C750A0D004EB9
:1029B60065773A2041646472657373503A20256CDA
:1029C600752C2074746653756D3A20256C750A0D46
:1029D6000053743A2066756C6C0A0D0053743A20E5
:1029E6006572726F720A0D0053743A2073756363D1
:1029F6006573730A0D0053743A206E6F206669780A
:102A06000A0D004649582025643A20256C752C206D
:102A1600256C752C20256C752C2054544620256475
:102A26002028736C6565703A20256C75290A0D009F
:042A360059A7B80BD9
:00000001FF
