S017000054696E79466F78536F6674776172652E73726563F1
S11300000C9453000C9470000C9470000C944807EA
S11300100C9470000C9470000C9470000C9470009C
S11300200C9470000C9470000C9470000C9470008C
S11300300C9470000C9470000C9470000C9470007C
S11300400C9470000C9470000C9470000C9470006C
S11300500C9470000C9470000C9470000C9470005C
S11300600C9457070C9470000C9470000C9470005E
S11300700C9470000C947000084AD73B3BCE016E80
S113008084BCBFFDC12F3D6C74319ABD56833DDAEB
S11300903D00C77F11BED9E4BB4C3E916BAAAABEFA
S11300A0000000803F0011241FBECFEFCDBFDFE36F
S11300B0DEBF18E3A0E0B8E3EFE5F7E202C0059085
S11300C00D92A230B107D9F72CE3A2E0B8E301C046
S11300D01D92AC38B207E1F70E94FA0B0C94761328
S11300E00C940000CF93DF931F92CDB7DEB7198233
S11300F0AE014F5F5F4F68E08CE40E94020791E01D
S113010084FF90E0892F0F90DF91CF9108958F9213
S11301109F92AF92BF92CF92DF92EF92FF920F9392
S11301201F93CF93DF93CDB7DEB72697CDBFDEBF46
S11301305C016B017A018E010F5F1F4F86E0F801AD
S113014011928A95E9F78CE40E94AA0682E00E9443
S1130150DB068CE40E9498064E01F6E08F0E911C9B
S113016081E00E94BB06F80181938F01E815F9052F
S1130170B9F780E00E94BB06182F0E94F9068A8115
S113018090E0982F88272981822BF5018083918321
S11301908C8190E0982F88272B81822BF601808315
S11301A09183812F90E0982F88272D81822BF7014E
S11301B0808391832696CDBFDEBFDF91CF911F91BF
S11301C00F91FF90EF90DF90CF90BF90AF909F90F2
S11301D08F900895CF938CE40E949806C82F8111C4
S11301E003C00E94F90602C00E94F9068C2FCF9129
S11301F0089541E060E18CE40E942C0740E464E24D
S11302008CE40E942C0783EF91E00197F1F700C082
S1130210000040E46DE08CE40E942C0742E46FE0AF
S11302208CE40E942C0741E060E28CE40E942C07DD
S113023040E861E28CE40E942C0740E068E28CE430
S11302400E942C0740E06AE18CE40E942C0744E2FF
S113025065E18CE40E942C0747E061E18CE40E9494
S11302602C074FE566E18CE40E942C0745E060E131
S11302708CE40E942C0789EF90E00197F1F700C00D
S113028000000895FF920F931F93CF93DF93D82F0D
S1130290C92F86E70E94AA068EE10E94DB060E940F
S11302A0F90681EE94E00197F1F700C000000D2FEC
S11302B01C2FD0EA86E70E94AA068D2F0E94DB0637
S11302C00E94F90686E70E94980681E00E94BB0618
S11302D0F82E80E00E94BB06C82F0E94F9068C2FDE
S11302E090E09F29F801819391938F01DE5FDE3ABC
S11302F009F7DF91CF911F910F91FF900895FF921D
S11303000F931F93CF93DF93182FEB0186E70E947F
S1130310AA06812F0E94DB060E94F90683E991E177
S11303200197F1F700C0000086E70E94AA0680E06A
S11303300E94DB060E94F90686E70E94980681E087
S11303400E94BB06F82E81E00E94BB06182F80E0B5
S11303500E94BB06082F0E94F906812F90E0A0E0BE
S1130360B0E0BA2FA92F982F8827AF29802B888334
S11303709983AA83BB83DF91CF911F910F91FF9043
S113038008952F923F924F925F926F927F928F9235
S11303909F92AF92BF92CF92DF92EF92FF920F9310
S11303A01F93CF93DF93CDB7DEB7C054D109CDBF30
S11303B0DEBF8AA39BA369AB7AAB1A01DC011D9251
S11303C01D921D921C921397FB01108211821282BE
S11303D01382BE016F5F7F4F8AE50E947F01BE01D9
S11303E06B5F7F4F8AE40E947F01D1011A968D9141
S11303F09C911B97A0E0B0E0BA2FA92F982F8827D3
S113040049815A816B817C812A013B01481A590A2E
S11304106A0A7B0A83017201110FEE08FE2C870120
S1130420E986FA860B871C87D1011C964D915C9155
S11304301D97A42CB52CC62CD72CE984FE2C0E2D8C
S11304401E2D242F352F40E050E060E070E080E066
S113045090E00E948E1207E10E940013822E932ED8
S1130460A42EB52ED501C4018053984FAF4FBF4F72
S11304708E8F9F8FA8A3B9A3803D9740A105B10596
S11304800CF064C1A42CB52CC62CD72CE12EF12E73
S11304900E2D242D352D462D572D612F712F812F93
S11304A0912F0E948E12A22EB32EC42ED52EE62E8C
S11304B0F72EE82F192F01E00E94E7120E2F0E9459
S11304C01E1301E20E9400132D873E874F87588B2D
S11304D0698B7A8B8B8B9C8BEE8CFF8C08A119A17A
S11304E0110FEE08FE2C8701ED8AFE8A0F8B188F00
S11304F02E8D3F8D48A159A16D89762F862F962F79
S1130500205D374041095109610971098109910947
S1130510298F832E942E5A8F6B8F7C8F8D8F9CA363
S113052002E00E94E712A22EB32EC42ED52EE62E90
S1130530F72EE82F192F04E00E94E7120E2F0E94D5
S11305403313A98CB82CC92CDA8CEB8CFC8C0D8D54
S11305501CA10E941E130E948E12F22E032F142F30
S11305605EA36FA378A789A79AA7A0E00E943C1373
S11305705CF4AFE00E942713F22E032F142F5EA326
S11305806FA378A789A79AA72F2D302F412F5EA19B
S11305906FA178A589A59AA504E00E9400132DA354
S11305A03BA74CA75DA76EA77FA788AB98AF2EA3E8
S11305B03FA348A759A76AA77BAB8CAB9DAB298DFA
S11305C0382D492D5A8D6B8D7C8D8D8D9CA102E02B
S11305D00E94E712A22EB32EC42ED52EE62EF72E9D
S11305E0E82F192F03E00E94E7120E2F0E94331305
S11305F0A98CB82CC92CDA8CEB8CFC8C0D8D1CA12D
S11306000E941E130E948E12F22E032F142FB52F58
S1130610F62F798F8A8F9B8FA0E00E943C135CF4A5
S1130620AFE00E942713F22E032F142FB52FF62FBD
S1130630798F8A8F9B8F2F2D302F412F5B2F6F2F18
S1130640798D8A8D9B8D04E00E94001329AF3AAF07
S11306504BAF5CAF6DAF7EAF8FAF21969FAF21974D
S1130660298F3A8F4B8F5C8F6D8F7CA38EAB9FABA2
S11306708E8D9F8DA8A1B9A184329A4FAF4FBF4FE1
S11306800CF09FC02E8D3F8D48A159A16D89762F06
S1130690862F962F24523A4F4F4F5F4F6F4F7F4F05
S11306A08F4F9F4F2D8B398F4A8F5B8F6C8F872E87
S11306B0982E9D8F0E94E712AD88B98CCA8CDB8C72
S11306C0EC8CF82C092D1D8D0E941E130E948E1295
S11306D0ADA0BBA4CCA4DDA4EEA4FFA408A918ADCE
S11306E00E941E132EA33FA348A759A76AA77BAB5A
S11306F08CAB9DAB2D89398D4A8D5B8D6C8D782D9E
S1130700892D9D8D03E00E94E712AD88B98CCA8CB7
S1130710DB8CEC8CF82C092D1D8D0E941E130E947D
S11307208E12A9ACBAACCBACDCACEDACFEAC0FAD6C
S113073021961FAD21970E941E13298F3A8F4B8F4C
S11307405C8F6D8F7CA38EAB9FAB3BC0A42CB52C70
S1130750C62CD72CE984FE2C0E2D1E2D242D352DD0
S1130760462D572D602F702F802F9E2D0E948E12A4
S1130770A22EB32EC42ED52EE62EF72EE82F192F37
S113078002E00E94E7120E2F0E941E1306E20E944E
S113079000132D873E874F87588B698B7A8B8B8B01
S11307A09C8B198E1A8E1B8E1C8E1D8E1CA21EAA4B
S11307B01FAA1EA21FA218A619A61AA61BAA1CAA23
S11307C01DAAD10118964D915C911997A42CB52CB2
S11307D0C62CD72CE984FE2C0E2D1E2D242F352F4C
S11307E040E050E060E070E080E090E00E948E1213
S11307F006E00E9400132D8B3DA3842E952EB62F68
S1130800A72F8BA79CA7F101A480B5802A2D3B2D8F
S113081040E050E060E070E080E090E001E10E94A0
S1130820E712A22EB32EC42ED52EE62EF72E082FB5
S1130830192F2D893DA1482D592D6B2F7A2F8BA56A
S11308409CA50E941E132D8B3DA34BA75CA76DA7EF
S11308507EA78FA798AB46815781A42CB52CC62CB4
S1130860D72CE984FE2C0E2D1E2D242F352F40E08D
S113087050E060E070E080E090E00E948E1207E0BB
S11308800E940013622E732E442E552EB62FA72FCE
S1130890898798AFF101A280B3804501282D392DB5
S11308A040E050E060E070E080E090E000E10E9411
S11308B0E712A22EB32EC42ED52EE62EF72E082F25
S11308C0192F262D372D442D552D6B2F7A2F8985E1
S11308D098AD0E941E13CD80DE80EF80F88416014F
S11308E02701A98CBA8CCB8CDC8CED8CFCA00EA9D6
S11308F01FA90E943313A22EB32EC42ED52EE62E8A
S1130900F72E082F192F222D332D442D552D60E05D
S113091070E080E090E00E948E1205E10E940013D6
S1130920222E332E442E552EB62FA72FF82FE92F23
S11309302D893DA14BA55CA56DA57EA58FA598A984
S1130940AEA0BFA0C8A4D9A4EAA4FBA80CA91DA961
S11309500E943313A22EB32EC42ED52EE62EF72ECC
S1130960082F192F222D332D442D552D6B2F7A2F1F
S11309708F2F9E2F0E9433130FE00E9400138E8D41
S11309809F8DA8A1B9A1ED84FE840F8518898E19C5
S11309909F09A00BB10BE9A9FAA980839183A283D3
S11309A0B383AAA1BBA12C9311963C9311971296E1
S11309B04C93129713965C93C05CDF4FCDBFDEBFA0
S11309C0DF91CF911F910F91FF90EF90DF90CF9027
S11309D0BF90AF909F908F907F906F905F904F905B
S11309E03F902F90089580EF96EA0E948D0E2FE39A
S11309F08DE093E0215080409040E1F700C000007A
S1130A000895CF93DF93CDB7DEB7C45BD109CDBFD3
S1130A10DEBF9C0144EBBE016F5F7F4F8AE00E9402
S1130A20360E882381F06FE470E0CE0101960E94B7
S1130A304F13FC01892B31F081E090819F3419F030
S1130A4080E001C080E0CC54DF4FCDBFDEBFDF913A
S1130A50CF91089582EF96EA0E948D0E88EE93E07E
S1130A600E940105089585EF96EA0E948D0E80ED9F
S1130A7097E00E9401050895EF92FF920F931F9350
S1130A80CF936D3040F5062F7C018CEF96EA0E94DF
S1130A90780E10E0101611068CF4C0E0F701EC0F8C
S1130AA0F11DC7FDFA9580810E94C50ECF5F2C2FE2
S1130AB00C2E000C330B2017310784F380EF96EAD9
S1130AC00E94780E84E197EA0E94780E80EE9EE2FE
S1130AD00E94010501C080E0CF911F910F91FF900A
S1130AE0EF9008958EEF8093000487E380932004B1
S1130AF08BE0809340040895F894E0E0FAE01286D5
S1130B001082789408950E947C05E0E2F4E0108A53
S1130B10118AE0E5F0E08081897F826080838081B2
S1130B2081608083889508959C01F894E0E4F1E065
S1130B3091819111FDCF1092480110924901E0E496
S1130B40F1E091819111FDCFC901880F991F880FA0
S1130B50991FE0E4F1E08287938781E0878391EC39
S1130B609083828378940895E0E0F6E081E08083C6
S1130B7011828CE0828380E1808792E3948782876C
S1130B80A0E0B1E191962C91919790964C91828539
S1130B9081608287858180FFFDCFE0E0F6E0808977
S1130BA09189A289B389B695A79597958795B695A6
S1130BB0A79597958795022E000C330BBC01621BF9
S1130BC0730B9B01A42FB0E00E947812DC01CB01CF
S1130BD080589F4FAF4FBF4F1082892F9A2FAB2F52
S1130BE0BB27815191400895E0E0F6E081E08083E5
S1130BF088E0828384E6808783E3848780E1828738
S1130C00828581608287858180FFFDCF20911006D7
S1130C1030911106409112065091130621153105A9
S1130C204105510521F421E030E040E050E010920C
S1130C30000660E070E080E490E00E942F12C90199
S1130C40089528ED816090E024BF8093610080E0E6
S1130C5024BF80936000E0E6F0E0838180FDFDCF57
S1130C60089584E080930504089584E08093060445
S1130C7008958823A9F0E0E0F4E094E09583AFE4DC
S1130C80B3EC1197F1F700C000009683813041F076
S1130C90AFE4B3EC1197F1F700C00000815071F795
S1130CA0089580E180932504089580E180932604CB
S1130CB0089582E0809345048DEE92E00197F1F768
S1130CC000C00000089582E0809346040895E0EA9D
S1130CD0F8E0168283E0838384818860848385813D
S1130CE0816085838581806C8583089588E893E19C
S1130CF0E0EAF8E02581222344F023E02A95F1F785
S1130D0000000197B9F780E0089581E0089588E82C
S1130D1093E1E0EAF8E0258126FD08C023E02A9566
S1130D20F1F700000197B9F780E0089581E0089594
S1130D309091A5089370933059F0E0EAF8E094811B
S1130D409B7F9483880F816087830E947606089531
S1130D5080E008959091A5089370933051F0E0EAF3
S1130D60F8E094819B7F9483880F87830E94870691
S1130D70089580E00895CF939091A50893709230E0
S1130D80A9F4C82F0E947606882391F08091A808C0
S1130D90CC2331F0E0EAF8E094819B7F948309C08E
S1130DA0E0EAF8E094819460948303C080E001C099
S1130DB080E0CF9108959091A50893709230A9F4A2
S1130DC08093A80828E833E1E0EAF8E0858195817A
S1130DD090718074892B59F483E08A95F1F70000AF
S1130DE02150310999F780E0089580E0089581E069
S1130DF00895E0EAF8E084818460848384818360D8
S1130E00848308950F931F93CF93DF93C82FD62F16
S1130E108A010E94AA06811103C081E0F80180833F
S1130E208D2F0E94DB06811103C081E0F8018083CD
S1130E308C2F0E949806811103C081E0F801808301
S1130E4080E00E94BB06C82F0E94F9068C2FDF9118
S1130E50CF911F910F9108951F93CF93DF93D62FB6
S1130E60142F0E94AA06C82F882369F08D2F0E9490
S1130E70DB06C82F882339F0812F0E94DB06C82F98
S1130E8081110E94F9068C2FDF91CF911F91089553
S1130E901F920F920FB60F9211248F9381E08093CB
S1130EA043018F910F900FBE0F901F9018951F92C2
S1130EB00F920FB60F9211248F93EF93FF93E0E4F8
S1130EC0F4E0818584608187FF91EF918F910F9089
S1130ED00FBE0F901F9018950E9494050E948305E1
S1130EE0109240010895CF93DF939C01F894E0E4BD
S1130EF0F1E091819111FDCF1092480110924901C6
S1130F00E0E4F1E091819111FDCFC0E4D1E02A87C2
S1130F103B8781E08F8391E898838A8378940E9449
S1130F2083051882DF91CF910895CF93DF938EE1EB
S1130F3090E00E946C07C0917B3CD0917C3C0E9465
S1130F40F405C29680937B3C90937C3CC817D907E8
S1130F5058F48C1B9D0B8F3F910519F010F08FEF07
S1130F6090E08093133802C010921338DF91CF9130
S1130F7008954F925F926F927F928F929F92AF9259
S1130F80BF92CF92DF92EF92FF92CF93DF93EC0167
S1130F907A01072E000C880B990B0E947B1024E227
S1130FA037E94FE75BE30E945F114B015C01B70136
S1130FB0FF0C880B990B0E947B1024E237E94FE762
S1130FC05BE30E945F116B017C01A5019401C501E3
S1130FD0B4010E945F114B015C01A7019601C70196
S1130FE0B6010E945F119B01AC01C501B4010E94CE
S1130FF0F90E0E94D2116B017C01BE01DD0F880B3A
S1131000990B0E947B1024E237E94FE75BE30E94CF
S11310105F119058A70196010E94780F23E333E3F0
S113102045E652E40E945F112AE43FE944E35FE3AA
S11310300E945F1120E030E04EEF52E40E94F90E6E
S11310406B017C0120E030E0A9010E94D70F8823C6
S11310509CF020E030E04EE753E4C701B6010E9463
S11310605211181664F40F2EC12CD12CFEE7EF2E6A
S1131070F3E4FF2EF02D03C0C12CD12C7601C7015F
S1131080B6010E944A10862FDF91CF91FF90EF9016
S1131090DF90CF90BF90AF909F908F907F906F9094
S11310A05F904F9008958F929F92AF92BF92CF928C
S11310B0DF92EF92FF927C01072E000C880B990BB4
S11310C00E947B1024E237E94FE75BE30E945F1143
S11310D04B015C01B701FF0C880B990B0E947B103C
S11310E024E237E94FE75BE30E945F11A501940115
S11310F00E94780F23E333E345E652E40E945F1134
S11311002AE43FE944E35FE30E945F1120E030E01A
S11311104EEF52E40E94F90E6B017C0120E030E0B6
S1131120A9010E94D70F88239CF020E030E04EE70D
S113113053E4C701B6010E945211181664F40F2E2D
S1131140C12CD12CFEE7EF2EF3E4FF2EF02D03C0CB
S1131150C12CD12C7601C701B6010E944A10862FFA
S1131160FF90EF90DF90CF90BF90AF909F908F90C3
S113117008952F923F924F925F926F927F928F9237
S11311809F92AF92BF92CF92DF92EF92FF920F9312
S11311901F93CF93DF93CDB7DEB7A097CDBFDEBF4C
S11311A00E94EA009FEF90930138909300381092C8
S11311B00238811104C086E0809314382CC2E0E424
S11311C0F4E080818B7F808389E0828B0E94F90028
S11311D082E00E942106C12CD12C7601412C512C95
S11311E03201812C912C5401198280E991E00E94F2
S11311F0730701C089830E9472008111F6CF19819F
S1131200012F10E0000F111F0A831B83015E174C8E
S113121018010A811B810D56164C2A813B81295FD6
S1131220344C2A833B83A101B801C9010E94870081
S1131230EA81FB8180819181092E000CAA0BBB0BF2
S1131240880E991EAA1EBB1EF80180819181092E69
S1131250000CAA0BBB0B480E591E6A1E7B1EF10123
S113126080819181092E000CAA0BBB0BC80ED91EDC
S1131270EA1EFB1E89818F5F8A3B08F4BBCF88235B
S113128009F4ADC1082F10E020E030E00A831B838D
S11312902C833D83C501B401A90198010E94511218
S11312A028873987C301B2012A813B814C815D8142
S11312B00E9451122A873B87C701B6012A813B81CC
S11312C04C815D810E9451122C873D871091023818
S11312D01A8300910038098B10910138188B098109
S11312E0202E312C1FEF211A310A8101000F111F0A
S11312F00E831F83612C712C1A8A212C312C21011D
S11313001B8A1C8A1D8A1E8A1E861F861982F30167
S1131310E95FF44CC080D180D60108851985A01BF3
S1131320B10BA083B183F301ED56F64CE080F1805C
S1131330A7010A851B85401B510B40835183F30190
S1131340E15EF74C0081118198016C857D85261B37
S1131350370B2F8B388F208331839D010E947012AD
S11313604B015C019A01DA010E947012860E971EED
S1131370A81EB91E2F89388DD9010E947012860EBD
S1131380971EA81EB91EC501B4010E947B100E94BD
S1131390D2110E944A10260E371E481E591E64316F
S11313A071058105910510F0E1E0EA836115F2E031
S11313B07F078105910510F022E02A83611534E04E
S11313C073078105910510F043E04A836D30710580
S11313D08105910558F4B801C7010E945308898B0F
S11313E0A801B701C6010E94B907888B0F89188D1F
S11313F00E301105B4F11981112309F4FFC01F3F08
S113140009F50A890F3F11F00F5F0A8B8E859F85BE
S113141099231CF4919581959109092E000CAA0B2E
S1131420BB0B2B893C894D895E89280F391F4A1FC4
S11314305B1F2B8B3C8B4D8B5E8B0F89188D0E871E
S11314401F87E0C01981113009F04BC00E851F853C
S11314502F89388D021713070CF0D4C02E873F87CD
S1131460D1C00F89188D033F1F4FDCF5098100237C
S113147091F10F3F51F40E851F852F89388D201768
S113148031077CF52E873F872CC00981013049F54F
S11314901A891F3F11F01F5F1A8B8E859F85992330
S11314A01CF4919581959109092E000CAA0BBB0B94
S11314B02B893C894D895E89280F391F4A1F5B1F80
S11314C02B8B3C8B4D8B5E8B0F89188D0E871F8762
S11314D01FEF198306C00F89188D0E871F871FEF12
S11314E0198322E0620E711C0E811F8106151705F7
S11314F009F00DCF20920F383092103840921138F5
S1131500509212381A8110930238098900930038D6
S11315101889109301380A8900930438109203380B
S1131520209104382223F9F030E040E050E06B8948
S11315307C898D899E890E942F12DA01C901B69592
S1131540A79597958795B695A795979587958F3F76
S11315509105A105B10529F020F08FEF90E0A0E0FE
S1131560B0E0809303381092520486E00E94210672
S113157080910F3890911038A0911138B0911238A1
S11315808C019D012B8F3C8F282F312F4B8D5C8D2F
S113159060E070E080E090E0A0901538B0901638DC
S11315A0C0901738D0901838E0901938F0901A3855
S11315B000911B3810911C380E941E13209315387B
S11315C0309316384093173850931838609319386D
S11315D070931A3880931B3890931C381CC0109257
S11315E00F3810921038109211381092123810924D
S11315F004381B8A1C8A1D8A1E8A90CF0F89188D75
S11316000E871F870F89188D033F1F4F0CF440CF9F
S113161001E0098366CFA096CDBFDEBFDF91CF91F5
S11316201F910F91FF90EF90DF90CF90BF90AF90FC
S11316309F908F907F906F905F904F903F902F90EE
S11316400895EF92FF920F931F93CF93DF93CDB73B
S1131650DEB7C054D109CDBFDEBF80E28E010F5F7B
S11316601F4FD801E82F1D92EA95E9F7FE01B196C4
S1131670DF011D928A95E9F783E097EA0E948D0EB7
S113168028EB3BE040E2B8018AE00E94360E882352
S113169009F4A5C0E7EAF1E63197F1F700C00000CC
S11316A08BE097EA0E948D0E28EB3BE040E2BE01FE
S11316B06F5D7F4F8AE00E94360E882309F48FC045
S11316C00E94090E83E197EA0E94780E81E297EA6C
S11316D00E948D0E86E197EA0E94780EC8010E944E
S11316E08D0E8CE197EA0E94780ECE0181960E94BD
S11316F08D0E8DE297EA0E94780E60911D387091EC
S11317001E3880E090E00E94980E83E197EA0E94E0
S1131710780E0EE71CE30F2EFCE8EF2EFCE3FF2E01
S1131720F02D09C080917B3C90917C3C85359B4099
S113173008F44BC010C0D8016D917D918D0180E0FB
S113174090E00E94980E8AE397EA0E94780E0E15A4
S11317501F0589F7E7CFBFE7EAE1F6E0B150E040C3
S1131760F040E1F700C000008CE397EA0E94780E95
S113177081E297EA0E948D0E86E197EA0E94780E34
S1131780CE0101960E948D0E8CE197EA0E94780E9C
S1131790CE0181960E948D0E8DE297EA0E94780E0A
S11317A060911D3870911E3880E090E00E94980E80
S11317B083E197EA0E94780E0E94F40580937B3CB3
S11317C090937C3C85359B4030F687EA91E60197FF
S11317D0F1F700C000000E94ED0D0E942E0EC05CC7
S11317E0DF4FCDBFDEBFDF91CF911F910F91FF90EF
S11317F0EF900895CF93DF93CDB7DEB72C97CDBF8D
S1131800DEBF6894EE24E6F8FF24F3940F2EFCE088
S11318109F2EF02DAE014F5F5F4F1A010F2EF5E0A2
S11318208F2EF02D44244A94542C612C712C0F2EAD
S1131830FDE1AF2EF8E3BF2EF02DDD24D39402E0BA
S11318406894CC24C2F8D7011C9280917D3C81110C
S113185003C086E00E9421060E94F4059C01809347
S11318607B3C90937C3C90917D3C91118FC00E9475
S113187072050E94ED0D0E9451061092143881E009
S113188090E00E946C0780E090E00E945A13182FA9
S113189081E090E00E945A13212F30E0322F22275A
S11318A0F901E82BCF018F3FFFEF9F0731F001963D
S11318B080931D3890931E3804C010921D381092E6
S11318C01E3860911E3880E090E00E946213D501BA
S11318D06C9181E090E00E9462130E9467060E946E
S11318E059068EE79CE30E9442010E94EA0081119E
S11318F002C0C09214380E9463060E945506E7EAAB
S1131900F1E63197F1F700C000000E94F3040E9451
S11319102A05811102C0D0921438FFE926E841E07B
S1131920F15020404040E1F700C000000E94210B2C
S11319305FE986E891E0515080409040E1F700C0B3
S113194000000E9451060E943305811104C00093D7
S11319501438802F04C080911438882341F08F5F9D
S11319600E9439068EE190E00E94940533C10E94E2
S1131970310681E090E00E946C070E943506D09207
S11319807D3C8CE390E00E94940524C1913009F0E1
S113199021C12832AAE03A0708F410C1F101292D27
S11319A011922A95E9F70E9495070E9467060E9402
S11319B059060E94B9084EE75CE367E078E38BE0E0
S11319C098E30E94C10180910B3890910C38A0914A
S11319D00D38B0910E388C549A49A109B1098093FD
S11319E00B3890930C38A0930D38B0930E38BB236A
S11319F04CF410920B3810920C3810920D3810924F
S1131A000E380CC00097A140B10544F040920B3849
S1131A1050920C3860920D3870920E3880910738CD
S1131A2090910838A0910938B0910A388056904FA7
S1131A30AF4FBF4F8093073890930838A09309386D
S1131A40B0930A38BB234CF410920738109208382C
S1131A501092093810920A3811C081159044A105DA
S1131A60B10564F08FEF9FE3A0E0B0E08093073806
S1131A7090930838A0930938B0930A3880910238BB
S1131A8090E0A0E0B0E0072E7EE0880F991FAA1F27
S1131A90BB1F7A95D1F7702DAA27BB274091073831
S1131AA0509108386091093870910A38842B952B2D
S1131AB0A62BB72B8093073890930838A093093846
S1131AC0B0930A380E9463060E94B40588968093F6
S1131AD005389093063899232CF410920538109207
S1131AE0063809C08038910534F0AFE7B0E0A09320
S1131AF00538B093063880911438882349F08091D2
S1131B00053890910638806880930538909306389C
S1131B1080910F3890911038A0911138B0911238FB
S1131B200097A140B10540F040920F385092103810
S1131B30609211387092123880910F389091103859
S1131B4099838A83809104388B83809103388C83B2
S1131B50809101388D83809100388E8380910B3879
S1131B6090910C389F83888780910738909108382A
S1131B7099878A87A5E0B8E38C918B878091133885
S1131B808C870E945506E7EAF1E63197F1F700C029
S1131B9000000E943106692DC1010E943C0581119B
S1131BA002C0809214380E9451060E9433050E949C
S1131BB035068CE390E00E9494050CC02839384027
S1131BC028F488E592E00E94940504C08CE390E038
S1131BD00E9494050E94830536CE1092E205A0E08F
S1131BE0B8E016968C911697806C16968C9316977F
S1131BF0E0E2F4E084E085838081846080838081F6
S1131C00877F808381EA91E018968D939C9319973E
S1131C10089581E08093E205A0E0B8E080E41696A0
S1131C208C931697E0E0F4E0118A82E0858380814A
S1131C308260808381EA91E018968D939C93199732
S1131C4008958091040888233CF4E0E0F8E0808162
S1131C5094819923E4F3089580E00895E0E0F4E0AA
S1131C6080818D7F808384E0818B0895EF92FF9241
S1131C700F931F93CF93DF93182F7B01042FE90158
S1131C8050E060E070E0C7010E9448130E94210EFA
S1131C9090E0E0E0F8E08481882354F02197A9EFF4
S1131CA0B0E01197F1F700C000002097A1F718C029
S1131CB080818A3069F08D3059F021E0290FD701F5
S1131CC0A90FB11D8C93201710F090E001C0922F42
S1131CD08113E1CFF701E90FF11D108281E001C00A
S1131CE080E0DF91CF911F910F91FF90EF900895C5
S1131CF0FC012081222381F0DC011196E0E0F8E070
S1131D00948195FFFDCF22832D912111F9CFE0E03D
S1131D10F8E0848185FFFDCF08950E94780E80EF5E
S1131D2096EA0E94780E84E197EA0E94780E08955C
S1131D30CF92DF92EF92FF926B017C018AE0C8168A
S1131D40D104E104F10460F0C701B6012AE030E0F7
S1131D5040E050E00E942F12CA01B9010E94980E7F
S1131D60C701B6012AE030E040E050E00E942F12A3
S1131D70E0E0F8E0848185FFFDCF605D60930208B8
S1131D80FF90EF90DF90CF900895CF93DF93CDB77E
S1131D90DEB76497CDBFDEBF91E1EEE4F7EADE0182
S1131DA0119601900D929A95E1F7E82FF0E0F595E0
S1131DB0E795F595E795F595E795F595E79521E090
S1131DC030E02C0F3D1FE20FF31F90819A8B8F7030
S1131DD0F901E80FF11D80818B8B1C8ACE0142969C
S1131DE00E94780E6496CDBFDEBFDF91CF91089537
S1131DF05058BB27AA270E94100F0C9418110E9458
S1131E000A1138F00E94111120F039F49F3F19F49F
S1131E1026F40C94E0100EF4E095E7FB0C94DA1031
S1131E20E92F0E94291158F3BA1762077307840730
S1131E30950720F079F4A6F50C944B110EF4E09577
S1131E400B2EBA2FA02D0B01B90190010C01CA0170
S1131E50A0011124FF27591B99F0593F50F4503E1B
S1131E6068F11A16F040A22F232F342F4427585F0D
S1131E70F3CF469537952795A795F0405395C9F725
S1131E807EF41F16BA0B620B730B840BBAF09150DD
S1131E90A1F0FF0FBB1F661F771F881FC2F70EC07C
S1131EA0BA0F621F731F841F48F48795779567954F
S1131EB0B795F7959E3F08F0B0CF9395880F08F03B
S1131EC09927EE0F9795879508950E940A1160F05F
S1131ED080E891E009F49EEF0E94111128F040E897
S1131EE051E071F45EEF0CC00C94E0100C944B11B3
S1131EF0E92FE0780E94291140F3092E052AB1F355
S1131F00261737074807590738F00E2E07F8E0253B
S1131F1069F0E025E0640AC0EF6307F8009407FA6B
S1131F20DB01B9019D01DC01CA01AD01EF930E94FF
S1131F30EF0F0E9418110E94A80F5F91552339F0EA
S1131F402BED3FE049E450FD49EC0C94F90E089563
S1131F50DF93DD27B92FBF7740E85FE31616170636
S1131F6048075B0718F4D92F0E9457119F938F934A
S1131F707F936F930E941212E8E7F0E00E94E3104F
S1131F800E9418112F913F914F915F910E947211FD
S1131F90DD2351F09058A2EA2AED3FE049EC5FE3DB
S1131FA0D0785D270E94100FDF910C9418110E94C5
S1131FB0B61008F481E008950E94111158F00E94AF
S1131FC00A1140F029F45F3F29F00C94DA10511102
S1131FD00C944C110C94E0100E94291168F399237D
S1131FE0B1F3552391F3951B550BBB27AA27621711
S1131FF07307840738F09F5F5F4F220F331F441F1E
S1132000AA1FA9F335D00E2E3AF0E0E832D0915051
S11320105040E695001CCAF72BD0FE2F29D0660F3E
S1132020771F881FBB1F261737074807AB07B0E881
S113203009F0BB0B802DBF01FF2793585F4F3AF087
S11320409E3F510578F00C94DA100C944C115F3FCC
S1132050E4F3983ED4F3869577956795B795F7950D
S11320609F5FC9F7880F911D9695879597F90895F5
S1132070E1E0660F771F881FBB1F62177307840791
S1132080BA0720F0621B730B840BBA0BEE1F88F7A0
S1132090E09508950E94311188F09F5798F0B92F68
S11320A09927B751B0F0E1F0660F771F881F991F89
S11320B01AF0BA95C9F714C0B13091F00E944B11CF
S11320C0B1E008950C944B11672F782F8827B85FDF
S11320D039F0B93FCCF3869577956795B395D9F7E1
S11320E03EF490958095709561957F4F8F4F9F4FEB
S11320F00895E89409C097FB3EF4909580957095F7
S113210061957F4F8F4F9F4F9923A9F0F92F96E93F
S1132110BB279395F695879577956795B795F111B4
S1132120F8CFFAF4BB0F11F460FF1BC06F5F7F4F51
S11321308F4F9F4F16C0882311F096E911C0772363
S113214021F09EE8872F762F05C0662371F096E86C
S1132150862F70E060E02AF09A95660F771F881F3B
S1132160DAF7880F9695879597F90895990F0008DF
S1132170550FAA0BE0E8FEEF16161706E807F90755
S1132180C0F012161306E407F50798F0621B730BF0
S1132190840B950B39F40A2661F0232B242B252B71
S11321A021F408950A2609F4A140A6958FEF811D14
S11321B0811D089597F99F6780E870E060E00895B5
S11321C09FEF80EC0895DF93CF931F930F93FF92BB
S11321D0EF92DF927B018C01689406C0DA2EEF0146
S11321E00E947211FE01E894A591259135914591C3
S11321F05591A6F3EF010E94100FFE019701A8016B
S1132200DA9469F7DF90EF90FF900F911F91CF91CF
S1132210DF91089500240A94161617061806090675
S1132220089500240A941216130614060506089548
S1132230092E0394000C11F4882352F0BB0F40F4D0
S1132240BF2B11F460FF04C06F5F7F4F8F4F9F4F10
S1132250089557FD9058440F551F59F05F3F71F092
S11322604795880F97FB991F61F09F3F79F08795F9
S11322700895121613061406551FF2CF4695F1DF82
S113228008C0161617061806991FF1CF8695710512
S1132290610508940895E894BB2766277727CB0146
S11322A097F908950E94B61008F48FEF08959B01E2
S11322B0AC0160E070E080E89FE30C9416120E9489
S11322C072110C9418110E940A1138F00E94111115
S11322D020F0952311F00C94DA100C94E0101124E2
S11322E00C944C110E94291170F3959FC1F3950F22
S11322F050E0551F629FF001729FBB27F00DB11D86
S1132300639FAA27F00DB11DAA1F649F6627B00D15
S1132310A11D661F829F2227B00DA11D621F739FFE
S1132320B00DA11D621F839FA00D611D221F749F0C
S11323303327A00D611D231F849F600D211D822F53
S1132340762F6A2F11249F5750409AF0F1F088237A
S11323504AF0EE0FFF1FBB1F661F771F881F9150A7
S11323605040A9F79E3F510580F00C94DA100C946C
S11323704C115F3FE4F3983ED4F3869577956795C7
S1132380B795F795E7959F5FC1F7FE2B880F911DD1
S11323909695879597F9089519F416F40C94E0101E
S11323A00C941A120E943111B8F39923C9F3B6F3AD
S11323B09F57550B87FF0E9428120024A0E640EA8D
S11323C0900180585695979528F4805C660F771F86
S11323D0881F20F026173707480730F4621B730B59
S11323E0840B202931294A2BA6951794079420257C
S11323F031254A2758F7660F771F881F20F02617C4
S11324003707480730F4620B730B840B200D311D22
S1132410411DA09581F7B901842F9158880F969595
S1132420879508959B01AC010C945F110E94EC0FF9
S11324300C9418119F3F31F0915020F487957795B3
S11324406795B795880F911D9695879597F9089587
S113245091505040660F771F881FD2F70895A1E26C
S11324601A2EAA1BBB1BFD010DC0AA1FBB1FEE1F0A
S1132470FF1FA217B307E407F50720F0A21BB30B55
S1132480E40BF50B661F771F881F991F1A9469F7D1
S113249060957095809590959B01AC01BD01CF012D
S11324A00895052E97FB1EF400940E94681257FDB0
S11324B007D00E942F1207FC03D04EF40C9468122C
S11324C050954095309521953F4F4F4F5F4F08955C
S11324D090958095709561957F4F8F4F9F4F08958C
S11324E00E947812332312F48A1B9B0B0C948912DA
S11324F0A29FB001B39FC001A39F700D811D112441
S1132500911DB29F700D811D1124911D08950E948B
S11325107812B7FF0895821B930B0895DF93CF932E
S11325201F930F939A9DF02D219FF00D8B9DF00D1D
S11325308A9DE02DF10D039FF00D029FE00DF11D2A
S11325404E9DE00DF11D5E9DF00D4F9DF00D7F93AE
S11325506F93BF92AF925F934F93D5010E9478120D
S11325608B01AC01D7010E947812EB01E80FF91F2F
S1132570D6010E94DE122F913F91D6010E9478125B
S1132580C60FD71FE81FF91FAF91BF910E94DE123B
S11325902F913F910E947812C60FD71FE81FF91F91
S11325A0D6010E947812E60FF71F9801BE01CF01F1
S11325B011240F911F91CF91DF9108950E947812F9
S11325C0460F571FC81FD91F08F4319608950F935B
S11325D0083090F0982F872F762F652F542F432F94
S11325E0322F22270850F4CF220F331F441F551FC8
S11325F0661F771F881F991F0A95B2F70F910895D8
S113260097FB10F8169400080F93083098F00850C0
S1132610232F342F452F562F672F782F892F902D56
S1132620F4CF059497958795779567955795479532
S1132630379527950A95AAF70F9108952A0D3B1D02
S11326404C1D5D1D6E1D7F1D801F911F089500246C
S1132650A7FD00942A0F301D401D501D601D701DE4
S1132660801D901D08952A193B094C095D096E09C6
S11326707F09800B910B08950024A7FD00942A176D
S113268030054005500560057005800590050895E6
S1132690DC0101C06D9341505040E0F70895FC0106
S11326A08191861721F08823D9F7992708953197C6
S11326B0CF01089503D0808199270895FC01E0504B
S11326C0FC4E0895262FAF93BF93E0E0F0E13281F2
S11326D031FDFDCFDC01A050BC4E2C932DE924BF6D
S11326E023E020830196BF91AF910895F894FFCF22
S11326F00A00415400415424503D320041542453B3
S1132700463D00415424493D313100415424493D62
S11327103130000A0D005041433A200049443A2028
S11327200054494E59464F58205631310048617281
S1132730645265736574733A20002C000A0D2856A0
S11327404F4C5441474520484947482920003031DF
S112275032333435363738396162636465660075
S105275FFFFF76
S9030000FC
