S01A000054696E79466F78475053536F6674776172652E7372656304
S11300000C9453000C9470000C9470000C94FD0735
S11300100C9470000C9470000C9470000C9470009C
S11300200C940C080C9470000C9470000C947000E8
S11300300C9470000C9470000C9470000C9470007C
S11300400C9470000C9470000C9470000C9470006C
S11300500C9470000C9470000C9470000C9470005C
S11300600C9470000C9470000C9470000C9470004C
S11300700C9470000C947000084AD73B3BCE016E80
S113008084BCBFFDC12F3D6C74319ABD56833DDAEB
S11300903D00C77F11BED9E4BB4C3E916BAAAABEFA
S11300A0000000803F0011241FBECFEFCDBFDFE36F
S11300B0DEBF18E3A0E0B8E3E6EBFDE202C0059082
S11300C00D92A230B107D9F72CE3A2E0B8E301C046
S11300D01D92AA3AB207E1F70E94430F0C949516B9
S11300E00C940000CF93DF931F92CDB7DEB7198233
S11300F0AE014F5F5F4F68E08CE40E94B70791E068
S113010084FF90E0892F0F90DF91CF9108958F9213
S11301109F92AF92BF92CF92DF92EF92FF920F9392
S11301201F93CF93DF93CDB7DEB72697CDBFDEBF46
S11301305C016B017A018E010F5F1F4F86E0F801AD
S113014011928A95E9F78CE40E945F0782E00E948D
S113015090078CE40E944D074E01F6E08F0E911C2F
S113016081E00E947007F80181938F01E815F90579
S1130170B9F780E00E947007182F0E94AE078A81A9
S113018090E0982F88272981822BF5018083918321
S11301908C8190E0982F88272B81822BF601808315
S11301A09183812F90E0982F88272D81822BF7014E
S11301B0808391832696CDBFDEBFDF91CF911F91BF
S11301C00F91FF90EF90DF90CF90BF90AF909F90F2
S11301D08F900895CF938CE40E944D07C82F81110E
S11301E003C00E94AE0702C00E94AE078C2FCF91BD
S11301F0089541E060E18CE40E94E10740E464E298
S11302008CE40E94E10783EF91E00197F1F700C0CD
S1130210000040E46DE08CE40E94E10742E46FE0FA
S11302208CE40E94E10741E060E28CE40E94E10773
S113023040E861E28CE40E94E10740E068E28CE47B
S11302400E94E10740E06AE18CE40E94E10744E295
S113025065E18CE40E94E10747E061E18CE40E94DF
S1130260E1074FE566E18CE40E94E10745E060E1C7
S11302708CE40E94E10789EF90E00197F1F700C058
S113028000000895FC019081990F9056292F220FA8
S1130290220F920F218180ED820F890F0895FC01B6
S11302A09081992371F0DF011196908321E030E071
S11302B0691302C020E030E0E20FF31F9D91911119
S11302C0F4CF108208958F929F92AF92BF92CF92F3
S11302D0DF92EF92FF927C016EE20E944F01C70110
S11302E00E9423166B017C0120E432E44FE050E0CD
S11302F00E94921549015A0160E472E48FE090E093
S11303000E948215A7019601261B370B480B590B37
S1130310CA01B90126E030E040E050E00E94B41583
S113032069017A01A501940160EA76E881E090E030
S11303300E9482156C0D7D1D8E1D9F1DFF90EF90F8
S1130340DF90CF90BF90AF909F908F9008954F9281
S11303505F926F927F928F929F92AF92BF92CF9251
S1130360DF92EF92FF92CF93DF93CDB7DEB7E8979A
S1130370CDBFDEBFFC01892B09F4F1C16581603575
S113038009F4F1C1C62ED12C20E3C21A28EFD20AF7
S11303904280842C912CA12CB12C208130E0A0E14E
S11303A0BEE00E94DB156D837E838F839887218155
S11303B030E0ACE3B0E00E94DB1569877A878B8775
S11303C09C872381422E512C612C712C4481423014
S11303D028F419821A821B821C8208C06FE170E023
S11303E080E090E069837A838B839C834330D0F1EF
S11303F09601329522952F7023273F702327AEE371
S1130400BAE00E94DB1520E931E0DC01A29FC001C3
S1130410A39F900DB29F900D1124C816D90639F1EF
S113042096013695279536952795ABE7B4E10E945A
S1130430DB159695879554E6589F9001599F300D8A
S11304401124C216D306E1F0C60183709927892BC3
S113045001F16CE170E080E090E0698B7A8B8B8B2A
S11304609C8B1FC0198A1A8A1B8A1C8A1AC08DE1A8
S113047090E0A0E0B0E0898B9A8BAB8BBC8B11C071
S11304806CE170E080E090E0698B7A8B8B8B9C8BC5
S113049008C08DE190E0A0E0B0E0898B9A8BAB8B33
S11304A0BC8B443028F41D8A1E8A1F8A188E08C00B
S11304B06FE170E080E090E06D8B7E8B8F8B988F86
S11304C0453028F4198E1A8E1B8E1C8E08C08EE1BE
S11304D090E0A0E0B0E0898F9A8FAB8FBC8F46305C
S11304E028F41D8E1E8E1F8E18A208C06FE170E0C6
S11304F080E090E06D8F7E8F8F8F98A3473028F433
S113050019A21AA21BA21CA208C08EE190E0A0E0CE
S1130510B0E089A39AA3ABA3BCA3483028F41DA2DE
S11305201EA21FA218A608C06FE170E080E090E050
S11305306DA37EA38FA398A7493028F419A61AA601
S11305401BA61CA608C08FE190E0A0E0B0E089A73C
S11305509AA7ABA7BCA74A3028F41DA61EA61FA6BF
S113056018AA08C06EE170E080E090E06DA77EA755
S11305708FA798AB4B3028F419AA1AAA1BAA1CAA55
S113058008C08FE190E0A0E0B0E089AB9AABABABE0
S1130590BCAB4C3028F41DAA1EAA1FAA18AE08C072
S11305A02EE130E040E050E02DAB3EAB4FAB58AF16
S11305B0E12CF12CD701C601815B9740A109B10957
S11305C0AC01BD01769567955795479576956795E6
S11305D0579547954D875E876F87788BC701B6011E
S11305E0615476408109910920E931E040E050E00E
S11305F00E9492158D859E85AF85B889820F931FC1
S1130600A41FB51F840D951DA61DB71D29813A8110
S11306104B815C81820F931FA41FB51F49895A899E
S11306206B897C89840F951FA61FB71F2D893E896E
S11306304F89588D820F931FA41FB51F498D5A8D62
S11306406B8D7C8D840F951FA61FB71F2D8D3E8D3E
S11306504F8D58A1820F931FA41FB51F49A15AA102
S11306606BA17CA1840F951FA61FB71F2DA13EA1CE
S11306704FA158A5820F931FA41FB51F49A55AA5C2
S11306806BA57CA5840F951FA61FB71F2DA53EA59E
S11306904FA558A9820F931FA41FB51F49A95AA992
S11306A06BA97CA9840F951FA61FB71F2DA93EA96E
S11306B04FA958AD280F391F4A1F5B1F60E871E529
S11306C081E090E00E94821569837A838B839C8306
S11306D0D501C4018058904AAF4FB6474D805E8023
S11306E06F807884480E591E6A1E7B1E89849A8402
S11306F0AB84BC84840C951CA61CB71CA701960172
S113070060E873E381EE91E00E948215860E971EE5
S1130710A81EB91EC701B6016D567740810991091B
S113072024E630E040E050E00E94921560E871E574
S113073081E090E00E948215A5019401261B370BED
S1130740480B590BDA01C90129813A814B815C813B
S1130750280F391F4A1F5B1FCA01B90107C060E097
S113076070E0CB0103C060E070E0CB01E896CDBF40
S1130770DEBFDF91CF91FF90EF90DF90CF90BF90DD
S1130780AF909F908F907F906F905F904F9008955F
S11307902F923F924F925F926F927F928F929F928D
S11307A0AF92BF92CF92DF92EF92FF920F931F937B
S11307B0CF93DF93CDB7DEB7A197CDBFDEBFFC01EA
S11307C09E012F5F3F4F80E2D9011D928A95E9F780
S11307D06115710509F469C19081992309F465C112
S11307E049A36B018F010F5F1F4F80E0312C79010A
S11307F06894222425F8442E512C5201F3E0AF0EC4
S1130800B11C420124E0820E911C320135E0630EDA
S1130810711CA6E04A0E511C943209F441C19C3269
S113082009F026C13394B2E03B1221C0F6011082D4
S113083011821282F70101900020E9F73197EE1935
S1130840FF09369708F40DC1C7010E944201D60181
S11308508C93CE0103960E944201F6018183CE015E
S113086005960E944201D60112968C93FAC0832DFC
S113087090E08A159B05A1F4F60116821782108672
S113088011868981882309F4ECC0C7010E946301A1
S1130890D60116966D937D938D939C931997E1C021
S11308A08815990501F5F70101900020E9F7CF01BA
S11308B002978E159F0509F0D4C089818F7D8335F9
S11308C009F0CFC0F60186819781A085B185B095E6
S11308D0A095909581959F4FAF4FBF4F8683978387
S11308E0A087B187BEC086159705A1F4D6011A96D4
S11308F01D921D921D921C921D978981882309F4D3
S1130900B0C0C7010E946301F601628773878487C0
S11309109587A7C08415950501F5F701019000207E
S1130920E9F7CF0102978E159F0509F09AC08981D6
S11309308F7D873509F095C0F60182859385A4855E
S1130940B585B095A095909581959F4FAF4FBF4FBA
S113095082879387A487B58784C0F7E03F1210C0CD
S113096029A121117EC0D6011E961C921E97898151
S11309708153823008F075C0E1E01E96EC9371C09B
S1130980F9E03F1244C029A121116BC0D601519650
S11309901C928981882309F464C06EE270E0C70167
S11309A00E945116009709F45CC0FC0101900020DC
S11309B0E9F731979F01281B390BC9012230310512
S11309C008F44FC0F70101900020E9F73197EE19C0
S11309D0FF099F012E5F3F4F2817390748F0A2E017
S11309E0B0E0A81BB90BEE0DFF1DEA0FFB1F108230
S11309F06EE2C7010E944F01C7010E9405168F3F96
S1130A00910511F00CF08FEFF601818B2AC0FAE00A
S1130A103F1227C029A1213021F5D60113961C923B
S1130A20139714961C92149715961C92F701019033
S1130A300020E9F73197EE19FF09369790F0C701C6
S1130A400E944201F6018383CE0103960E94420173
S1130A50D60114968C93CE0105960E944201F601AC
S1130A608583D701E22D1D92EA95E9F780E018C04D
S1130A709A3289F4F9A1F130C1F4D6011E961C9280
S1130A808981882391F0813411F0843471F481E0F8
S1130A90F60186870AC0F701E80FF11D90838F5F86
S1130AA0D8019D918D019111B7CEA196CDBFDEBF26
S1130AB0DF91CF911F910F91FF90EF90DF90CF9036
S1130AC0BF90AF909F908F907F906F905F904F906A
S1130AD03F902F90089583EA9DEA0E94CF112FE35F
S1130AE08DE093E0215080409040E1F700C0000089
S1130AF00895CF93DF93CDB7DEB7C45BD109CDBFE3
S1130B00DEBF9C0144EBBE016F5F7F4F8AE00E9411
S1130B102F11882381F06FE470E0CE0101960E94CA
S1130B205116FC01892B31F081E090819F3419F03A
S1130B3080E001C080E0CC54DF4FCDBFDEBFDF9149
S1130B40CF9108958EE29DEA0E94CF1188EE93E042
S1130B500E947905089581E39DEA0E94CF1180EDFA
S1130B6097E00E9479050895EF92FF920F931F93E7
S1130B70CF936D3040F5062F7C0188E39DEA0E94F7
S1130B80BA1110E0101611068CF4C0E0F701EC0F56
S1130B90F11DC7FDFA9580810E941812CF5F2C2F9A
S1130BA00C2E000C330B2017310784F383EA9DEAE3
S1130BB00E94BA1180E59DEA0E94BA1180EE9EE27D
S1130BC00E94790501C080E0CF911F910F91FF90A1
S1130BD0EF9008958AEF8093000487EF80932004B8
S1130BE08FE38093400408958091023890910338F4
S1130BF0A0910438B09105380196A11DB11D8093D0
S1130C00023890930338A0930438B09305380895BC
S1130C10109202381092033810920438109205385A
S1130C20E0E0FAE081E08287118227EE33E026A338
S1130C3037A38083789408952FB7F894609102388D
S1130C407091033880910438909105382FBF08952E
S1130C50F894E0E0FAE012861082789408950E94F5
S1130C602806E0E2F4E0108A118AE0E5F0E08081F1
S1130C70897F8260808380818160808388950895E4
S1130C809C01F894E0E4F1E091819111FDCF109280
S1130C90480110924901E0E4F1E091819111FDCF06
S1130CA0C901880F991F880F991FE0E4F1E082873A
S1130CB0938781E0878391EC90838283789408956D
S1130CC0E0E0F6E081E0808388E0828384E6808748
S1130CD083E3848780E1828782858160828785813E
S1130CE080FFFDCF2091100630911106409112062D
S1130CF050911306211531054105510521F421E0D8
S1130D0030E040E050E01092000660E070E080E4E3
S1130D1090E00E949215C901089528ED816090E049
S1130D2024BF8093610080E024BF80936000E0E6EC
S1130D30F0E0838180FDFDCF08958823A9F0E0E4ED
S1130D40F4E094E09583AFE4B3EC1197F1F700C0BD
S1130D5000009683813041F0AFE4B3EC1197F1F7D2
S1130D6000C00000815071F7089580E1809325044C
S1130D70089580E180932604089582E080934504D9
S1130D808DEE92E00197F1F700C00000089582E033
S1130D9080934604089580E480930504089580E4D4
S1130DA080930604089580E880930504089580E8FC
S1130DB08093060408954F925F926F927F92AF9250
S1130DC0BF92CF92DF92EF92FF920F931F93CF9334
S1130DD0DF93CDB7DEB729013A019B01AC01241999
S1130DE035094609570989899A89AB89BC89BC01A7
S1130DF0CD016A197B098C099D090E948215A801FD
S1130E00970124193509460957090E94B415CA01E6
S1130E10B9016A0D7B1D8C1D9D1DDF91CF911F9122
S1130E200F91FF90EF90DF90CF90BF90AF907F90A5
S1130E306F905F904F900895E0EAF8E0168283E0A7
S1130E4083838481886084838581816085838581AF
S1130E50806C8583089588E893E1E0EAF8E02581D1
S1130E60222344F023E02A95F1F700000197B9F713
S1130E7080E0089581E0089588E893E1E0EAF8E0ED
S1130E80258126FD08C023E02A95F1F7000001978B
S1130E90B9F780E0089581E008959091A5089370D2
S1130EA0933059F0E0EAF8E094819B7F9483880FB3
S1130EB0816087830E942B07089580E008959091B4
S1130EC0A5089370933051F0E0EAF8E094819B7F99
S1130ED09483880F87830E943C07089580E00895D7
S1130EE0CF939091A50893709230A9F4C82F0E94D3
S1130EF02B07882391F08091A808CC2331F0E0EAF5
S1130F00F8E094819B7F948309C0E0EAF8E094813F
S1130F109460948303C080E001C080E0CF91089581
S1130F209091A50893709230A9F48093A80828E8BA
S1130F3033E1E0EAF8E08581958190718074892B32
S1130F4059F483E08A95F1F700002150310999F7AB
S1130F5080E0089580E0089581E00895E0EAF8E0F3
S1130F6084818460848384818360848308950F935F
S1130F701F93CF93DF93C82FD62F8A010E945F0758
S1130F80811103C081E0F80180838D2F0E949007B6
S1130F90811103C081E0F80180838C2F0E944D07EA
S1130FA0811103C081E0F801808380E00E94700712
S1130FB0C82F0E94AE078C2FDF91CF911F910F9104
S1130FC008951F93CF93DF93D62F142F0E945F07AA
S1130FD0C82F882369F08D2F0E949007C82F88237B
S1130FE039F0812F0E949007C82F81110E94AE070B
S1130FF08C2FDF91CF911F9108951F920F920FB6FE
S11310000F9211248F9381E0809343018F910F906D
S11310100FBE0F901F9018951F920F920FB60F924C
S113102011242F933F934F935F936F937F938F93E9
S11310309F93AF93BF93EF93FF930E94F40581E0D6
S113104080930B0AFF91EF91BF91AF919F918F9184
S11310507F916F915F914F913F912F910F900FBEB0
S11310600F901F9018950E9440060E942F06109220
S113107040010895CF93DF939C01F894E0E4F1E0FC
S113108091819111FDCF1092480110924901E0E441
S1131090F1E091819111FDCFC0E4D1E02A873B8733
S11310A081E08F8391E898838A8378940E942F0645
S11310B01882DF91CF9108954F925F926F927F9241
S11310C08F929F92AF92BF92CF92DF92EF92FF9254
S11310D0CF93DF93EC017A01072E000C880B990B58
S11310E00E94CE1324E237E94FE75BE30E94B21477
S11310F04B015C01B701FF0C880B990B0E94CE13C6
S113110024E237E94FE75BE30E94B2146B017C01F0
S1131110A5019401C501B4010E94B2144B015C0104
S1131120A7019601C701B6010E94B2149B01AC014C
S1131130C501B4010E944C120E9425156B017C016B
S1131140BE01DD0F880B990B0E94CE1324E237E910
S11311504FE75BE30E94B2149058A70196010E94E6
S1131160CB1223E333E345E652E40E94B2142AE4AB
S11311703FE944E35FE30E94B21420E030E04EEF25
S113118052E40E944C126B017C0120E030E0A90182
S11311900E942A1388239CF020E030E04EE753E4B9
S11311A0C701B6010E94A514181664F40F2EC12CB1
S11311B0D12CFEE7EF2EF3E4FF2EF02D03C0C12C5B
S11311C0D12C7601C701B6010E949D13862FDF91B1
S11311D0CF91FF90EF90DF90CF90BF90AF909F9012
S11311E08F907F906F905F904F9008958F929F9211
S11311F0AF92BF92CF92DF92EF92FF927C01072EC3
S1131200000C880B990B0E94CE1324E237E94FE7B8
S11312105BE30E94B2144B015C01B701FF0C880B25
S1131220990B0E94CE1324E237E94FE75BE30E9457
S1131230B214A50194010E94CB1223E333E345E6E3
S113124052E40E94B2142AE43FE944E35FE30E94BB
S1131250B21420E030E04EEF52E40E944C126B01D5
S11312607C0120E030E0A9010E942A1388239CF02D
S113127020E030E04EE753E4C701B6010E94A51414
S1131280181664F40F2EC12CD12CFEE7EF2EF3E4D4
S1131290FF2EF02D03C0C12CD12C7601C701B6015D
S11312A00E949D13862FFF90EF90DF90CF90BF9008
S11312B0AF909F908F9008952F923F924F925F929C
S11312C06F927F928F929F92AF92BF92CF92DF9252
S11312D0EF92FF920F931F93CF93DF93CDB7DEB7B7
S11312E0A097CDBFDEBF0E94EA009FEF9093013824
S11312F09093003810921338811104C086E08093D3
S11313001E3823C20E94F90082E00E948D06C12C7F
S1131310D12C7601412C512C3201812C912C540179
S1131320198280E991E00E943A0801C089830E94F1
S113133072008111F6CF1981012F10E0000F111FE7
S11313400A831B83095D174C18010A811B8105560A
S1131350164C2A813B81215F344C2A833B83A101B3
S1131360B801C9010E948700EA81FB8180819181D3
S1131370092E000CAA0BBB0B880E991EAA1EBB1EBD
S1131380F80180819181092E000CAA0BBB0B480E39
S1131390591E6A1E7B1EF10180819181092E000C69
S11313A0AA0BBB0BC80ED91EEA1EFB1E89818F5FD8
S11313B08A3B08F4BBCF882309F4ABC1082F10E0A3
S11313C020E030E00A831B832C833D83C501B401F4
S11313D0A90198010E94B41528873987C301B20175
S11313E02A813B814C815D810E94B4152A873B8709
S11313F0C701B6012A813B814C815D810E94B415ED
S11314002C873D87109113381A8300910038098B7B
S113141010910138188B0981202E312C1FEF211ACD
S1131420310A8101000F111F0E831F83612C712C5F
S11314301A8A212C312C21011B8A1C8A1D8A1E8A9E
S11314401E861F861982F301E15FF44CC080D180AF
S1131450D60108851985A01BB10BA083B183F301C4
S1131460E556F64CE080F180A7010A851B85401BF8
S1131470510B40835183F301E95DF74C00811181E5
S113148098016C857D85261B370B2F8B388F208325
S113149031839D010E94D3154B015C019A01DA014D
S11314A00E94D315860E971EA81EB91E2F89388D4B
S11314B0D9010E94D315860E971EA81EB91EC50118
S11314C0B4010E94CE130E9425150E949D13260E7E
S11314D0371E481E591E643171058105910510F0AF
S11314E0E1E0EA836115F2E07F078105910510F0E0
S11314F022E02A83611534E073078105910510F019
S113150043E04A836D3071058105910558F4B801B3
S1131510C7010E94F608898BA801B701C6010E9481
S11315205C08888B0F89188D0E301105B4F1198170
S1131530112309F4FDC01F3F09F50A890F3F11F07B
S11315400F5F0A8B8E859F8599231CF49195819555
S11315509109092E000CAA0BBB0B2B893C894D89E0
S11315605E89280F391F4A1F5B1F2B8B3C8B4D8BC9
S11315705E8B0F89188D0E871F87DEC0198111308D
S113158009F04BC00E851F852F89388D021713076C
S11315900CF0D2C02E873F87CFC00F89188D033F30
S11315A01F4FDCF50981002391F10F3F51F40E85A3
S11315B01F852F89388D201731077CF52E873F87AB
S11315C02CC00981013049F51A891F3F11F01F5FB2
S11315D01A8B8E859F8599231CF491958195910989
S11315E0092E000CAA0BBB0B2B893C894D895E8903
S11315F0280F391F4A1F5B1F2B8B3C8B4D8B5E8B37
S11316000F89188D0E871F871FEF198306C00F8956
S1131610188D0E871F871FEF198322E0620E711C3D
S11316200E811F810615170509F00DCF209216387B
S11316303092173840921838509219381A81109302
S113164013380989009300381889109301380A89DE
S11316500093153810921438209115382223F9F08C
S113166030E040E050E06B897C898D899E890E943E
S11316709215DA01C901B695A79597958795B69500
S1131680A795979587958F3F9105A105B10529F0F9
S113169020F08FEF90E0A0E0B0E08093143886E073
S11316A00E948D068091163890911738A0911838B1
S11316B0B09119388C019D012B8F3C8F282F312F2D
S11316C04B8D5C8D60E070E080E090E0A0901F386E
S11316D0B0902038C0902138D0902238E090233840
S11316E0F090243800912538109126380E94FC157A
S11316F020931F3830932038409321385093223858
S11317006093233870932438809325389093263837
S11317101CC0109216381092173810921838109274
S11317201938109215381B8A1C8A1D8A1E8A92CF7A
S11317300F89188D0E871F870F89188D033F1F4F40
S11317400CF442CF01E0098368CFA096CDBFDEBF81
S1131750DF91CF911F910F91FF90EF90DF90CF9089
S1131760BF90AF909F908F907F906F905F904F90BD
S11317703F902F900895EF92FF920F931F93CF9372
S1131780DF93CDB7DEB7C054D109CDBFDEBF80E251
S11317909E012F5F3F4F7901F901282F11922A955D
S11317A0E9F78E010F5D1F4FF80111928A95E9F751
S11317B08FE39DEA0E94CF1128EB3BE040E2B701A2
S11317C08AE00E942F1187EA91E60197F1F700C0A1
S11317D0000087E49DEA0E94CF1128EB3BE040E241
S11317E0B8018AE00E942F118DE59DEA0E94CF1175
S11317F088E69DEA0E94BA11C7010E94CF118DE6C6
S11318009DEA0E94BA11C8010E94CF118FE49DEA9B
S11318100E94BA11E7EAF1E63197F1F700C000003F
S1131820C05CDF4FCDBFDEBFDF91CF911F910F9121
S1131830FF90EF900895CF92DF92EF92FF920F9373
S11318401F93CF93DF938C01EB010E94A7016A3EA3
S113185021E4720727E7820720E6920738F0AB01FC
S1131860BC014A5E51446747704603C040E050E003
S1131870BA01F80186819781A085B185805C9B4A75
S1131880A647BF4F6C017D010B2EB1E1F694E7949E
S1131890D794C794BA95D1F7B02DC8826C017D0155
S11318A00B2EB9E0F694E794D794C794BA95D1F780
S11318B0B02DC9826C017D01F694E794D794C79446
S11318C0CA82282F2795222727952B8382859385E3
S11318D0A485B58580589745AD4EBE4F6C017D01FA
S11318E00B2EB3E1F694E794D794C794BA95D1F745
S11318F0B02DC22ACB828C019D010F2EFBE03695C0
S1131900279517950795FA95D1F7F02D0C838C013F
S11319109D01689412F836952795179507951694A6
S1131920D1F70D838295880F807E872B8E836F83FA
S113193058874987DF91CF911F910F91FF90EF90C6
S1131940DF90CF9008958F929F92AF92BF92CF92E3
S1131950DF92EF92FF920F931F93CF93DF93CDB754
S1131960DEB7C45BD109CDBFDEBF7C010E9408068F
S11319700E94CB060E94D2102FE76AE186E0215034
S113198060408040E1F700C0000081E79DEA0E94CA
S1131990BA11C12CD12C0F2EF8EE8F2EF3E09F2E0E
S11319A0A12CB12CF02D08EB1BE024EBAE014F5F12
S11319B05F4F6AE082E00E947111882309F4AAC093
S11319C064E270E0CE0101960E9451168C010097EA
S11319D039F1FC0101900020E9F73197E81BF90B7C
S11319E03797F0F0FC018381823561F484818D3472
S11319F0B9F485818334A1F441E0B701C8010E94A0
S1131A00C8030EC0873461F4F8018481873441F43B
S1131A108581813429F440E0B701C8010E94C803DC
S1131A20F80101900020E9F73197E01BF10B3297A0
S1131A3068F164E270E0C80101960E9451160097B3
S1131A4029F1FC0101900020E9F73197E81BF90B1B
S1131A503797E0F0FC012381223559F424812D3499
S1131A60A9F42581233491F441E0B7010E94C8030D
S1131A700DC0273459F4FC012481273439F425811D
S1131A80213421F440E0B7010E94C8030E941C06DF
S1131A90A50194010E949215DA01C90120931A3814
S1131AA030931B3840931C3850931D382937310527
S1131AB04105510550F0F7016581603531F46081CD
S1131AC0611103C06181633038F18D32F1E09F0709
S1131AD0A105B10518F5F7016685613009F063CFFA
S1131AE0C114D10409F46901F701618961506D31B0
S1131AF060F0BA01A9014C195D09610971094A3004
S1131B0051056105710508F44ECFF7018787908B65
S1131B1011E005C010E003C010E001C010E00E9415
S1131B20CF060E94F1100E9420110E94FE10812F06
S1131B30CC54DF4FCDBFDEBFDF91CF911F910F910A
S1131B40FF90EF90DF90CF90BF90AF909F908F90D9
S1131B5008958F929F92AF92BF92CF92DF92EF92AD
S1131B60FF920F931F93CF93DF93CDB7DEB76C979C
S1131B70CDBFDEBFCE01019622E1DC011D922A9584
S1131B80E9F7FE0173962AE0DF011D922A95E9F731
S1131B900E94A30C882309F4CCC00E941C070E9455
S1131BA0BD060E945C09BE016D5E7F4FCE010196A9
S1131BB00E941B0C0E94C70680910638909116382B
S1131BC020911738E82FF0E0E95FF74C2083E1E03B
S1131BD0E80FF0E0E95FF74C90836091873C7091E7
S1131BE0883CE2E0E80FF0E0E95FF74C7083E3E063
S1131BF0E80FF0E0E95FF74C6083E4E0E80FF0E021
S1131C00E95FF74C0F2EFAE18F2EF8E39F2EF02DAB
S1131C10D4019C919083E5E0E80FF0E0E95FF74C94
S1131C209B899083E6E0E80FF0E0E95FF74C9C893C
S1131C309083E7E0E80FF0E0E95FF74C9D8990833B
S1131C40E8E0E80FF0E0E95FF74C9E899083E9E073
S1131C50E80FF0E0E95FF74C9F899083EAE0E80F32
S1131C60F0E0E95FF74C988D9083EBE0E80FF0E04B
S1131C70E95FF74C998D9083845F8093063880E008
S1131C8090E01F921F921F922FEF2F93A12CB12C43
S1131C906501A39414E7E12E1EE0F12E00E010E0AC
S1131CA020EF3AE040E050E00E94DB068091853C62
S1131CB09091863C0E9481168091853C9091863C4F
S1131CC001968093853C9093863CF40160810E9448
S1131CD081168091853C9091863C01968093853C49
S1131CE09093863C0E94B6100E94B90687EA91E65A
S1131CF00197F1F700C000000E946B05A7EAB1E666
S1131D001197F1F700C000006091063887E098E36E
S1131D100E94B405E7EAF1E63197F1F700C000004C
S1131D200E94B5060E94AB050F900F900F900F9084
S1131D309AC00E941C070E94BD060E945C09BE0155
S1131D406D5E7F4FCE0101960E941B0C0E94C70658
S1131D50809106389091163820911738E82FF0E0DA
S1131D60E95FF74C2083E1E0E80FF0E0E95FF74C2E
S1131D7090836091873C7091883CE2E0E80FF0E04A
S1131D80E95FF74C7083E3E0E80FF0E0E95FF74CBC
S1131D906083E4E0E80FF0E0E95FF74C0F2EFAE12E
S1131DA08F2EF8E39F2EF02DD4019C9190838B5FAE
S1131DB08093063880E090E01F921F921F922FEFCD
S1131DC02F93A12CB12C6501A39414E7E12E1EE0FE
S1131DD0F12E00E010E020EF3AE040E050E00E94F5
S1131DE0DB068091853C9091863C0E94811680910F
S1131DF0853C9091863C01968093853C9093863CEB
S1131E00F40160810E9481168091853C9091863C0A
S1131E1001968093853C9093863C0E94B6100E9464
S1131E20B90687EA91E60197F1F700C000000E9425
S1131E306B05A7EAB1E61197F1F700C000006091C5
S1131E40063887E098E30E94B405E7EAF1E63197A3
S1131E50F1F700C000000E94B5060E94AB050F9088
S1131E600F900F900F906C96CDBFDEBFDF91CF9196
S1131E701F910F91FF90EF90DF90CF90BF90AF90A4
S1131E809F908F900895C0E4D1E06894AA24A1F8AB
S1131E9007E018E30F2EFCE0BF2EF02DC12CD12C4F
S1131EA07601C39418828091953C811103C086E029
S1131EB00E948D060E9460068093873C9093883C24
S1131EC08091953C81118DC00E94EA050E94071201
S1131ED00E94B6100E94B50610921E3881E090E070
S1131EE00E9433088091843C843610F58091853CAF
S1131EF09091863C0E9479168093833C682F70E011
S1131F0080E090E00E94DA1184EA9DEA0E94CF11F9
S1131F108091853C9091863C01968093853C90937A
S1131F20863C8091843C8F5F8093843C8436F0F2BD
S1131F301092853C1092863C0E94B90687EA91E68D
S1131F400197F1F700C000000E946B050E94A205F2
S1131F509FE9E6E8F1E09150E040F040E1F700C08D
S1131F6000000E94BB0B2FE986E891E021508040DD
S1131F709040E1F700C000000E94B5060E94AB0546
S1131F8080911E38882341F08F5F0E949D068CE368
S1131F9090E00E94400625C010921F38109220380D
S1131FA0109221381092223810922338109224383B
S1131FB01092253810922638A092953CE7EAF1E673
S1131FC03197F1F700C000000E94D3060E94A90DCA
S1131FD0F8012B2D11922A95E9F7109206380E94E8
S1131FE0D7068091873C9091883C8F3DEDE09E0719
S1131FF0C0F0F8012B2D11922A95E9F710920638BA
S11320000E94D3060E94A90DC0928D3CD0928E3CB2
S1132010E0928F3CF092903C82E090E00E94400677
S113202076C02091953C223009F071C04091893CE2
S113203050918A3C60918B3C70918C3C41305105AD
S11320406105710509F063C085359B4008F459C0EA
S113205080918D3C90918E3CA0918F3CB091903CAE
S11320600297A105B105C1F4F8012B2D11922A950F
S1132070E9F7109206380E94D3060E94A90D82E067
S113208090E00E94400610928D3C10928E3C10927B
S11320908F3C1092903C21C08091913C9091923C55
S11320A0A091933CB091943C0197A105B10589F4AA
S11320B01092913C1092923C1092933C1092943C5A
S11320C00E94D3060E94A90D82E090E00E9440067F
S11320D004C082E090E00E94400680918D3C909183
S11320E08E3CA0918F3CB091903C0196A11DB11DF6
S11320F080938D3C90938E3CA0938F3CB093903C06
S113210006C00E94D70680E498E30E9440068091AE
S1132110893C90918A3CA0918B3CB0918C3C892B5A
S11321208A2B8B2BA1F4C092893CD0928A3CE092FA
S11321308B3CF0928C3CC092913CD092923CE092C9
S1132140933CF092943C82E090E00E9440060E940E
S11321500A110E942F06A6CEE0E0F8E0948195FFD4
S1132160FDCF8093020880E090E008951092E2058C
S1132170A0E0B8E016968C911697806C16968C9316
S11321801697E0E2F4E084E08583808184608083B4
S11321908081877F808381EA91E018968D939C9358
S11321A01997089581E08093E205A0E0B8E01696BF
S11321B08C911697806C16968C931697E0E0F4E059
S11321C0118A128A82E08583808182608083808183
S11321D08B7F808381EA91E018968D939C93199765
S11321E008958091040888233CF4E0E0F8E08081BD
S11321F094819923E4F3089580E00895E0E0F4E005
S113220080818D7F808380818B7F808384E0818B3C
S1132210828B0895E0E0F4E080818D7F808380816B
S11322208B7F808384E0818B828BE0E2F4E0908179
S11322309B7F90839081977F9083828B838B08957B
S1132240E0E0F8E0848186FFFDCF848185FFFACF4A
S1132250E0E0F8E084818064848316820895EF923C
S1132260FF920F931F93CF93DF93182F7B01042FBB
S1132270E90150E060E070E0C7010E944A160E9444
S1132280F11090E0E0E0F8E08481882354F0219795
S1132290A9EFB0E01197F1F700C000002097A1F773
S11322A018C080818A3069F08D3059F021E0290FFF
S11322B0D701A90FB11D8C93201710F090E001C035
S11322C0922F8113E1CFF701E90FF11D108281E014
S11322D001C080E0DF91CF911F910F91FF90EF90AB
S11322E00895DF92EF92FF920F931F93CF93DF93A2
S11322F0D82EE62EEA01F22E882389F1422F50E0EF
S113230060E070E0CE010E944A160E94F11090E055
S1132310E0E0F8E08481882364F001501109A9EF1A
S1132320B0E01197F1F700C000000115110591F715
S113233018C0808121E0290FDE01A90FB11D8C9303
S11323402F1510F090E001C0922F8E11E3CFDA9494
S1132350D110E0CFC90FD11D188281E003C080E005
S113236001C080E0DF91CF911F910F91FF90EF901A
S1132370DF900895FC012081222381F0DC01119675
S1132380E0E0F8E0948195FFFDCF22832D912111A7
S1132390F9CFE0E0F8E0848185FFFDCF08950E9445
S11323A0BA1183EA9DEA0E94BA1180E59DEA0E946F
S11323B0BA110895CF92DF92EF92FF926B017C01E4
S11323C08AE0C816D104E104F10460F0C701B60143
S11323D02AE030E040E050E00E949215CA01B901C1
S11323E00E94DA11C701B6012AE030E040E050E073
S11323F00E949215E0E0F8E0848185FFFDCF605DE6
S113240060930208FF90EF90DF90CF900895E6E983
S1132410FCE38CEA90E1808791871286138682E040
S1132420838314861586E093A63CF093A73C089515
S1132430CF93DF93CDB7DEB76497CDBFDEBF91E115
S1132440E5EAFDEADE01119601900D929A95E1F715
S1132450E82FF0E0F595E795F595E795F595E7957F
S1132460F595E79521E030E02C0F3D1FE20FF31FB7
S113247090819A8B8F70F901E80FF11D80818B8B0D
S11324801C8ACE0142960E94BA116496CDBFDEBF6B
S1132490DF91CF9108955058BB27AA270E94631259
S11324A00C946B140E945D1438F00E94641420F0A4
S11324B039F49F3F19F426F40C9433140EF4E09588
S11324C0E7FB0C942D14E92F0E947C1458F3BA17DF
S11324D0620773078407950720F079F4A6F50C9436
S11324E09E140EF4E0950B2EBA2FA02D0B01B9010A
S11324F090010C01CA01A0011124FF27591B99F076
S1132500593F50F4503E68F11A16F040A22F232F81
S1132510342F4427585FF3CF469537952795A795D1
S1132520F0405395C9F77EF41F16BA0B620B730B78
S1132530840BBAF09150A1F0FF0FBB1F661F771FE9
S1132540881FC2F70EC0BA0F621F731F841F48F49E
S1132550879577956795B795F7959E3F08F0B0CF27
S11325609395880F08F09927EE0F9795879508950E
S11325700E945D1460F080E891E009F49EEF0E94EF
S1132580641428F040E851E071F45EEF0CC00C9440
S113259033140C949E14E92FE0780E947C1440F3C9
S11325A0092E052AB1F3261737074807590738F0CB
S11325B00E2E07F8E02569F0E025E0640AC0EF6319
S11325C007F8009407FADB01B9019D01DC01CA0197
S11325D0AD01EF930E9442130E946B140E94FB1200
S11325E05F91552339F02BED3FE049E450FD49EC70
S11325F00C944C120895DF93DD27B92FBF7740E880
S11326005FE31616170648075B0718F4D92F0E94D4
S1132610AA149F938F937F936F930E946515E8E7A5
S1132620F0E00E9436140E946B142F913F914F9159
S11326305F910E94C514DD2351F09058A2EA2AED5F
S11326403FE049EC5FE3D0785D270E946312DF919D
S11326500C946B140E94091408F481E008950E94FC
S1132660641458F00E945D1440F029F45F3F29F08F
S11326700C942D1451110C949F140C9433140E9437
S11326807C1468F39923B1F3552391F3951B550BEF
S1132690BB27AA2762177307840738F09F5F5F4F31
S11326A0220F331F441FAA1FA9F335D00E2E3AF070
S11326B0E0E832D091505040E695001CCAF72BD088
S11326C0FE2F29D0660F771F881FBB1F26173707D9
S11326D04807AB07B0E809F0BB0B802DBF01FF270B
S11326E093585F4F3AF09E3F510578F00C942D14A7
S11326F00C949F145F3FE4F3983ED4F3869577954A
S11327006795B795F7959F5FC9F7880F911D9695C3
S1132710879597F90895E1E0660F771F881FBB1F1F
S1132720621773078407BA0720F0621B730B840BCC
S1132730BA0BEE1F88F7E09508950E94841488F080
S11327409F5798F0B92F9927B751B0F0E1F0660F71
S1132750771F881F991F1AF0BA95C9F714C0B130B2
S113276091F00E949E14B1E008950C949E14672F7A
S1132770782F8827B85F39F0B93FCCF386957795E1
S11327806795B395D9F73EF49095809570956195CA
S11327907F4F8F4F9F4F0895E89409C097FB3EF4F5
S11327A090958095709561957F4F8F4F9F4F99239A
S11327B0A9F0F92F96E9BB279395F6958795779518
S11327C06795B795F111F8CFFAF4BB0F11F460FFD8
S11327D01BC06F5F7F4F8F4F9F4F16C0882311F030
S11327E096E911C0772321F09EE8872F762F05C044
S11327F0662371F096E8862F70E060E02AF09A95DF
S1132800660F771F881FDAF7880F9695879597F9D3
S11328100895990F0008550FAA0BE0E8FEEF16166D
S11328201706E807F907C0F012161306E407F507C0
S113283098F0621B730B840B950B39F40A2661F034
S1132840232B242B252B21F408950A2609F4A140D7
S1132850A6958FEF811D811D089597F99F6780E8E4
S113286070E060E008959FEF80EC0895DF93CF93CC
S11328701F930F93FF92EF92DF927B018C01689478
S113288006C0DA2EEF010E94C514FE01E894A5915A
S11328902591359145915591A6F3EF010E9463125C
S11328A0FE019701A801DA9469F7DF90EF90FF9099
S11328B00F911F91CF91DF91089500240A94161669
S11328C0170618060906089500240A94121613061A
S11328D0140605060895092E0394000C11F48823A8
S11328E052F0BB0F40F4BF2B11F460FF04C06F5FC4
S11328F07F4F8F4F9F4F089557FD9058440F551F9A
S113290059F05F3F71F04795880F97FB991F61F06D
S11329109F3F79F087950895121613061406551FE4
S1132920F2CF4695F1DF08C0161617061806991F50
S1132930F1CF86957105610508940895E894BB2745
S113294066277727CB0197F908950E94091408F4A4
S11329508FEF08959B01AC0160E070E080E89FE395
S11329600C9469150E94C5140C946B140E945D1498
S113297038F00E94641420F0952311F00C942D1467
S11329800C94331411240C949F140E947C1470F33F
S1132990959FC1F3950F50E0551F629FF001729F00
S11329A0BB27F00DB11D639FAA27F00DB11DAA1F0F
S11329B0649F6627B00DA11D661F829F2227B00D5C
S11329C0A11D621F739FB00DA11D621F839FA00DE7
S11329D0611D221F749F3327A00D611D231F849F37
S11329E0600D211D822F762F6A2F11249F5750408E
S11329F09AF0F1F088234AF0EE0FFF1FBB1F661F09
S1132A00771F881F91505040A9F79E3F510580F0D1
S1132A100C942D140C949F145F3FE4F3983ED4F36C
S1132A20869577956795B795F795E7959F5FC1F775
S1132A30FE2B880F911D9695879597F9089519F4A3
S1132A4016F40C9433140C946D150E948414B8F38A
S1132A509923C9F3B6F39F57550B87FF0E947B1543
S1132A600024A0E640EA900180585695979528F4F2
S1132A70805C660F771F881F20F0261737074807EA
S1132A8030F4621B730B840B202931294A2BA69541
S1132A9017940794202531254A2758F7660F771F86
S1132AA0881F20F026173707480730F4620B730B92
S1132AB0840B200D311D411DA09581F7B901842F90
S1132AC09158880F9695879508959B01AC010C94B5
S1132AD0B2140E943F130C946B149F3F31F0915039
S1132AE020F4879577956795B795880F911D9695EE
S1132AF0879597F9089591505040660F771F881F66
S1132B00D2F70895DB018F939F930E94F115BF9133
S1132B10AF91A29F800D911DA39F900DB29F900D28
S1132B2011240895A1E21A2EAA1BBB1BFD010DC09E
S1132B30AA1FBB1FEE1FFF1FA217B307E407F50769
S1132B4020F0A21BB30BE40BF50B661F771F881F45
S1132B50991F1A9469F760957095809590959B01DB
S1132B60AC01BD01CF010895052E97FB1EF400941E
S1132B700E94CB1557FD07D00E94921507FC03D085
S1132B804EF40C94CB1550954095309521953F4FBC
S1132B904F4F5F4F089590958095709561957F4F45
S1132BA08F4F9F4F08950E94DB15332312F48A1B25
S1132BB09B0B0C94EC15A29FB001B39FC001A39F83
S1132BC0700D811D1124911DB29F700D811D112462
S1132BD0911D08950E94DB15B7FF0895821B930B86
S1132BE008950E94DB15A59F900DB49F900DA49F9E
S1132BF0800D911D112408952A0D3B1D4C1D5D1D52
S1132C006E1D7F1D801F911F0895FC018827992741
S1132C10E89421912032E9F3293010F02E30C8F3E2
S1132C202B3241F02D3239F4689404C00E9471169D
S1132C30820F911D219120532A30C0F31EF49095E8
S1132C4081959F4F08951F93FC0199278827BC0104
S1132C50E89411911032E9F3193010F01E30C8F3E2
S1132C601B3251F01D3249F4689406C00E945C1670
S1132C70610F711D811D911D119110531A30B0F314
S1132C803EF490958095709561957F4F8F4F9F4F3F
S1132C901F910895DC0101C06D9341505040E0F74D
S1132CA00895FC018191861721F08823D9F799278B
S1132CB008953197CF010895592F482F372F262F84
S1132CC0660F771F881F991F660F771F881F991F2C
S1132CD0620F731F841F951F660F771F881F991F2C
S1132CE008957AE0979F902D879F802D910D112450
S1132CF0089503D0808199270895FC01E050FC4E8B
S1132D000895262FAF93BF93E0E0F0E1328131FDC7
S1132D10FDCFDC01A050BC4E2C932DE924BF23E051
S1112D2020830196BF91AF910895F894FFCFE0
S1132D2E415400415424503D320041542453463DF5
S1132D3E00415424493D313100415424493D313040
S1132D4E000A0D005041433A200049443A20004BFA
S1132D5E696E65666F785F7633005041433A004979
S1132D6E443A0024504D544B3331342C302C312CF6
S1132D7E302C312C302C302C302C302C302C302C60
S1132D8E302C302C302C302C302C302C302C302C51
S1132D9E302A32380D0A0030313233343536373872
S10B2DAE39616263646566008B
S1052DB6FFFF19
S9030000FC
