S0190000537570657254696E7952455633546573742E7372656398
S11300000C943E000C9450000C9450000C9450003E
S11300100C9450000C9450000C9450000C9450001C
S11300200C9450000C9450000C9450000C9450000C
S11300300C9450000C9450000C9450000C945000FC
S11300400C9450000C9450000C9450000C945000EC
S11300500C9450000C9450000C9450000C945000DC
S11300600C9450000C9450000C9450000C945000CC
S11300700C9450000C9450000C94500011241FBE9A
S1130080CFEFCDBFDFE3DEBF28E3A0E0B8E301C0DC
S11300901D92A230B207E1F70E94A5000C94DB0088
S11300A00C9400008FEF809300048FE3809320046E
S11300B08FE08093400480E68093800A0895E0E214
S11300C0F4E0108A118AE0E5F0E08081897F8460A1
S11300D08083F8948081816080837894889580817E
S11300E08E7F8083089588ED616070E084BF6093A3
S11300F0610090E084BF90936000E0E6F0E08381CB
S113010080FDFDCF0895E0E2F4E080818460808387
S11301108081877F8083E0E0F8E085E490E0808759
S113012091878681806C86830895FB019081992351
S113013059F0DB011196E0E0F8E0848185FFFDCF02
S113014092839D919111F9CF089564E080E098E342
S11301500E94730080E098E30E9452002FE784E835
S11301609EE1215080409040E1F700C0000080E013
S113017098E30E9483002FE784E89EE121508040A9
S11301809040E1F700C00000C4E06AEB71E880E051
S113019098E30E9495002FEF88E09DE32150804072
S11301A09040E1F700C00000C15079F780E098E387
S10D01B00E945F00CACFF894FFCF4D
S10F01BA41542B435057524F46460D0051
S9030000FC
