:100000000C943C000C9459000C9459000C94D101B0
:100010000C9459000C9459000C9459000C945900FC
:100020000C9459000C9459000C9459000C945900EC
:100030000C9459000C9459000C9459000C945900DC
:100040000C9459000C9459000C9459000C945900CC
:100050000C9459000C9459000C9459000C945900BC
:100060000C9459000C9459000C9459000C945900AC
:100070000C9459000C94590011241FBECFEFCDBF32
:10008000DFE3DEBF18E3A0E0B8E3E8E6F9E002C092
:1000900005900D92A230B107D9F728E3A2E0B8E3AA
:1000A00001C01D92A431B207E1F70E94E7010C9450
:1000B00083040C9400008AE099E80E9411042FE365
:1000C0008DE093E0215080409040E1F700C00000B7
:1000D0000895CF93DF93CDB7DEB7C45BD109CDBF11
:1000E000DEBF9C0144EBBE016F5F7F4F8AE00E9440
:1000F000BA03882381F06FE470E0CE0101960E947C
:100100007804FC01892B31F081E090819F3419F053
:1001100080E001C080E0CC54DF4FCDBFDEBFDF9177
:10012000CF9108958CE099E80E94110488EE93E045
:100130000E94690008958FE099E80E94110480ED03
:1001400097E00E9469000895EF92FF920F931F932A
:10015000CF936D3040F5062F7C0186E199E80E942F
:10016000FC0310E0101611068CF4C0E0F701EC0F50
:10017000F11DC7FDFA9580810E941C04CF5F2C2FD2
:100180000C2E000C330B2017310784F38AE099E81A
:100190000E94FC038EE299E80E94FC0380EE9EE23E
:1001A0000E94690001C080E0CF911F910F91FF90E4
:1001B000EF900895EF92FF920F931F93CF93DF93E9
:1001C000CDB7DEB7C054D109CDBFDEBF7C0180E220
:1001D0008E010F5F1F4FD801E82F1D92EA95E9F7B6
:1001E000FE01B196DF011D928A95E9F78DE199E84C
:1001F0000E94110428EB3BE040E2B8018AE00E9433
:10020000BA03182F882309F43FC0E7EAF1E63197D3
:10021000F1F700C0000085E299E80E94110428EB84
:100220003BE040E2BE016F5D7F4F8AE00E94BA036F
:10023000182F882349F10E948E038DE299E80E94CD
:10024000FC03C7010E94110480E399E80E94FC03AB
:10025000CE0101960E94110486E399E80E94FC03F6
:10026000CE0181960E94110487EA91E60197F1F789
:1002700000C000000E9471030E94B203A7EAB1E629
:100280001197F1F700C00000812FC05CDF4FCDBF98
:10029000DEBFDF91CF911F910F91FF90EF900895F6
:1002A000E0E0F4E08AEF80838FE3809320048FE026
:1002B0008093400488E0838B0895E0E2F4E0108AA4
:1002C000118AE0E5F0E08081897F8260808380810F
:1002D00081608083889508959C01F894E0E4F1E0C2
:1002E00091819111FDCF1092480110924901E0E4F3
:1002F000F1E091819111FDCFC901880F991F880FFD
:10030000991FE0E4F1E08287938781E0878391EC95
:100310009083828378940895E0E0F6E081E0808322
:1003200088E0828384E6808783E3848780E1828714
:10033000828581608287858180FFFDCF20911006B4
:100340003091110640911206509113062115310586
:100350004105510521F421E030E040E050E01092E9
:10036000000660E070E080E490E00E944F04C90164
:10037000089528ED816090E024BF8093610080E0C3
:1003800024BF80936000E0E6F0E0838180FDFDCF34
:10039000089588E080930504089588E0809306041A
:1003A00008951F920F920FB60F9211248F9381E040
:1003B000809343018F910F900FBE0F901F9018955F
:1003C0000E946C010E945D0110924001089500E4BA
:1003D00011E0E12C6894FF24F2F86894DD24D6F84B
:1003E000CC24C394C7E0D8E3F8011082809113387D
:1003F000811103C086E00E94B9010E948C018093A4
:1004000005389093063880911338811183C00E947B
:100410005001F701D5820E9471030E94C90185E055
:1004200090E00E94E0010E945B000E9492008823FD
:1004300009F40DC1FFE926E881E0F1502040804039
:10044000E1F700C000008BE399E80E94DA009FE921
:10045000E6E8F1E09150E040F040E1F700C0000034
:100460000E949B00882309F423C1C0921338809115
:10047000053890910638988389830E94CD0187EAD8
:1004800091E60197F1F700C0000062E0CE010E9402
:10049000A4009FE9E6E8F1E09150E040F040E1F788
:1004A00000C000000E94C9012FE986E891E02150B8
:1004B00080409040E1F700C000000E949B00EFE701
:1004C000FAE126E0E150F0402040E1F700C00000F2
:1004D0000E94CD0187EA91E60197F1F700C0000084
:1004E00062E0CE010E94A4009FE9E6E8F1E09150AD
:1004F000E040F040E1F700C000000E94C9012FE990
:1005000086E891E0215080409040E1F700C0000073
:100510000E949B00809113388130A9F52091053805
:1005200030910638293BEBE03E0708F4A9C08091E2
:100530000438909100388913AAC038832983109217
:1005400004380E94CD0187EA91E60197F1F700C0D7
:10055000000062E0CE010E94A4009FE9E6E8F1E01D
:100560009150E040F040E1F700C000000E94C90156
:100570002FE986E891E0215080409040E1F700C0EB
:1005800000000E949B0080910438909100388917E8
:1005900068F42091023890910338291307C08F5FC7
:1005A0008093043880E498E30E946C0180910538C0
:1005B00090910638893B9B4020F480E498E30E94A8
:1005C0006C018091033890910238891738F48F5F5D
:1005D0008093033880E498E30E946C018091053891
:1005E000909106388D3AFDE09F0770F13091023806
:1005F00020910338321328C0988389830E94CD014B
:1006000087EA91E60197F1F700C0000062E0CE01B1
:100610000E94A4009FE9E6E8F1E09150E040F0403C
:10062000E1F700C000000E94C9012FE986E891E0CF
:10063000215080409040E1F700C000000E949B00E4
:100640008CE390E00E946C010E945D01CDCE0E947F
:100650008E0387E499E80E94FC03E7EAF1E631970C
:10066000F1F700C000000E94B20387EA91E601970B
:10067000F1F700C000008EE190E00E946C01F5CE21
:100680008091043890910038891720F096CF89170F
:1006900040F097CF209103389091023829138DCFE5
:1006A0007ECF209103389091023829138ACF77CFDB
:1006B0000E948E038FE499E80E94FC03E7EAF1E6CA
:1006C0003197F1F700C000000E94B20387EA91E67B
:1006D0000197F1F700C000008EE190E00E946C01EC
:1006E00019CF81E08093E205A0E0B8E016968C91E6
:1006F0001697806C16968C931697E0E0F4E082E0F3
:10070000858380818260808380818B7F808381EA82
:1007100091E018968D939C93199708951092E20595
:10072000A0E0B8E080E416968C931697E0E2F4E03F
:10073000128A84E0858380818460808381EA91E0ED
:1007400018968D939C931997089580910408882397
:100750003CF4E0E0F8E0808194819923E4F308958B
:1007600080E00895E0E2F4E080818B7F808384E084
:10077000828B0895EF92FF920F931F93CF93DF9395
:10078000182F7B01042FE90150E060E070E0C70101
:100790000E9471040E94A50390E0E0E0F8E08481EB
:1007A000882354F02197A9EFB0E01197F1F700C02A
:1007B00000002097A1F718C080818A3069F08D3041
:1007C00059F021E0290FD701A90FB11D8C93021711
:1007D00010F490E001C0922F8113E1CFF701E90FEF
:1007E000F11D108281E001C080E0DF91CF911F9167
:1007F0000F91FF90EF900895FC012081222381F05A
:10080000DC011196E0E0F8E0948195FFFDCF2283B2
:100810002D912111F9CFE0E0F8E0848185FFFDCF33
:1008200008950E94FC038AE099E80E94FC038EE28E
:1008300099E80E94FC030895CF93DF93CDB7DEB70C
:100840006497CDBFDEBF91E1E7E5F9E8DE011196DF
:1008500001900D929A95E1F7E82FF0E0F595E79574
:10086000F595E795F595E795F595E79521E030E065
:100870002C0F3D1FE20FF31F90819A8B8F70F901AF
:10088000E80FF11D80818B8B1C8ACE0142960E945D
:10089000FC036496CDBFDEBFDF91CF910895A1E246
:1008A0001A2EAA1BBB1BFD010DC0AA1FBB1FEE1FEA
:1008B000FF1FA217B307E407F50720F0A21BB30B35
:1008C000E40BF50B661F771F881F991F1A9469F7B1
:1008D00060957095809590959B01AC01BD01CF010D
:1008E0000895DC0101C06D9341505040E0F7089538
:1008F000FC018191861721F08823D9F79927089563
:0A0900003197CF010895F894FFCF5E
:10090A000A00415400415424503D320041542453BA
:10091A00463D00415424493D313100415424493D6A
:10092A003130000A0D005041433A200049443A2030
:10093A000054494E59464F5820565F33004572724B
:10094A006F722032004572726F722033003031327A
:0E095A003334353637383961626364656600C0
:02096800060087
:00000001FF
