:100000000C943C000C944E000C944E000C94EF01A8
:100010000C944E000C944E000C944E000C944E0028
:100020000C944E000C944E000C944E000C944E0018
:100030000C944E000C944E000C944E000C944E0008
:100040000C944E000C944E000C944E000C944E00F8
:100050000C944E000C944E000C944E000C944E00E8
:100060000C944E000C944E000C944E000C944E00D8
:100070000C944E000C944E0011241FBECFEFCDBF48
:10008000DFE3DEBF28E3A0E0B8E301C01D92AF309C
:10009000B207E1F70E9405020C94AC030C94000037
:1000A0008CE597E80E943A032FE38DE093E021501E
:1000B00080409040E1F700C000000895CF93DF93A7
:1000C000CDB7DEB7C45BD109CDBFDEBF9C0144EB29
:1000D000BE016F5F7F4F8AE00E94E302882381F0B8
:1000E0006FE470E0CE0101960E94A103FC01892B10
:1000F00031F081E090819F3419F080E001C080E010
:10010000CC54DF4FCDBFDEBFDF91CF9108958EE598
:1001100097E80E943A0388EE93E00E945E000895FB
:1001200081E697E80E943A0380ED97E00E945E0026
:100130000895EF92FF920F931F93CF936D3040F588
:10014000062F7C0188E697E80E94250310E0101630
:1001500011068CF4C0E0F701EC0FF11DC7FDFA9514
:1001600080810E944503CF5F2C2F0C2E000C330B97
:100170002017310784F38CE597E80E94250380E877
:1001800097E80E94250380EE9EE20E945E0001C077
:1001900080E0CF911F910F91FF90EF900895EF9223
:1001A000FF920F931F93CF93DF93CDB7DEB7C05469
:1001B000D109CDBFDEBF7C0180E28E010F5F1F4FF2
:1001C000D801E82F1D92EA95E9F7FE01B196DF010B
:1001D0001D928A95E9F78FE697E80E943A0328EB8B
:1001E0003BE040E2B8018AE00E94E302182F882336
:1001F00009F43FC0E7EAF1E63197F1F700C00000EB
:1002000087E797E80E943A0328EB3BE040E2BE0113
:100210006F5D7F4F8AE00E94E302182F882349F127
:100220000E94B6028FE797E80E942503C7010E944B
:100230003A0382E897E80E942503CE0101960E94C6
:100240003A0388E897E80E942503CE0181960E9430
:100250003A0387EA91E60197F1F700C000000E9497
:100260009A020E94DB02A7EAB1E61197F1F700C0FB
:100270000000812FC05CDF4FCDBFDEBFDF91CF918B
:100280001F910F91FF90EF9008958EEF80930004DF
:1002900087E380932004E0E4F4E08FE0808388E04B
:1002A000838B0895F894E0E0FAE012861082789447
:1002B00008950E945201E0E2F4E0108A118AE0E51C
:1002C000F0E08081897F826080838081816080838B
:1002D000889508959C01F894E0E4F1E091819111F2
:1002E000FDCF1092480110924901E0E4F1E09181C4
:1002F0009111FDCFC901880F991F880F991FE0E464
:10030000F1E08287938781E0878391EC90838283F9
:1003100078940895E0E0F6E081E0808388E08283CD
:1003200084E6808783E3848780E182878285816099
:100330008287858180FFFDCF2091100630911106C4
:1003400040911206509113062115310541055105C2
:1003500021F421E030E040E050E01092000660E03F
:1003600070E080E490E00E947803C901089528EDD0
:10037000816090E024BF8093610080E024BF80937F
:100380006000E0E6F0E0838180FDFDCF089584E029
:1003900080930504089584E08093060408958823DB
:1003A000A9F0E0E0F4E094E09583AFE4B3EC1197BA
:1003B000F1F700C000009683813041F0AFE4B3EC68
:1003C0001197F1F700C00000815071F7089588E09F
:1003D00080934504089588E08093460408951F9211
:1003E0000F920FB60F9211248F9381E080934301F7
:1003F0008F910F900FBE0F901F9018950E946A0169
:100400000E945901109240010895C0E4D1E002E039
:1004100018E3188280910E38811103C086E00E9493
:10042000B7010E948A01809300389093013890911F
:100430000E3891113FC00E9445010E949A020E940D
:10044000E70185E090E00E94FE010E9450000E94BA
:100450008700811153C02FE986E891E02150804048
:100460009040E1F700C000008DE897E80E94CF00BF
:10047000EFE9F6E821E0E150F0402040E1F700C06C
:1004800000000E949000811102C083E001C082E060
:100490000E94CF018EE190E00E946A012CC08AE0A8
:1004A0000E94CF0181E080930E388CE390E00E949F
:1004B0006A0121C09130F9F4F80180830E94EB01B8
:1004C00087EA91E60197F1F700C000000E94C7019A
:1004D00061E0C8010E949900811109C085E00E9475
:1004E000CF010E94CB010E94E7010E9490008CE3A3
:1004F00090E00E946A010E9459018BCF9FE9E6E8D3
:10050000F1E09150E040F040E1F700C000008DE8DC
:1005100097E80E94CF002FE986E891E021508040C3
:100520009040E1F700C000000E9490008111B7CF19
:1005300083E0AECF1092E205A0E0B8E016968C9171
:100540001697806C16968C931697E0E2F4E084E0A0
:1005500085838081846080838081877F808381EA36
:1005600091E018968D939C931997089581E080935C
:10057000E205A0E0B8E080E416968C931697E0E0E0
:10058000F4E0118A82E0858380818260808381EA41
:1005900091E018968D939C93199708958091040883
:1005A00088233CF4E0E0F8E0808194819923E4F32F
:1005B000089580E00895E0E0F4E080818D7F8083FD
:1005C00084E0818B0895EF92FF920F931F93CF9356
:1005D000DF93182F7B01042FE90150E060E070E009
:1005E000C7010E949A030E94CE0290E0E0E0F8E08A
:1005F0008481882354F02197A9EFB0E01197F1F797
:1006000000C000002097A1F718C080818A3069F0EF
:100610008D3059F021E0290FD701A90FB11D8C931E
:10062000021710F490E001C0922F8113E1CFF7017F
:10063000E90FF11D108281E001C080E0DF91CF91D0
:100640001F910F91FF90EF900895FC0120812223CC
:1006500081F0DC011196E0E0F8E0948195FFFDCF98
:1006600022832D912111F9CFE0E0F8E0848185FF0C
:10067000FDCF08950E9425038CE597E80E9425038D
:1006800080E897E80E9425030895CF93DF93CDB7C4
:10069000DEB76497CDBFDEBF91E1E9E9F7E8DE019F
:1006A000119601900D929A95E1F7E82FF0E0F595FB
:1006B000E795F595E795F595E795F595E79521E0AB
:1006C00030E02C0F3D1FE20FF31F90819A8B8F704B
:1006D000F901E80FF11D80818B8B1C8ACE014296B7
:1006E0000E9425036496CDBFDEBFDF91CF910895B0
:1006F000A1E21A2EAA1BBB1BFD010DC0AA1FBB1F26
:10070000EE1FFF1FA217B307E407F50720F0A21B97
:10071000B30BE40BF50B661F771F881F991F1A9404
:1007200069F760957095809590959B01AC01BD012E
:10073000CF010895DC0101C06D9341505040E0F7B6
:100740000895FC018191861721F08823D9F7992714
:1007500008953197CF010895F894FFCF0A004154CE
:1007600000415424503D320041542453463D004141
:100770005424493D313100415424493D3130000A6F
:100780000D005041433A200049443A200054494E5C
:1007900059464F58205630350030313233343536D3
:1007A00037383961626364656600FFFFFFFFFFFF52
:1007B000FFFFFFFFFFFFFFFFFFFFFFFFFFFFFFFF49
:1007C000FFFFFFFFFFFFFFFFFFFFFFFFFFFFFFFF39
:1007D000FFFFFFFFFFFFFFFFFFFFFFFFFFFFFFFF29
:1007E000FFFFFFFFFFFFFFFFFFFFFFFFFFFFFFFF19
:00000001FF
