S01A000054696E79466F78475053536F6674776172652E7372656304
S11300000C943C000C9459000C9459000C94260256
S11300100C9459000C9459000C9459000C945900F8
S11300200C9435020C9459000C9459000C9459000A
S11300300C9459000C9459000C9459000C945900D8
S11300400C9459000C9459000C9459000C945900C8
S11300500C9459000C9459000C9459000C945900B8
S11300600C9459000C9459000C9459000C945900A8
S11300700C9459000C94590011241FBECFEFCDBF2E
S1130080DFE3DEBF18E3A0E0B8E3E8E3FDE002C08D
S113009005900D92A030B107D9F728E3A0E0B8E3AA
S11300A001C01D92A134B207E1F70E9435030C94FC
S11300B056060C940000CF938CE40E940B02C82FC8
S11300C0811103C00E941D0202C00E941D028C2FD8
S11300D0CF91089585E29DE80E9441052FE38DE0CC
S11300E093E0215080409040E1F700C00000089563
S11300F0CF93DF93CDB7DEB7C45BD109CDBFDEBFED
S11301009C0144EBBE016F5F7F4F8AE00E94EA04CA
S1130110882381F06FE470E0CE0101960E942F06DF
S1130120FC01892B31F081E090819F3419F080E04B
S113013001C080E0CC54DF4FCDBFDEBFDF91CF9153
S1130140089580EB9CE80E94410588EE93E00E94AC
S11301507800089583EB9CE80E94410580ED97E0C8
S11301600E9478000895EF92FF920F931F93CF930C
S11301706D3040F5062F7C018AEB9CE80E942C052B
S113018010E0101611068CF4C0E0F701EC0FF11D1D
S1130190C7FDFA9580810E948A05CF5F2C2F0C2E13
S11301A0000C330B2017310784F385E29DE80E948D
S11301B02C0582ED9CE80E942C0580EE9EE20E94B4
S11301C0780001C080E0CF911F910F91FF90EF90D4
S11301D008958AEF8093000487EF809320048FE3CF
S11301E08093400408958091003890910138A09143
S11301F00238B09103380196A11DB11D80930038D7
S113020090930138A0930238B09303380895F8947A
S1130210E0E0FAE012861082789408950E940701C3
S1130220E0E2F4E0108A118AE0E5F0E08081897F61
S113023082608083808181608083889508959C0199
S1130240F894E0E4F1E091819111FDCF109248011E
S113025010924901E0E4F1E091819111FDCFC901CF
S1130260880F991F880F991FE0E4F1E08287938734
S113027081E0878391EC9083828378940895E0E011
S1130280F6E081E0808388E0828384E6808783E3EC
S1130290848780E18287828581608287858180FF6F
S11302A0FDCF209110063091110640911206509115
S11302B01306211531054105510521F421E030E0F3
S11302C040E050E01092000660E070E080E490E0CE
S11302D00E94CD05C901089528ED816090E024BFF6
S11302E08093610080E024BF80936000E0E6F0E04A
S11302F0838180FDFDCF08958823A9F0E0E4F4E034
S113030094E09583AFE4B3EC1197F1F700C00000DB
S11303109683813041F0AFE4B3EC1197F1F700C05C
S11303200000815071F7089580E1809325040895B9
S113033080E180932604089582E0809345048DEE45
S113034092E00197F1F700C00000089582E08093E5
S1130350460408954F925F926F927F92AF92BF923C
S1130360CF92DF92EF92FF920F931F93CF93DF937D
S1130370CDB7DEB729013A019B01AC012419350937
S11303804609570989899A89AB89BC89BC01CD0181
S11303906A197B098C099D090E94BD05A801970172
S11303A024193509460957090E94EF05CA01B90104
S11303B06A0D7B1D8C1D9D1DDF91CF911F910F91A7
S11303C0FF90EF90DF90CF90BF90AF907F906F90B1
S11303D05F904F900895E0EAF8E0168283E083830B
S11303E08481886084838581816085838581806C34
S11303F08583089588E893E1E0EAF8E025812223E3
S113040044F023E02A95F1F700000197B9F780E062
S1130410089581E008959091A5089370933059F060
S1130420E0EAF8E094819B7F9483880F816087835E
S11304300E94FA01089580E00895E0EAF8E08481DA
S11304408460848384818360848308951F920F92DF
S11304500FB60F9211248F9381E0809343018F9103
S11304600F900FBE0F901F9018951F920F920FB60A
S11304700F9211242F933F934F935F936F937F9326
S11304808F939F93AF93BF93EF93FF930E94F300D7
S113049081E080930B0AFF91EF91BF91AF919F91FF
S11304A08F917F916F915F914F913F912F910F9019
S11304B00FBE0F901F9018950E941F010E940E01FD
S11304C01092400108950F931F93CF93DF93CDB7FC
S11304D0DEB7C054D109CDBFDEBF80E28E010F5F0D
S11304E01F4FD801E82F1D92EA95E9F7FE01B19656
S11304F0DF011D928A95E9F781EC9CE80E94410591
S113050028EB3BE040E2B8018AE00E94EA04882339
S113051091F1E7EAF1E63197F1F700C0000089ECC8
S11305209CE80E94410528EB3BE040E2BE016F5D80
S11305307F4F8AE00E94EA048823E9F08FED9CE86B
S11305400E9441058AEE9CE80E942C05C8010E9485
S113055041058FEE9CE80E942C05CE0181960E94F5
S1130560410581ED9CE80E942C0587EA91E60197FC
S1130570F1F700C00000C05CDF4FCDBFDEBFDF91EC
S1130580CF911F910F910895AF92BF92CF92DF92B6
S1130590EF92FF920F931F938091043860911E385D
S11305A070911F38E82FF0E0EB5FF74C7083E1E0C7
S11305B0E80FF0E0EB5FF74C60838E5F80930438C4
S11305C080E090E01F921F921F922FEF2F93A12C97
S11305D0B12C6501A39414E7E12E1EE0F12E00E096
S11305E010E020EF3AE040E050E00E94AA01809140
S11305F01C3890911D380E94420680911C389091BD
S11306001D38019680931C3890931D380E94AB04CA
S11306100E94980187EA91E60197F1F700C0000073
S11306200E946A0087EA91E60197F1F700C0000092
S11306306091043885E098E30E94B30087EA91E66C
S11306400197F1F700C000000E9494010E94AA00E3
S11306500F900F900F900F901F910F91FF90EF90BC
S1130660DF90CF90BF90AF900895C0E4D1E068943C
S1130670992491F805E018E30F2EFCE0BF2EF02D2D
S11306806894AA24A2F8C12CD12C7601C3941882B0
S113069080912C38811103C086E00E946C010E9475
S11306A03F0180931E3890931F3880912C3881111C
S11306B095C00E94E9000E9479050E94AB040E9443
S11306C094011092113881E090E00E945C028091C4
S11306D01B38883C10F580911C3890911D380E947D
S11306E03A0680931A38682F70E080E090E00E9408
S11306F04C0586E29DE80E94410580911C3890914A
S11307001D38019680931C3890931D3880911B38B6
S11307108F5F80931B38883CF0F210921C38109243
S11307201D380E94EB010E949C010E945B00811114
S113073002C0A09211380E94A6010E94980187EA83
S113074091E60197F1F700C000000E946A000E9440
S1130750A1009FE9E6E8F1E09150E040F040E1F7C4
S113076000C000000E9463022FE986E891E0215056
S113077080409040E1F700C000000E9494010E9474
S1130780AA0080911138882341F08F5F0E947C0178
S11307908CE390E00E941F0121C010921238109245
S11307A0133810921438109215381092163810928B
S11307B01738109218381092193890922C38E7EAAA
S11307C0F1E63197F1F700C000000E94C402F8017D
S11307D02B2D11922A95E9F71092043880911E3836
S11307E090911F388F3DEDE09E07B0F0F8012B2D5E
S11307F011922A95E9F7109204380E94C402C0921B
S11308002438D0922538E0922638F092273880E4B4
S113081098E30E941F0170C020912C38223009F007
S11308206BC04091203850912138609122387091EA
S11308302338413051056105710509F05DC08535E6
S11308409B4008F455C08091243890912538A0919C
S11308502638B09127380697A105B105B1F4F801FF
S11308602B2D11922A95E9F7109204380E94C402A4
S113087080E498E30E941F011092243810922538D6
S113088010922638109227381FC0809128389091F2
S11308902938A0912A38B0912B380197A105B105C8
S11308A079F4109228381092293810922A3810922C
S11308B02B380E94C40280E498E30E941F0104C004
S11308C080E498E30E941F01809124389091253898
S11308D0A0912638B09127380196A11DB11D8093AF
S11308E0243890932538A0932638B093273804C031
S11308F080E498E30E941F01809120389091213870
S1130900A0912238B0912338892B8A2B8B2BA1F408
S1130910C0922038D0922138E0922238F0922338C5
S1130920C0922838D0922938E0922A38F0922B3895
S113093080E498E30E941F010E94D4040E940E01E7
S1130940A6CEE0E0F8E0948195FFFDCF8093020805
S113095080E090E008951092E205A0E0B8E01696D9
S11309608C911697806C16968C931697E0E2F4E0BF
S113097084E085838081846080838081877F808315
S113098081EA91E018968D939C931997089580912C
S1130990040888233CF4E0E0F8E080819481992302
S11309A0E4F3089580E00895E0E0F4E080818D7F31
S11309B0808380818B7F808384E0818B828BE0E2E3
S11309C0F4E090819B7F90839081977F9083828BCA
S11309D0838B0895EF92FF920F931F93CF93DF932E
S11309E0182F7B01042FE90150E060E070E0C7019B
S11309F00E9428060E94C70490E0E0E0F8E08481A9
S1130A00882354F02197A9EFB0E01197F1F700C0C3
S1130A1000002097A1F718C080818A3069F08D30DA
S1130A2059F021E0290FD701A90FB11D8C9320178C
S1130A3010F090E001C0922F8113E1CFF701E90F8C
S1130A40F11D108281E001C080E0DF91CF911F9100
S1130A500F91FF90EF900895FC012081222381F0F3
S1130A60DC011196E0E0F8E0948195FFFDCF22834C
S1130A702D912111F9CFE0E0F8E0848185FFFDCFCD
S1130A8008950E942C0585E29DE80E942C0582EDC4
S1130A909CE80E942C050895CF92DF92EF92FF927A
S1130AA06B017C018AE0C816D104E104F10460F012
S1130AB0C701B6012AE030E040E050E00E94CD05D5
S1130AC0CA01B9010E944C05C701B6012AE030E011
S1130AD040E050E00E94CD05E0E0F8E0848185FF2D
S1130AE0FDCF605D60930208FF90EF90DF90CF90A0
S1130AF00895EDE2F8E381EA94E080879187128615
S1130B00138682E0838314861586E0933D38F09340
S1130B103E380895CF93DF93CDB7DEB76497CDBF4A
S1130B20DEBF91E1E7E2FDE8DE01119601900D924E
S1130B309A95E1F7E82FF0E0F595E795F595E795B7
S1130B40F595E795F595E79521E030E02C0F3D1FED
S1130B50E20FF31F90819A8B8F70F901E80FF11D5A
S1130B6080818B8B1C8ACE0142960E942C05649650
S1130B70CDBFDEBFDF91CF910895DB018F939F93AB
S1130B800E941D06BF91AF91A29F800D911DA39F4E
S1130B90900DB29F900D11240895A1E21A2EAA1B64
S1130BA0BB1BFD010DC0AA1FBB1FEE1FFF1FA21719
S1130BB0B307E407F50720F0A21BB30BE40BF50B16
S1130BC0661F771F881F991F1A9469F7609570959F
S1130BD0809590959B01AC01BD01CF010895052E30
S1130BE097FB1EF400940E94060657FD07D00E944E
S1130BF0CD0507FC03D04EF40C94060650954095A1
S1130C00309521953F4F4F4F5F4F089590958095B4
S1130C10709561957F4F8F4F9F4F0895A29FB001AC
S1130C20B39FC001A39F700D811D1124911DB29F1C
S1130C30700D811D1124911D08950E940E06A59F1B
S1130C40900DB49F900DA49F800D911D11240895C3
S1130C50DC0101C06D9341505040E0F70895FC0160
S1130C608191861721F08823D9F799270895319720
S1130C70CF01089503D0808199270895FC01E050A5
S1130C80FC4E0895262FAF93BF93E0E0F0E132814C
S1130C9031FDFDCFDC01A050BC4E2C932DE924BFC7
S1130CA023E020830196BF91AF910895F894FFCF7C
S1130CB0415400415424503D320041542453463D94
S1130CC000415424493D313100415424493D3130DF
S1130CD0000A0D005041433A200049443A20004B99
S1130CE0696E65666F785F7633005041433A004918
S1130CF0443A0024504D544B3331342C302C312C95
S1130D00302C312C302C302C302C302C302C302CFE
S1130D10302C302C302C302C302C302C302C302CEF
S1130D20302A32380D0A0030313233343536373810
S10B0D30396162636465660029
S9030000FC
